{
  "_format": "hh-sol-artifact-1",
  "contractName": "RefoundPost",
  "sourceName": "contracts/RefoundPost.sol",
  "abi": [
    {
      "inputs": [
        {
          "internalType": "address",
          "name": "_refound",
          "type": "address"
        },
        {
          "internalType": "address",
          "name": "_currency",
          "type": "address"
        },
        {
          "internalType": "string",
          "name": "_contractURI",
          "type": "string"
        }
      ],
      "stateMutability": "nonpayable",
      "type": "constructor"
    },
    {
      "anonymous": false,
      "inputs": [
        {
          "indexed": true,
          "internalType": "address",
          "name": "owner",
          "type": "address"
        },
        {
          "indexed": true,
          "internalType": "address",
          "name": "approved",
          "type": "address"
        },
        {
          "indexed": true,
          "internalType": "uint256",
          "name": "tokenId",
          "type": "uint256"
        }
      ],
      "name": "Approval",
      "type": "event"
    },
    {
      "anonymous": false,
      "inputs": [
        {
          "indexed": true,
          "internalType": "address",
          "name": "owner",
          "type": "address"
        },
        {
          "indexed": true,
          "internalType": "address",
          "name": "operator",
          "type": "address"
        },
        {
          "indexed": false,
          "internalType": "bool",
          "name": "approved",
          "type": "bool"
        }
      ],
      "name": "ApprovalForAll",
      "type": "event"
    },
    {
      "anonymous": false,
      "inputs": [
        {
          "indexed": true,
          "internalType": "address",
          "name": "interactor",
          "type": "address"
        },
        {
          "indexed": true,
          "internalType": "uint256",
          "name": "postID",
          "type": "uint256"
        },
        {
          "indexed": false,
          "internalType": "enum ContentInteraction",
          "name": "interactionType",
          "type": "uint8"
        }
      ],
      "name": "ContentInteracted",
      "type": "event"
    },
    {
      "anonymous": false,
      "inputs": [
        {
          "indexed": false,
          "internalType": "string",
          "name": "contractURI",
          "type": "string"
        }
      ],
      "name": "ContractURIUpdated",
      "type": "event"
    },
    {
      "anonymous": false,
      "inputs": [
        {
          "indexed": true,
          "internalType": "address",
          "name": "from",
          "type": "address"
        },
        {
          "indexed": true,
          "internalType": "address",
          "name": "to",
          "type": "address"
        },
        {
          "indexed": true,
          "internalType": "uint256",
          "name": "postID",
          "type": "uint256"
        },
        {
          "indexed": false,
          "internalType": "enum LicenseType",
          "name": "licenseType",
          "type": "uint8"
        },
        {
          "indexed": false,
          "internalType": "uint256",
          "name": "amount",
          "type": "uint256"
        }
      ],
      "name": "LicensePurchased",
      "type": "event"
    },
    {
      "anonymous": false,
      "inputs": [
        {
          "indexed": true,
          "internalType": "address",
          "name": "previousOwner",
          "type": "address"
        },
        {
          "indexed": true,
          "internalType": "address",
          "name": "newOwner",
          "type": "address"
        }
      ],
      "name": "OwnershipTransferred",
      "type": "event"
    },
    {
      "anonymous": false,
      "inputs": [
        {
          "indexed": false,
          "internalType": "uint256",
          "name": "profileID",
          "type": "uint256"
        },
        {
          "indexed": false,
          "internalType": "uint256",
          "name": "postID",
          "type": "uint256"
        },
        {
          "indexed": false,
          "internalType": "string",
          "name": "metadata",
          "type": "string"
        }
      ],
      "name": "PostCreated",
      "type": "event"
    },
    {
      "anonymous": false,
      "inputs": [
        {
          "indexed": false,
          "internalType": "uint8",
          "name": "licenseTypeIndex",
          "type": "uint8"
        },
        {
          "indexed": false,
          "internalType": "uint256",
          "name": "price",
          "type": "uint256"
        }
      ],
      "name": "PriceUpdated",
      "type": "event"
    },
    {
      "anonymous": false,
      "inputs": [
        {
          "indexed": true,
          "internalType": "address",
          "name": "from",
          "type": "address"
        },
        {
          "indexed": true,
          "internalType": "address",
          "name": "to",
          "type": "address"
        },
        {
          "indexed": true,
          "internalType": "uint256",
          "name": "tokenId",
          "type": "uint256"
        }
      ],
      "name": "Transfer",
      "type": "event"
    },
    {
      "inputs": [
        {
          "internalType": "address",
          "name": "to",
          "type": "address"
        },
        {
          "internalType": "uint256",
          "name": "tokenId",
          "type": "uint256"
        }
      ],
      "name": "approve",
      "outputs": [],
      "stateMutability": "nonpayable",
      "type": "function"
    },
    {
      "inputs": [
        {
          "internalType": "address",
          "name": "owner",
          "type": "address"
        }
      ],
      "name": "balanceOf",
      "outputs": [
        {
          "internalType": "uint256",
          "name": "",
          "type": "uint256"
        }
      ],
      "stateMutability": "view",
      "type": "function"
    },
    {
      "inputs": [
        {
          "internalType": "address",
          "name": "",
          "type": "address"
        },
        {
          "internalType": "uint256",
          "name": "",
          "type": "uint256"
        }
      ],
      "name": "buyerAddresstoLicense",
      "outputs": [
        {
          "internalType": "uint256",
          "name": "postID",
          "type": "uint256"
        },
        {
          "internalType": "enum LicenseType",
          "name": "LType",
          "type": "uint8"
        }
      ],
      "stateMutability": "view",
      "type": "function"
    },
    {
      "inputs": [
        {
          "internalType": "uint256",
          "name": "",
          "type": "uint256"
        },
        {
          "internalType": "uint256",
          "name": "",
          "type": "uint256"
        }
      ],
      "name": "contentInteractionAddresses",
      "outputs": [
        {
          "internalType": "address",
          "name": "",
          "type": "address"
        }
      ],
      "stateMutability": "view",
      "type": "function"
    },
    {
      "inputs": [
        {
          "internalType": "uint256",
          "name": "",
          "type": "uint256"
        },
        {
          "internalType": "address",
          "name": "",
          "type": "address"
        }
      ],
      "name": "contentInteractions",
      "outputs": [
        {
          "internalType": "enum ContentInteraction",
          "name": "",
          "type": "uint8"
        }
      ],
      "stateMutability": "view",
      "type": "function"
    },
    {
      "inputs": [],
      "name": "contractURI",
      "outputs": [
        {
          "internalType": "string",
          "name": "",
          "type": "string"
        }
      ],
      "stateMutability": "view",
      "type": "function"
    },
    {
      "inputs": [
        {
          "internalType": "uint256",
          "name": "tokenId",
          "type": "uint256"
        }
      ],
      "name": "getApproved",
      "outputs": [
        {
          "internalType": "address",
          "name": "",
          "type": "address"
        }
      ],
      "stateMutability": "view",
      "type": "function"
    },
    {
      "inputs": [
        {
          "internalType": "uint256",
          "name": "postID",
          "type": "uint256"
        },
        {
          "internalType": "uint8",
          "name": "interactionType",
          "type": "uint8"
        }
      ],
      "name": "interactWithContent",
      "outputs": [],
      "stateMutability": "nonpayable",
      "type": "function"
    },
    {
      "inputs": [
        {
          "internalType": "address",
          "name": "owner",
          "type": "address"
        },
        {
          "internalType": "address",
          "name": "operator",
          "type": "address"
        }
      ],
      "name": "isApprovedForAll",
      "outputs": [
        {
          "internalType": "bool",
          "name": "",
          "type": "bool"
        }
      ],
      "stateMutability": "view",
      "type": "function"
    },
    {
      "inputs": [
        {
          "internalType": "uint256",
          "name": "profileID",
          "type": "uint256"
        },
        {
          "internalType": "string",
          "name": "postData",
          "type": "string"
        },
        {
          "internalType": "address",
          "name": "postOwner",
          "type": "address"
        }
      ],
      "name": "makeRefoundPost",
      "outputs": [
        {
          "internalType": "uint256",
          "name": "_postID",
          "type": "uint256"
        }
      ],
      "stateMutability": "nonpayable",
      "type": "function"
    },
    {
      "inputs": [],
      "name": "name",
      "outputs": [
        {
          "internalType": "string",
          "name": "",
          "type": "string"
        }
      ],
      "stateMutability": "view",
      "type": "function"
    },
    {
      "inputs": [],
      "name": "owner",
      "outputs": [
        {
          "internalType": "address",
          "name": "",
          "type": "address"
        }
      ],
      "stateMutability": "view",
      "type": "function"
    },
    {
      "inputs": [
        {
          "internalType": "uint256",
          "name": "tokenId",
          "type": "uint256"
        }
      ],
      "name": "ownerOf",
      "outputs": [
        {
          "internalType": "address",
          "name": "",
          "type": "address"
        }
      ],
      "stateMutability": "view",
      "type": "function"
    },
    {
      "inputs": [
        {
          "internalType": "address",
          "name": "",
          "type": "address"
        },
        {
          "internalType": "uint256",
          "name": "",
          "type": "uint256"
        }
      ],
      "name": "ownerToPostIDs",
      "outputs": [
        {
          "internalType": "uint256",
          "name": "",
          "type": "uint256"
        }
      ],
      "stateMutability": "view",
      "type": "function"
    },
    {
      "inputs": [],
      "name": "posts",
      "outputs": [
        {
          "internalType": "uint256",
          "name": "",
          "type": "uint256"
        }
      ],
      "stateMutability": "view",
      "type": "function"
    },
    {
      "inputs": [
        {
          "internalType": "uint8",
          "name": "",
          "type": "uint8"
        }
      ],
      "name": "prices",
      "outputs": [
        {
          "internalType": "uint256",
          "name": "",
          "type": "uint256"
        }
      ],
      "stateMutability": "view",
      "type": "function"
    },
    {
      "inputs": [
        {
          "internalType": "uint256",
          "name": "postID",
          "type": "uint256"
        },
        {
          "internalType": "uint8",
          "name": "licenseType",
          "type": "uint8"
        }
      ],
      "name": "purchaseLicense",
      "outputs": [],
      "stateMutability": "nonpayable",
      "type": "function"
    },
    {
      "inputs": [],
      "name": "refound",
      "outputs": [
        {
          "internalType": "address",
          "name": "",
          "type": "address"
        }
      ],
      "stateMutability": "view",
      "type": "function"
    },
    {
      "inputs": [],
      "name": "renounceOwnership",
      "outputs": [],
      "stateMutability": "nonpayable",
      "type": "function"
    },
    {
      "inputs": [
        {
          "internalType": "uint256",
          "name": "_tokenId",
          "type": "uint256"
        },
        {
          "internalType": "uint256",
          "name": "_salePrice",
          "type": "uint256"
        }
      ],
      "name": "royaltyInfo",
      "outputs": [
        {
          "internalType": "address",
          "name": "",
          "type": "address"
        },
        {
          "internalType": "uint256",
          "name": "",
          "type": "uint256"
        }
      ],
      "stateMutability": "view",
      "type": "function"
    },
    {
      "inputs": [
        {
          "internalType": "address",
          "name": "from",
          "type": "address"
        },
        {
          "internalType": "address",
          "name": "to",
          "type": "address"
        },
        {
          "internalType": "uint256",
          "name": "tokenId",
          "type": "uint256"
        }
      ],
      "name": "safeTransferFrom",
      "outputs": [],
      "stateMutability": "nonpayable",
      "type": "function"
    },
    {
      "inputs": [
        {
          "internalType": "address",
          "name": "from",
          "type": "address"
        },
        {
          "internalType": "address",
          "name": "to",
          "type": "address"
        },
        {
          "internalType": "uint256",
          "name": "tokenId",
          "type": "uint256"
        },
        {
          "internalType": "bytes",
          "name": "data",
          "type": "bytes"
        }
      ],
      "name": "safeTransferFrom",
      "outputs": [],
      "stateMutability": "nonpayable",
      "type": "function"
    },
    {
      "inputs": [
        {
          "internalType": "address",
          "name": "operator",
          "type": "address"
        },
        {
          "internalType": "bool",
          "name": "approved",
          "type": "bool"
        }
      ],
      "name": "setApprovalForAll",
      "outputs": [],
      "stateMutability": "nonpayable",
      "type": "function"
    },
    {
      "inputs": [
        {
          "internalType": "string",
          "name": "_contractURI",
          "type": "string"
        }
      ],
      "name": "setContractURI",
      "outputs": [],
      "stateMutability": "nonpayable",
      "type": "function"
    },
    {
      "inputs": [
        {
          "internalType": "bytes4",
          "name": "interfaceId",
          "type": "bytes4"
        }
      ],
      "name": "supportsInterface",
      "outputs": [
        {
          "internalType": "bool",
          "name": "",
          "type": "bool"
        }
      ],
      "stateMutability": "view",
      "type": "function"
    },
    {
      "inputs": [],
      "name": "symbol",
      "outputs": [
        {
          "internalType": "string",
          "name": "",
          "type": "string"
        }
      ],
      "stateMutability": "view",
      "type": "function"
    },
    {
      "inputs": [
        {
          "internalType": "uint256",
          "name": "tokenId",
          "type": "uint256"
        }
      ],
      "name": "tokenURI",
      "outputs": [
        {
          "internalType": "string",
          "name": "",
          "type": "string"
        }
      ],
      "stateMutability": "view",
      "type": "function"
    },
    {
      "inputs": [
        {
          "internalType": "address",
          "name": "from",
          "type": "address"
        },
        {
          "internalType": "address",
          "name": "to",
          "type": "address"
        },
        {
          "internalType": "uint256",
          "name": "tokenId",
          "type": "uint256"
        }
      ],
      "name": "transferFrom",
      "outputs": [],
      "stateMutability": "nonpayable",
      "type": "function"
    },
    {
      "inputs": [
        {
          "internalType": "address",
          "name": "newOwner",
          "type": "address"
        }
      ],
      "name": "transferOwnership",
      "outputs": [],
      "stateMutability": "nonpayable",
      "type": "function"
    },
    {
      "inputs": [
        {
          "internalType": "uint8",
          "name": "licenseTypeIndex",
          "type": "uint8"
        },
        {
          "internalType": "uint256",
          "name": "price",
          "type": "uint256"
        }
      ],
      "name": "updatePrice",
      "outputs": [],
      "stateMutability": "nonpayable",
      "type": "function"
    }
  ],
  "bytecode": "0x60806040523480156200001157600080fd5b50604051620028a1380380620028a183398101604081905262000034916200023b565b604080518082018252600b81526a1499599bdd5b99141bdcdd60aa1b6020808301918252835180850190945260068452650464f554e44560d41b908401528151919291620000859160009162000162565b5080516200009b90600190602084019062000162565b505050620000b8620000b26200010c60201b60201c565b62000110565b600e80546001600160a01b038086166001600160a01b0319928316179092556000600d55600a80549285169290911691909117905580516200010290601090602084019062000162565b505050506200037c565b3390565b600980546001600160a01b038381166001600160a01b0319831681179093556040519116919082907f8be0079c531659141344cd1fd0a4f28419497f9722a3daafe3b4186f6b6457e090600090a35050565b82805462000170906200033f565b90600052602060002090601f016020900481019282620001945760008555620001df565b82601f10620001af57805160ff1916838001178555620001df565b82800160010185558215620001df579182015b82811115620001df578251825591602001919060010190620001c2565b50620001ed929150620001f1565b5090565b5b80821115620001ed5760008155600101620001f2565b80516001600160a01b03811681146200022057600080fd5b919050565b634e487b7160e01b600052604160045260246000fd5b6000806000606084860312156200025157600080fd5b6200025c8462000208565b925060206200026d81860162000208565b60408601519093506001600160401b03808211156200028b57600080fd5b818701915087601f830112620002a057600080fd5b815181811115620002b557620002b562000225565b604051601f8201601f19908116603f01168101908382118183101715620002e057620002e062000225565b816040528281528a86848701011115620002f957600080fd5b600093505b828410156200031d5784840186015181850187015292850192620002fe565b828411156200032f5760008684830101525b8096505050505050509250925092565b600181811c908216806200035457607f821691505b602082108114156200037657634e487b7160e01b600052602260045260246000fd5b50919050565b612515806200038c6000396000f3fe608060405234801561001057600080fd5b50600436106101d95760003560e01c80637efca41f11610104578063b88d4fde116100a2578063e8a3d48511610071578063e8a3d4851461044b578063e985e9c514610453578063f2fde38b1461048f578063f634341a146104a257600080fd5b8063b88d4fde146103c9578063b96e41e0146103dc578063c87b56dd146103fd578063e18ecd3a1461041057600080fd5b8063938e3d7b116100de578063938e3d7b1461038857806395d89b411461039b578063a22cb465146103a3578063b3c90e11146103b657600080fd5b80637efca41f146103445780638a3177a3146103575780638da5cb5b1461037757600080fd5b80632a55205a1161017c5780636352211e1161014b5780636352211e146102ff57806367b2cf1d1461031257806370a0823114610329578063715018a61461033c57600080fd5b80632a55205a1461029457806342842e0e146102c657806360b88995146102d9578063630ffb99146102ec57600080fd5b8063081812fc116101b8578063081812fc14610230578063095ea7b31461025b5780631f706f141461026e57806323b872dd1461028157600080fd5b80627fa4f0146101de57806301ffc9a7146101f357806306fdde031461021b575b600080fd5b6101f16101ec366004611d85565b6104b5565b005b610206610201366004611dc5565b61050f565b60405190151581526020015b60405180910390f35b610223610520565b6040516102129190611e3a565b61024361023e366004611e4d565b6105b2565b6040516001600160a01b039091168152602001610212565b6101f1610269366004611e7d565b6105d9565b6101f161027c366004611e99565b610710565b6101f161028f366004611ec5565b6108c8565b6102a76102a2366004611f01565b61094f565b604080516001600160a01b039093168352602083019190915201610212565b6101f16102d4366004611ec5565b610a0a565b6101f16102e7366004611e99565b610a25565b6102436102fa366004611f01565b610b32565b61024361030d366004611e4d565b610b6a565b61031b600d5481565b604051908152602001610212565b61031b610337366004611f23565b610bcf565b6101f1610c69565b61031b610352366004611fea565b610c7d565b61031b610365366004612041565b600c6020526000908152604090205481565b6009546001600160a01b0316610243565b6101f161039636600461205c565b610dd4565b610223610e2a565b6101f16103b136600461209f565b610e39565b600e54610243906001600160a01b031681565b6101f16103d73660046120d6565b610e48565b6103ef6103ea366004611e7d565b610ed6565b604051610212929190612186565b61022361040b366004611e4d565b610f15565b61043e61041e3660046121a3565b600b60209081526000928352604080842090915290825290205460ff1681565b60405161021291906121c6565b610223611026565b6102066104613660046121d9565b6001600160a01b03918216600090815260056020908152604080832093909416825291909152205460ff1690565b6101f161049d366004611f23565b6110b4565b61031b6104b0366004611e7d565b611144565b6104bd611175565b60ff82166000818152600c6020908152604091829020849055815192835282018390527ff798c75b2db09ea1034d9be253e9974b17bbe4a06f2b0ff6695054fa5b747191910160405180910390a15050565b600061051a826111cf565b92915050565b60606000805461052f90612203565b80601f016020809104026020016040519081016040528092919081815260200182805461055b90612203565b80156105a85780601f1061057d576101008083540402835291602001916105a8565b820191906000526020600020905b81548152906001019060200180831161058b57829003601f168201915b5050505050905090565b60006105bd8261120d565b506000908152600460205260409020546001600160a01b031690565b60006105e482610b6a565b9050806001600160a01b0316836001600160a01b031614156106735760405162461bcd60e51b815260206004820152602160248201527f4552433732313a20617070726f76616c20746f2063757272656e74206f776e6560448201527f720000000000000000000000000000000000000000000000000000000000000060648201526084015b60405180910390fd5b336001600160a01b038216148061068f575061068f8133610461565b6107015760405162461bcd60e51b815260206004820152603e60248201527f4552433732313a20617070726f76652063616c6c6572206973206e6f7420746f60448201527f6b656e206f776e6572206e6f7220617070726f76656420666f7220616c6c0000606482015260840161066a565b61070b8383611271565b505050565b600a546001600160a01b03166323b872dd3361072b85610b6a565b60ff85166000908152600c60205260409081902054905160e085901b6001600160e01b03191681526001600160a01b03938416600482015292909116602483015260448201526064016020604051808303816000875af1158015610793573d6000803e3d6000fd5b505050506040513d601f19601f820116820180604052508101906107b7919061223e565b50336000908152600f602090815260409182902082518084019093528483529190810160ff841660038111156107ef576107ef612152565b600381111561080057610800612152565b905281546001818101845560009384526020938490208351600290930201918255928201518184018054939492939192909160ff19169083600381111561084957610849612152565b021790555050508161085a83610b6a565b6001600160a01b0316337fcb8210798540f650931edffc520ba916545bf0f09af1b13ea5a8740231893c0f60ff8516600381111561089a5761089a612152565b60ff86166000908152600c6020526040908190205490516108bc92919061225b565b60405180910390a45050565b6108d233826112df565b6109445760405162461bcd60e51b815260206004820152602e60248201527f4552433732313a2063616c6c6572206973206e6f7420746f6b656e206f776e6560448201527f72206e6f7220617070726f766564000000000000000000000000000000000000606482015260840161066a565b61070b83838361135d565b60008281526008602090815260408083208151808301909252546001600160a01b038116808352600160a01b9091046bffffffffffffffffffffffff169282019290925282916109ce5750604080518082019091526007546001600160a01b0381168252600160a01b90046bffffffffffffffffffffffff1660208201525b6020810151600090612710906109f2906bffffffffffffffffffffffff1687612288565b6109fc91906122bd565b915196919550909350505050565b61070b83838360405180602001604052806000815250610e48565b60ff8116610a3257600080fd5b6000828152600b6020908152604080832033845290915281205460ff166003811115610a6057610a60612152565b14610a945760008281526012602090815260408220805460018101825590835291200180546001600160a01b031916331790555b8060ff166003811115610aa957610aa9612152565b6000838152600b602090815260408083203384529091529020805460ff19166001836003811115610adc57610adc612152565b021790555081337f5246ad18aedf74bd85d9865281c9402ff5e9c133257cd36574ad1ad1ad77a2f260ff84166003811115610b1957610b19612152565b604051610b2691906121c6565b60405180910390a35050565b60126020528160005260406000208181548110610b4e57600080fd5b6000918252602090912001546001600160a01b03169150829050565b6000818152600260205260408120546001600160a01b03168061051a5760405162461bcd60e51b815260206004820152601860248201527f4552433732313a20696e76616c696420746f6b656e2049440000000000000000604482015260640161066a565b60006001600160a01b038216610c4d5760405162461bcd60e51b815260206004820152602960248201527f4552433732313a2061646472657373207a65726f206973206e6f74206120766160448201527f6c6964206f776e65720000000000000000000000000000000000000000000000606482015260840161066a565b506001600160a01b031660009081526003602052604090205490565b610c71611175565b610c7b600061152a565b565b600e546000906001600160a01b03163314610d005760405162461bcd60e51b815260206004820152602960248201527f6f6e6c7920746865207265666f756e6420636f6e74726163742063616e206d6160448201527f6b65206120706f73740000000000000000000000000000000000000000000000606482015260840161066a565b600d805460009182610d11836122d1565b9190505590506000610d228661157c565b610d2b8361157c565b86604051602001610d3e939291906122ec565b6040516020818303038152906040529050610d5984836116ae565b610d6382826116c8565b6001600160a01b038416600090815260116020908152604080832080546001810182559084529190922001839055517f0f1db10d0087721c7eec1c7b0e9d20d9211033f0c0401d783d72101601b4522390610dc3908890859085906123d6565b60405180910390a150949350505050565b610ddc611175565b8051610def906010906020840190611cd6565b507f905d981207a7d0b6c62cc46ab0be2a076d0298e4a86d0ab79882dbd01ac3737881604051610e1f9190611e3a565b60405180910390a150565b60606001805461052f90612203565b610e44338383611771565b5050565b610e5233836112df565b610ec45760405162461bcd60e51b815260206004820152602e60248201527f4552433732313a2063616c6c6572206973206e6f7420746f6b656e206f776e6560448201527f72206e6f7220617070726f766564000000000000000000000000000000000000606482015260840161066a565b610ed084848484611840565b50505050565b600f6020528160005260406000208181548110610ef257600080fd5b60009182526020909120600290910201805460019091015490925060ff16905082565b6060610f208261120d565b60008281526006602052604081208054610f3990612203565b80601f0160208091040260200160405190810160405280929190818152602001828054610f6590612203565b8015610fb25780601f10610f8757610100808354040283529160200191610fb2565b820191906000526020600020905b815481529060010190602001808311610f9557829003601f168201915b505050505090506000610fd060408051602081019091526000815290565b9050805160001415610fe3575092915050565b815115611015578082604051602001610ffd9291906123fe565b60405160208183030381529060405292505050919050565b61101e846118be565b949350505050565b6010805461103390612203565b80601f016020809104026020016040519081016040528092919081815260200182805461105f90612203565b80156110ac5780601f10611081576101008083540402835291602001916110ac565b820191906000526020600020905b81548152906001019060200180831161108f57829003601f168201915b505050505081565b6110bc611175565b6001600160a01b0381166111385760405162461bcd60e51b815260206004820152602660248201527f4f776e61626c653a206e6577206f776e657220697320746865207a65726f206160448201527f6464726573730000000000000000000000000000000000000000000000000000606482015260840161066a565b6111418161152a565b50565b6011602052816000526040600020818154811061116057600080fd5b90600052602060002001600091509150505481565b6009546001600160a01b03163314610c7b5760405162461bcd60e51b815260206004820181905260248201527f4f776e61626c653a2063616c6c6572206973206e6f7420746865206f776e6572604482015260640161066a565b60006001600160e01b031982167f2a55205a00000000000000000000000000000000000000000000000000000000148061051a575061051a82611932565b6000818152600260205260409020546001600160a01b03166111415760405162461bcd60e51b815260206004820152601860248201527f4552433732313a20696e76616c696420746f6b656e2049440000000000000000604482015260640161066a565b600081815260046020526040902080546001600160a01b0319166001600160a01b03841690811790915581906112a682610b6a565b6001600160a01b03167f8c5be1e5ebec7d5bd14f71427d1e84f3dd0314c0f7b2291e5b200ac8c7c3b92560405160405180910390a45050565b6000806112eb83610b6a565b9050806001600160a01b0316846001600160a01b0316148061133257506001600160a01b0380821660009081526005602090815260408083209388168352929052205460ff165b8061101e5750836001600160a01b031661134b846105b2565b6001600160a01b031614949350505050565b826001600160a01b031661137082610b6a565b6001600160a01b0316146113ec5760405162461bcd60e51b815260206004820152602560248201527f4552433732313a207472616e736665722066726f6d20696e636f72726563742060448201527f6f776e6572000000000000000000000000000000000000000000000000000000606482015260840161066a565b6001600160a01b0382166114675760405162461bcd60e51b8152602060048201526024808201527f4552433732313a207472616e7366657220746f20746865207a65726f2061646460448201527f7265737300000000000000000000000000000000000000000000000000000000606482015260840161066a565b611472600082611271565b6001600160a01b038316600090815260036020526040812080546001929061149b90849061242d565b90915550506001600160a01b03821660009081526003602052604081208054600192906114c9908490612444565b909155505060008181526002602052604080822080546001600160a01b0319166001600160a01b0386811691821790925591518493918716917fddf252ad1be2c89b69c2b068fc378daa952ba7f163c4a11628f55a4df523b3ef91a4505050565b600980546001600160a01b038381166001600160a01b0319831681179093556040519116919082907f8be0079c531659141344cd1fd0a4f28419497f9722a3daafe3b4186f6b6457e090600090a35050565b6060816115bc57505060408051808201909152600181527f3000000000000000000000000000000000000000000000000000000000000000602082015290565b8160005b81156115e657806115d0816122d1565b91506115df9050600a836122bd565b91506115c0565b60008167ffffffffffffffff81111561160157611601611f3e565b6040519080825280601f01601f19166020018201604052801561162b576020820181803683370190505b5090505b841561101e5761164060018361242d565b915061164d600a8661245c565b611658906030612444565b60f81b81838151811061166d5761166d612470565b60200101907effffffffffffffffffffffffffffffffffffffffffffffffffffffffffffff1916908160001a9053506116a7600a866122bd565b945061162f565b610e448282604051806020016040528060008152506119cd565b6000828152600260205260409020546001600160a01b03166117525760405162461bcd60e51b815260206004820152602e60248201527f45524337323155524953746f726167653a2055524920736574206f66206e6f6e60448201527f6578697374656e7420746f6b656e000000000000000000000000000000000000606482015260840161066a565b6000828152600660209081526040909120825161070b92840190611cd6565b816001600160a01b0316836001600160a01b031614156117d35760405162461bcd60e51b815260206004820152601960248201527f4552433732313a20617070726f766520746f2063616c6c657200000000000000604482015260640161066a565b6001600160a01b03838116600081815260056020908152604080832094871680845294825291829020805460ff191686151590811790915591519182527f17307eab39ab6107e8899845ad3d59bd9653f200f220920489ca2b5937696c31910160405180910390a3505050565b61184b84848461135d565b61185784848484611a4b565b610ed05760405162461bcd60e51b815260206004820152603260248201527f4552433732313a207472616e7366657220746f206e6f6e20455243373231526560448201527131b2b4bb32b91034b6b83632b6b2b73a32b960711b606482015260840161066a565b60606118c98261120d565b60006118e060408051602081019091526000815290565b90506000815111611900576040518060200160405280600081525061192b565b8061190a8461157c565b60405160200161191b9291906123fe565b6040516020818303038152906040525b9392505050565b60006001600160e01b031982167f80ac58cd00000000000000000000000000000000000000000000000000000000148061199557506001600160e01b031982167f5b5e139f00000000000000000000000000000000000000000000000000000000145b8061051a57507f01ffc9a7000000000000000000000000000000000000000000000000000000006001600160e01b031983161461051a565b6119d78383611b94565b6119e46000848484611a4b565b61070b5760405162461bcd60e51b815260206004820152603260248201527f4552433732313a207472616e7366657220746f206e6f6e20455243373231526560448201527131b2b4bb32b91034b6b83632b6b2b73a32b960711b606482015260840161066a565b60006001600160a01b0384163b15611b8957604051630a85bd0160e11b81526001600160a01b0385169063150b7a0290611a8f903390899088908890600401612486565b6020604051808303816000875af1925050508015611aca575060408051601f3d908101601f19168201909252611ac7918101906124c2565b60015b611b6f573d808015611af8576040519150601f19603f3d011682016040523d82523d6000602084013e611afd565b606091505b508051611b675760405162461bcd60e51b815260206004820152603260248201527f4552433732313a207472616e7366657220746f206e6f6e20455243373231526560448201527131b2b4bb32b91034b6b83632b6b2b73a32b960711b606482015260840161066a565b805181602001fd5b6001600160e01b031916630a85bd0160e11b14905061101e565b506001949350505050565b6001600160a01b038216611bea5760405162461bcd60e51b815260206004820181905260248201527f4552433732313a206d696e7420746f20746865207a65726f2061646472657373604482015260640161066a565b6000818152600260205260409020546001600160a01b031615611c4f5760405162461bcd60e51b815260206004820152601c60248201527f4552433732313a20746f6b656e20616c7265616479206d696e74656400000000604482015260640161066a565b6001600160a01b0382166000908152600360205260408120805460019290611c78908490612444565b909155505060008181526002602052604080822080546001600160a01b0319166001600160a01b03861690811790915590518392907fddf252ad1be2c89b69c2b068fc378daa952ba7f163c4a11628f55a4df523b3ef908290a45050565b828054611ce290612203565b90600052602060002090601f016020900481019282611d045760008555611d4a565b82601f10611d1d57805160ff1916838001178555611d4a565b82800160010185558215611d4a579182015b82811115611d4a578251825591602001919060010190611d2f565b50611d56929150611d5a565b5090565b5b80821115611d565760008155600101611d5b565b803560ff81168114611d8057600080fd5b919050565b60008060408385031215611d9857600080fd5b611da183611d6f565b946020939093013593505050565b6001600160e01b03198116811461114157600080fd5b600060208284031215611dd757600080fd5b813561192b81611daf565b60005b83811015611dfd578181015183820152602001611de5565b83811115610ed05750506000910152565b60008151808452611e26816020860160208601611de2565b601f01601f19169290920160200192915050565b60208152600061192b6020830184611e0e565b600060208284031215611e5f57600080fd5b5035919050565b80356001600160a01b0381168114611d8057600080fd5b60008060408385031215611e9057600080fd5b611da183611e66565b60008060408385031215611eac57600080fd5b82359150611ebc60208401611d6f565b90509250929050565b600080600060608486031215611eda57600080fd5b611ee384611e66565b9250611ef160208501611e66565b9150604084013590509250925092565b60008060408385031215611f1457600080fd5b50508035926020909101359150565b600060208284031215611f3557600080fd5b61192b82611e66565b634e487b7160e01b600052604160045260246000fd5b600067ffffffffffffffff80841115611f6f57611f6f611f3e565b604051601f8501601f19908116603f01168101908282118183101715611f9757611f97611f3e565b81604052809350858152868686011115611fb057600080fd5b858560208301376000602087830101525050509392505050565b600082601f830112611fdb57600080fd5b61192b83833560208501611f54565b600080600060608486031215611fff57600080fd5b83359250602084013567ffffffffffffffff81111561201d57600080fd5b61202986828701611fca565b92505061203860408501611e66565b90509250925092565b60006020828403121561205357600080fd5b61192b82611d6f565b60006020828403121561206e57600080fd5b813567ffffffffffffffff81111561208557600080fd5b61101e84828501611fca565b801515811461114157600080fd5b600080604083850312156120b257600080fd5b6120bb83611e66565b915060208301356120cb81612091565b809150509250929050565b600080600080608085870312156120ec57600080fd5b6120f585611e66565b935061210360208601611e66565b925060408501359150606085013567ffffffffffffffff81111561212657600080fd5b8501601f8101871361213757600080fd5b61214687823560208401611f54565b91505092959194509250565b634e487b7160e01b600052602160045260246000fd5b6004811061114157634e487b7160e01b600052602160045260246000fd5b8281526040810161219683612168565b8260208301529392505050565b600080604083850312156121b657600080fd5b82359150611ebc60208401611e66565b602081016121d383612168565b91905290565b600080604083850312156121ec57600080fd5b6121f583611e66565b9150611ebc60208401611e66565b600181811c9082168061221757607f821691505b6020821081141561223857634e487b7160e01b600052602260045260246000fd5b50919050565b60006020828403121561225057600080fd5b815161192b81612091565b6040810161226884612168565b9281526020015290565b634e487b7160e01b600052601160045260246000fd5b60008160001904831182151516156122a2576122a2612272565b500290565b634e487b7160e01b600052601260045260246000fd5b6000826122cc576122cc6122a7565b500490565b60006000198214156122e5576122e5612272565b5060010190565b7f7b2270726f66696c654964223a2000000000000000000000000000000000000081526000845161232481600e850160208901611de2565b7f2c2022706f73744964223a200000000000000000000000000000000000000000600e91840191820152845161236181601a840160208901611de2565b7f2c2022706f737444617461223a20000000000000000000000000000000000000601a9290910191820152835161239f816028840160208801611de2565b7f7d000000000000000000000000000000000000000000000000000000000000006028929091019182015260290195945050505050565b8381528260208201526060604082015260006123f56060830184611e0e565b95945050505050565b60008351612410818460208801611de2565b835190830190612424818360208801611de2565b01949350505050565b60008282101561243f5761243f612272565b500390565b6000821982111561245757612457612272565b500190565b60008261246b5761246b6122a7565b500690565b634e487b7160e01b600052603260045260246000fd5b60006001600160a01b038087168352808616602084015250836040830152608060608301526124b86080830184611e0e565b9695505050505050565b6000602082840312156124d457600080fd5b815161192b81611daf56fea26469706673582212209d963e8b6faca207380ae57673d6db918499773d62136ee734f795cf7710581064736f6c634300080a0033",
  "linkReferences": {},
  "deployedLinkReferences": {}
}