{
  "_format": "hh-sol-artifact-1",
  "contractName": "RefoundPost",
  "sourceName": "contracts/RefoundPost.sol",
  "abi": [
    {
      "inputs": [
        {
          "internalType": "address",
          "name": "_refound",
          "type": "address"
        },
        {
          "internalType": "address",
          "name": "_currency",
          "type": "address"
        }
      ],
      "stateMutability": "nonpayable",
      "type": "constructor"
    },
    {
      "anonymous": false,
      "inputs": [
        {
          "indexed": true,
          "internalType": "address",
          "name": "owner",
          "type": "address"
        },
        {
          "indexed": true,
          "internalType": "address",
          "name": "approved",
          "type": "address"
        },
        {
          "indexed": true,
          "internalType": "uint256",
          "name": "tokenId",
          "type": "uint256"
        }
      ],
      "name": "Approval",
      "type": "event"
    },
    {
      "anonymous": false,
      "inputs": [
        {
          "indexed": true,
          "internalType": "address",
          "name": "owner",
          "type": "address"
        },
        {
          "indexed": true,
          "internalType": "address",
          "name": "operator",
          "type": "address"
        },
        {
          "indexed": false,
          "internalType": "bool",
          "name": "approved",
          "type": "bool"
        }
      ],
      "name": "ApprovalForAll",
      "type": "event"
    },
    {
      "anonymous": false,
      "inputs": [
        {
          "indexed": true,
          "internalType": "address",
          "name": "from",
          "type": "address"
        },
        {
          "indexed": true,
          "internalType": "address",
          "name": "to",
          "type": "address"
        },
        {
          "indexed": true,
          "internalType": "uint256",
          "name": "tokenId",
          "type": "uint256"
        }
      ],
      "name": "Transfer",
      "type": "event"
    },
    {
      "inputs": [
        {
          "internalType": "address",
          "name": "to",
          "type": "address"
        },
        {
          "internalType": "uint256",
          "name": "tokenId",
          "type": "uint256"
        }
      ],
      "name": "approve",
      "outputs": [],
      "stateMutability": "nonpayable",
      "type": "function"
    },
    {
      "inputs": [
        {
          "internalType": "address",
          "name": "owner",
          "type": "address"
        }
      ],
      "name": "balanceOf",
      "outputs": [
        {
          "internalType": "uint256",
          "name": "",
          "type": "uint256"
        }
      ],
      "stateMutability": "view",
      "type": "function"
    },
    {
      "inputs": [],
      "name": "getAllPosts",
      "outputs": [
        {
          "internalType": "string[]",
          "name": "",
          "type": "string[]"
        }
      ],
      "stateMutability": "view",
      "type": "function"
    },
    {
      "inputs": [
        {
          "internalType": "uint256",
          "name": "tokenId",
          "type": "uint256"
        }
      ],
      "name": "getApproved",
      "outputs": [
        {
          "internalType": "address",
          "name": "",
          "type": "address"
        }
      ],
      "stateMutability": "view",
      "type": "function"
    },
    {
      "inputs": [
        {
          "internalType": "uint256",
          "name": "postID",
          "type": "uint256"
        }
      ],
      "name": "getContentInteractionAddresses",
      "outputs": [
        {
          "internalType": "address[]",
          "name": "",
          "type": "address[]"
        }
      ],
      "stateMutability": "view",
      "type": "function"
    },
    {
      "inputs": [
        {
          "internalType": "uint256",
          "name": "postID",
          "type": "uint256"
        },
        {
          "internalType": "address",
          "name": "user",
          "type": "address"
        }
      ],
      "name": "getContentInteractions",
      "outputs": [
        {
          "internalType": "enum contentInteraction",
          "name": "",
          "type": "uint8"
        }
      ],
      "stateMutability": "view",
      "type": "function"
    },
    {
      "inputs": [
        {
          "internalType": "address",
          "name": "user",
          "type": "address"
        }
      ],
      "name": "getLicensesByAddress",
      "outputs": [
        {
          "components": [
            {
              "internalType": "uint256",
              "name": "postID",
              "type": "uint256"
            },
            {
              "internalType": "enum LicenseType",
              "name": "Ltype",
              "type": "uint8"
            },
            {
              "internalType": "uint256",
              "name": "purchaseDate",
              "type": "uint256"
            }
          ],
          "internalType": "struct License[]",
          "name": "",
          "type": "tuple[]"
        }
      ],
      "stateMutability": "view",
      "type": "function"
    },
    {
      "inputs": [
        {
          "internalType": "address",
          "name": "user",
          "type": "address"
        }
      ],
      "name": "getPostIDs",
      "outputs": [
        {
          "internalType": "uint256[]",
          "name": "",
          "type": "uint256[]"
        }
      ],
      "stateMutability": "view",
      "type": "function"
    },
    {
      "inputs": [
        {
          "internalType": "uint256",
          "name": "postID",
          "type": "uint256"
        },
        {
          "internalType": "uint8",
          "name": "interactionType",
          "type": "uint8"
        }
      ],
      "name": "interactWithContent",
      "outputs": [],
      "stateMutability": "nonpayable",
      "type": "function"
    },
    {
      "inputs": [
        {
          "internalType": "address",
          "name": "owner",
          "type": "address"
        },
        {
          "internalType": "address",
          "name": "operator",
          "type": "address"
        }
      ],
      "name": "isApprovedForAll",
      "outputs": [
        {
          "internalType": "bool",
          "name": "",
          "type": "bool"
        }
      ],
      "stateMutability": "view",
      "type": "function"
    },
    {
      "inputs": [
        {
          "internalType": "uint256",
          "name": "profileID",
          "type": "uint256"
        },
        {
          "internalType": "string",
          "name": "postData",
          "type": "string"
        },
        {
          "internalType": "address",
          "name": "postOwner",
          "type": "address"
        }
      ],
      "name": "makeRefoundPost",
      "outputs": [
        {
          "internalType": "uint256",
          "name": "",
          "type": "uint256"
        }
      ],
      "stateMutability": "nonpayable",
      "type": "function"
    },
    {
      "inputs": [],
      "name": "name",
      "outputs": [
        {
          "internalType": "string",
          "name": "",
          "type": "string"
        }
      ],
      "stateMutability": "view",
      "type": "function"
    },
    {
      "inputs": [],
      "name": "owner",
      "outputs": [
        {
          "internalType": "address",
          "name": "",
          "type": "address"
        }
      ],
      "stateMutability": "view",
      "type": "function"
    },
    {
      "inputs": [
        {
          "internalType": "uint256",
          "name": "tokenId",
          "type": "uint256"
        }
      ],
      "name": "ownerOf",
      "outputs": [
        {
          "internalType": "address",
          "name": "",
          "type": "address"
        }
      ],
      "stateMutability": "view",
      "type": "function"
    },
    {
      "inputs": [],
      "name": "posts",
      "outputs": [
        {
          "internalType": "uint256",
          "name": "",
          "type": "uint256"
        }
      ],
      "stateMutability": "view",
      "type": "function"
    },
    {
      "inputs": [
        {
          "internalType": "uint256",
          "name": "postID",
          "type": "uint256"
        },
        {
          "internalType": "uint8",
          "name": "licenseType",
          "type": "uint8"
        }
      ],
      "name": "purchaseLicense",
      "outputs": [],
      "stateMutability": "nonpayable",
      "type": "function"
    },
    {
      "inputs": [],
      "name": "refound",
      "outputs": [
        {
          "internalType": "address",
          "name": "",
          "type": "address"
        }
      ],
      "stateMutability": "view",
      "type": "function"
    },
    {
      "inputs": [
        {
          "internalType": "address",
          "name": "from",
          "type": "address"
        },
        {
          "internalType": "address",
          "name": "to",
          "type": "address"
        },
        {
          "internalType": "uint256",
          "name": "tokenId",
          "type": "uint256"
        }
      ],
      "name": "safeTransferFrom",
      "outputs": [],
      "stateMutability": "nonpayable",
      "type": "function"
    },
    {
      "inputs": [
        {
          "internalType": "address",
          "name": "from",
          "type": "address"
        },
        {
          "internalType": "address",
          "name": "to",
          "type": "address"
        },
        {
          "internalType": "uint256",
          "name": "tokenId",
          "type": "uint256"
        },
        {
          "internalType": "bytes",
          "name": "data",
          "type": "bytes"
        }
      ],
      "name": "safeTransferFrom",
      "outputs": [],
      "stateMutability": "nonpayable",
      "type": "function"
    },
    {
      "inputs": [
        {
          "internalType": "address",
          "name": "operator",
          "type": "address"
        },
        {
          "internalType": "bool",
          "name": "approved",
          "type": "bool"
        }
      ],
      "name": "setApprovalForAll",
      "outputs": [],
      "stateMutability": "nonpayable",
      "type": "function"
    },
    {
      "inputs": [
        {
          "internalType": "bytes4",
          "name": "interfaceId",
          "type": "bytes4"
        }
      ],
      "name": "supportsInterface",
      "outputs": [
        {
          "internalType": "bool",
          "name": "",
          "type": "bool"
        }
      ],
      "stateMutability": "view",
      "type": "function"
    },
    {
      "inputs": [],
      "name": "symbol",
      "outputs": [
        {
          "internalType": "string",
          "name": "",
          "type": "string"
        }
      ],
      "stateMutability": "view",
      "type": "function"
    },
    {
      "inputs": [
        {
          "internalType": "uint256",
          "name": "tokenId",
          "type": "uint256"
        }
      ],
      "name": "tokenURI",
      "outputs": [
        {
          "internalType": "string",
          "name": "",
          "type": "string"
        }
      ],
      "stateMutability": "view",
      "type": "function"
    },
    {
      "inputs": [
        {
          "internalType": "address",
          "name": "from",
          "type": "address"
        },
        {
          "internalType": "address",
          "name": "to",
          "type": "address"
        },
        {
          "internalType": "uint256",
          "name": "tokenId",
          "type": "uint256"
        }
      ],
      "name": "transferFrom",
      "outputs": [],
      "stateMutability": "nonpayable",
      "type": "function"
    },
    {
      "inputs": [
        {
          "internalType": "uint8",
          "name": "index",
          "type": "uint8"
        },
        {
          "internalType": "uint256",
          "name": "price",
          "type": "uint256"
        }
      ],
      "name": "updatePrice",
      "outputs": [],
      "stateMutability": "nonpayable",
      "type": "function"
    }
  ],
  "bytecode": "0x60806040523480156200001157600080fd5b50604051620027be380380620027be833981016040819052620000349162000253565b604080518082018252600b81526a1499599bdd5b99141bdcdd60aa1b6020808301918252835180850190945260068452650464f554e44560d41b908401528151919291620000859160009162000190565b5080516200009b90600190602084019062000190565b5050600e80546001600160a01b0319166001600160a01b038516179055506000600d55604080518082019091526007815266037bbb732b91d160cd1b602080830191909152620000f7919033906200011e811b6200103417901c565b600980546001600160a01b0319166001600160a01b03929092169190911790555062000331565b6200016b8282604051602401620001379291906200028b565b60408051601f198184030181529190526020810180516001600160e01b0390811663319af33360e01b179091526200016f16565b5050565b80516a636f6e736f6c652e6c6f67602083016000808483855afa5050505050565b8280546200019e90620002f4565b90600052602060002090601f016020900481019282620001c257600085556200020d565b82601f10620001dd57805160ff19168380011785556200020d565b828001600101855582156200020d579182015b828111156200020d578251825591602001919060010190620001f0565b506200021b9291506200021f565b5090565b5b808211156200021b576000815560010162000220565b80516001600160a01b03811681146200024e57600080fd5b919050565b600080604083850312156200026757600080fd5b620002728362000236565b9150620002826020840162000236565b90509250929050565b604081526000835180604084015260005b81811015620002bb57602081870181015160608684010152016200029c565b81811115620002ce576000606083860101525b506001600160a01b0393909316602083015250601f91909101601f191601606001919050565b600181811c908216806200030957607f821691505b602082108114156200032b57634e487b7160e01b600052602260045260246000fd5b50919050565b61247d80620003416000396000f3fe608060405234801561001057600080fd5b50600436106101a25760003560e01c80636352211e116100ee578063988ddb8911610097578063b88d4fde11610071578063b88d4fde14610389578063c7f4c5671461039c578063c87b56dd146103e2578063e985e9c5146103f557600080fd5b8063988ddb8914610343578063a22cb46514610363578063b3c90e111461037657600080fd5b80637efca41f116100c85780637efca41f146103155780638da5cb5b1461032857806395d89b411461033b57600080fd5b80636352211e146102d857806367b2cf1d146102eb57806370a082311461030257600080fd5b80631d2e223911610150578063305611001161012a578063305611001461029d57806342842e0e146102b257806360b88995146102c557600080fd5b80631d2e2239146102575780631f706f141461027757806323b872dd1461028a57600080fd5b806306fdde031161018157806306fdde0314610204578063081812fc14610219578063095ea7b31461024457600080fd5b80627fa4f0146101a757806301ffc9a7146101bc57806304dc6379146101e4575b600080fd5b6101ba6101b5366004611bf4565b610431565b005b6101cf6101ca366004611c34565b610486565b60405190151581526020015b60405180910390f35b6101f76101f2366004611c68565b610523565b6040516101db9190611c83565b61020c61058f565b6040516101db9190611d1f565b61022c610227366004611d32565b610621565b6040516001600160a01b0390911681526020016101db565b6101ba610252366004611d4b565b610648565b61026a610265366004611c68565b61077f565b6040516101db9190611d9b565b6101ba610285366004611dfd565b610841565b6101ba610298366004611e29565b610998565b6102a5610a1f565b6040516101db9190611e65565b6101ba6102c0366004611e29565b610ac0565b6101ba6102d3366004611dfd565b610adb565b61022c6102e6366004611d32565b610ba8565b6102f4600d5481565b6040519081526020016101db565b6102f4610310366004611c68565b610c0d565b6102f4610323366004611f53565b610ca7565b600c5461022c906001600160a01b031681565b61020c610e0c565b610356610351366004611d32565b610e1b565b6040516101db9190611fbe565b6101ba61037136600461200d565b610e86565b600e5461022c906001600160a01b031681565b6101ba610397366004612044565b610e95565b6103d56103aa3660046120c0565b6000918252600a602090815260408084206001600160a01b0393909316845291905290205460ff1690565b6040516101db91906120e3565b61020c6103f0366004611d32565b610f23565b6101cf6104033660046120f6565b6001600160a01b03918216600090815260056020908152604080832093909416825291909152205460ff1690565b6104706040518060400160405280601381526020017f61646472657373206f662063616c6c65723a200000000000000000000000000081525033611034565b60ff9091166000908152600b6020526040902055565b60006001600160e01b031982167f80ac58cd0000000000000000000000000000000000000000000000000000000014806104e957506001600160e01b031982167f5b5e139f00000000000000000000000000000000000000000000000000000000145b8061051d57507f01ffc9a7000000000000000000000000000000000000000000000000000000006001600160e01b03198316145b92915050565b6001600160a01b03811660009081526007602090815260409182902080548351818402810184019094528084526060939283018282801561058357602002820191906000526020600020905b81548152602001906001019080831161056f575b50505050509050919050565b60606000805461059e90612120565b80601f01602080910402602001604051908101604052809291908181526020018280546105ca90612120565b80156106175780601f106105ec57610100808354040283529160200191610617565b820191906000526020600020905b8154815290600101906020018083116105fa57829003601f168201915b5050505050905090565b600061062c826110a7565b506000908152600460205260409020546001600160a01b031690565b600061065382610ba8565b9050806001600160a01b0316836001600160a01b031614156106e25760405162461bcd60e51b815260206004820152602160248201527f4552433732313a20617070726f76616c20746f2063757272656e74206f776e6560448201527f720000000000000000000000000000000000000000000000000000000000000060648201526084015b60405180910390fd5b336001600160a01b03821614806106fe57506106fe8133610403565b6107705760405162461bcd60e51b815260206004820152603e60248201527f4552433732313a20617070726f76652063616c6c6572206973206e6f7420746f60448201527f6b656e206f776e6572206e6f7220617070726f76656420666f7220616c6c000060648201526084016106d9565b61077a838361110e565b505050565b6001600160a01b0381166000908152600f60209081526040808320805482518185028101850190935280835260609492939192909184015b828210156108365783829060005260206000209060030201604051806060016040529081600082015481526020016001820160009054906101000a900460ff16600381111561080857610808611d67565b600381111561081957610819611d67565b8152602001600282015481525050815260200190600101906107b7565b505050509050919050565b6009546001600160a01b03166323b872dd3361085c85610ba8565b60ff85166000908152600b60205260409081902054905160e085901b6001600160e01b03191681526001600160a01b03938416600482015292909116602483015260448201526064016020604051808303816000875af11580156108c4573d6000803e3d6000fd5b505050506040513d601f19601f820116820180604052508101906108e89190612155565b50336000908152600f60209081526040918290208251606081019093528483529190810160ff8416600381111561092157610921611d67565b600381111561093257610932611d67565b81524260209182015282546001818101855560009485529382902083516003928302909101908155918301518285018054949593949193909260ff1990921691849081111561098357610983611d67565b02179055506040820151816002015550505050565b6109a23382611189565b610a145760405162461bcd60e51b815260206004820152602e60248201527f4552433732313a2063616c6c6572206973206e6f7420746f6b656e206f776e6560448201527f72206e6f7220617070726f76656400000000000000000000000000000000000060648201526084016106d9565b61077a838383611207565b60606000600d5467ffffffffffffffff811115610a3e57610a3e611ec7565b604051908082528060200260200182016040528015610a7157816020015b6060815260200190600190039081610a5c5790505b50905060005b600d54811015610aba57610a8a81610f23565b828281518110610a9c57610a9c612172565b60200260200101819052508080610ab29061219e565b915050610a77565b50919050565b61077a83838360405180602001604052806000815250610e95565b60ff8116610ae857600080fd5b6000828152600a6020908152604080832033845290915281205460ff166003811115610b1657610b16611d67565b14610b5757600082815260086020908152604082208054600181018255908352912001805473ffffffffffffffffffffffffffffffffffffffff1916331790555b8060ff166003811115610b6c57610b6c611d67565b6000838152600a602090815260408083203384529091529020805460ff19166001836003811115610b9f57610b9f611d67565b02179055505050565b6000818152600260205260408120546001600160a01b03168061051d5760405162461bcd60e51b815260206004820152601860248201527f4552433732313a20696e76616c696420746f6b656e204944000000000000000060448201526064016106d9565b60006001600160a01b038216610c8b5760405162461bcd60e51b815260206004820152602960248201527f4552433732313a2061646472657373207a65726f206973206e6f74206120766160448201527f6c6964206f776e6572000000000000000000000000000000000000000000000060648201526084016106d9565b506001600160a01b031660009081526003602052604090205490565b600e546000906001600160a01b03163314610d2a5760405162461bcd60e51b815260206004820152602960248201527f6f6e6c7920746865207265666f756e6420636f6e74726163742063616e206d6160448201527f6b65206120706f7374000000000000000000000000000000000000000000000060648201526084016106d9565b600d805460009182610d3b8361219e565b909155506001600160a01b03841660009081526007602090815260408220805460018101825590835290822001829055909150610d77866113e1565b610d80836113e1565b86610d8a426113e1565b604051602001610d9d94939291906121b9565b6040516020818303038152906040529050610db88483611513565b610dc2828261152d565b610e036040518060400160405280600f81526020017f6d696e74656420706f7374204e465400000000000000000000000000000000008152508386846115d6565b50949350505050565b60606001805461059e90612120565b60008181526008602090815260409182902080548351818402810184019094528084526060939283018282801561058357602002820191906000526020600020905b81546001600160a01b03168152600190910190602001808311610e5d5750505050509050919050565b610e9133838361164d565b5050565b610e9f3383611189565b610f115760405162461bcd60e51b815260206004820152602e60248201527f4552433732313a2063616c6c6572206973206e6f7420746f6b656e206f776e6560448201527f72206e6f7220617070726f76656400000000000000000000000000000000000060648201526084016106d9565b610f1d8484848461171c565b50505050565b6060610f2e826110a7565b60008281526006602052604081208054610f4790612120565b80601f0160208091040260200160405190810160405280929190818152602001828054610f7390612120565b8015610fc05780601f10610f9557610100808354040283529160200191610fc0565b820191906000526020600020905b815481529060010190602001808311610fa357829003601f168201915b505050505090506000610fde60408051602081019091526000815290565b9050805160001415610ff1575092915050565b81511561102357808260405160200161100b9291906122e2565b60405160208183030381529060405292505050919050565b61102c8461179a565b949350505050565b610e91828260405160240161104a929190612311565b60408051601f198184030181529190526020810180517bffffffffffffffffffffffffffffffffffffffffffffffffffffffff167f319af3330000000000000000000000000000000000000000000000000000000017905261180e565b6000818152600260205260409020546001600160a01b031661110b5760405162461bcd60e51b815260206004820152601860248201527f4552433732313a20696e76616c696420746f6b656e204944000000000000000060448201526064016106d9565b50565b6000818152600460205260409020805473ffffffffffffffffffffffffffffffffffffffff19166001600160a01b038416908117909155819061115082610ba8565b6001600160a01b03167f8c5be1e5ebec7d5bd14f71427d1e84f3dd0314c0f7b2291e5b200ac8c7c3b92560405160405180910390a45050565b60008061119583610ba8565b9050806001600160a01b0316846001600160a01b031614806111dc57506001600160a01b0380821660009081526005602090815260408083209388168352929052205460ff165b8061102c5750836001600160a01b03166111f584610621565b6001600160a01b031614949350505050565b826001600160a01b031661121a82610ba8565b6001600160a01b0316146112965760405162461bcd60e51b815260206004820152602560248201527f4552433732313a207472616e736665722066726f6d20696e636f72726563742060448201527f6f776e657200000000000000000000000000000000000000000000000000000060648201526084016106d9565b6001600160a01b0382166113115760405162461bcd60e51b8152602060048201526024808201527f4552433732313a207472616e7366657220746f20746865207a65726f2061646460448201527f726573730000000000000000000000000000000000000000000000000000000060648201526084016106d9565b61131c60008261110e565b6001600160a01b038316600090815260036020526040812080546001929061134590849061233c565b90915550506001600160a01b0382166000908152600360205260408120805460019290611373908490612353565b9091555050600081815260026020526040808220805473ffffffffffffffffffffffffffffffffffffffff19166001600160a01b0386811691821790925591518493918716917fddf252ad1be2c89b69c2b068fc378daa952ba7f163c4a11628f55a4df523b3ef91a4505050565b60608161142157505060408051808201909152600181527f3000000000000000000000000000000000000000000000000000000000000000602082015290565b8160005b811561144b57806114358161219e565b91506114449050600a83612381565b9150611425565b60008167ffffffffffffffff81111561146657611466611ec7565b6040519080825280601f01601f191660200182016040528015611490576020820181803683370190505b5090505b841561102c576114a560018361233c565b91506114b2600a86612395565b6114bd906030612353565b60f81b8183815181106114d2576114d2612172565b60200101907effffffffffffffffffffffffffffffffffffffffffffffffffffffffffffff1916908160001a90535061150c600a86612381565b9450611494565b610e9182826040518060200160405280600081525061182f565b6000828152600260205260409020546001600160a01b03166115b75760405162461bcd60e51b815260206004820152602e60248201527f45524337323155524953746f726167653a2055524920736574206f66206e6f6e60448201527f6578697374656e7420746f6b656e00000000000000000000000000000000000060648201526084016106d9565b6000828152600660209081526040909120825161077a92840190611b45565b610f1d848484846040516024016115f094939291906123a9565b60408051601f198184030181529190526020810180517bffffffffffffffffffffffffffffffffffffffffffffffffffffffff167f9ffb2f930000000000000000000000000000000000000000000000000000000017905261180e565b816001600160a01b0316836001600160a01b031614156116af5760405162461bcd60e51b815260206004820152601960248201527f4552433732313a20617070726f766520746f2063616c6c65720000000000000060448201526064016106d9565b6001600160a01b03838116600081815260056020908152604080832094871680845294825291829020805460ff191686151590811790915591519182527f17307eab39ab6107e8899845ad3d59bd9653f200f220920489ca2b5937696c31910160405180910390a3505050565b611727848484611207565b611733848484846118ad565b610f1d5760405162461bcd60e51b815260206004820152603260248201527f4552433732313a207472616e7366657220746f206e6f6e20455243373231526560448201527131b2b4bb32b91034b6b83632b6b2b73a32b960711b60648201526084016106d9565b60606117a5826110a7565b60006117bc60408051602081019091526000815290565b905060008151116117dc5760405180602001604052806000815250611807565b806117e6846113e1565b6040516020016117f79291906122e2565b6040516020818303038152906040525b9392505050565b80516a636f6e736f6c652e6c6f67602083016000808483855afa5050505050565b61183983836119f6565b61184660008484846118ad565b61077a5760405162461bcd60e51b815260206004820152603260248201527f4552433732313a207472616e7366657220746f206e6f6e20455243373231526560448201527131b2b4bb32b91034b6b83632b6b2b73a32b960711b60648201526084016106d9565b60006001600160a01b0384163b156119eb57604051630a85bd0160e11b81526001600160a01b0385169063150b7a02906118f19033908990889088906004016123ee565b6020604051808303816000875af192505050801561192c575060408051601f3d908101601f191682019092526119299181019061242a565b60015b6119d1573d80801561195a576040519150601f19603f3d011682016040523d82523d6000602084013e61195f565b606091505b5080516119c95760405162461bcd60e51b815260206004820152603260248201527f4552433732313a207472616e7366657220746f206e6f6e20455243373231526560448201527131b2b4bb32b91034b6b83632b6b2b73a32b960711b60648201526084016106d9565b805181602001fd5b6001600160e01b031916630a85bd0160e11b14905061102c565b506001949350505050565b6001600160a01b038216611a4c5760405162461bcd60e51b815260206004820181905260248201527f4552433732313a206d696e7420746f20746865207a65726f206164647265737360448201526064016106d9565b6000818152600260205260409020546001600160a01b031615611ab15760405162461bcd60e51b815260206004820152601c60248201527f4552433732313a20746f6b656e20616c7265616479206d696e7465640000000060448201526064016106d9565b6001600160a01b0382166000908152600360205260408120805460019290611ada908490612353565b9091555050600081815260026020526040808220805473ffffffffffffffffffffffffffffffffffffffff19166001600160a01b03861690811790915590518392907fddf252ad1be2c89b69c2b068fc378daa952ba7f163c4a11628f55a4df523b3ef908290a45050565b828054611b5190612120565b90600052602060002090601f016020900481019282611b735760008555611bb9565b82601f10611b8c57805160ff1916838001178555611bb9565b82800160010185558215611bb9579182015b82811115611bb9578251825591602001919060010190611b9e565b50611bc5929150611bc9565b5090565b5b80821115611bc55760008155600101611bca565b803560ff81168114611bef57600080fd5b919050565b60008060408385031215611c0757600080fd5b611c1083611bde565b946020939093013593505050565b6001600160e01b03198116811461110b57600080fd5b600060208284031215611c4657600080fd5b813561180781611c1e565b80356001600160a01b0381168114611bef57600080fd5b600060208284031215611c7a57600080fd5b61180782611c51565b6020808252825182820181905260009190848201906040850190845b81811015611cbb57835183529284019291840191600101611c9f565b50909695505050505050565b60005b83811015611ce2578181015183820152602001611cca565b83811115610f1d5750506000910152565b60008151808452611d0b816020860160208601611cc7565b601f01601f19169290920160200192915050565b6020815260006118076020830184611cf3565b600060208284031215611d4457600080fd5b5035919050565b60008060408385031215611d5e57600080fd5b611c1083611c51565b634e487b7160e01b600052602160045260246000fd5b6004811061110b57634e487b7160e01b600052602160045260246000fd5b602080825282518282018190526000919060409081850190868401855b82811015611df05781518051855286810151611dd381611d7d565b858801528501518585015260609093019290850190600101611db8565b5091979650505050505050565b60008060408385031215611e1057600080fd5b82359150611e2060208401611bde565b90509250929050565b600080600060608486031215611e3e57600080fd5b611e4784611c51565b9250611e5560208501611c51565b9150604084013590509250925092565b6000602080830181845280855180835260408601915060408160051b870101925083870160005b82811015611eba57603f19888603018452611ea8858351611cf3565b94509285019290850190600101611e8c565b5092979650505050505050565b634e487b7160e01b600052604160045260246000fd5b600067ffffffffffffffff80841115611ef857611ef8611ec7565b604051601f8501601f19908116603f01168101908282118183101715611f2057611f20611ec7565b81604052809350858152868686011115611f3957600080fd5b858560208301376000602087830101525050509392505050565b600080600060608486031215611f6857600080fd5b83359250602084013567ffffffffffffffff811115611f8657600080fd5b8401601f81018613611f9757600080fd5b611fa686823560208401611edd565b925050611fb560408501611c51565b90509250925092565b6020808252825182820181905260009190848201906040850190845b81811015611cbb5783516001600160a01b031683529284019291840191600101611fda565b801515811461110b57600080fd5b6000806040838503121561202057600080fd5b61202983611c51565b9150602083013561203981611fff565b809150509250929050565b6000806000806080858703121561205a57600080fd5b61206385611c51565b935061207160208601611c51565b925060408501359150606085013567ffffffffffffffff81111561209457600080fd5b8501601f810187136120a557600080fd5b6120b487823560208401611edd565b91505092959194509250565b600080604083850312156120d357600080fd5b82359150611e2060208401611c51565b602081016120f083611d7d565b91905290565b6000806040838503121561210957600080fd5b61211283611c51565b9150611e2060208401611c51565b600181811c9082168061213457607f821691505b60208210811415610aba57634e487b7160e01b600052602260045260246000fd5b60006020828403121561216757600080fd5b815161180781611fff565b634e487b7160e01b600052603260045260246000fd5b634e487b7160e01b600052601160045260246000fd5b60006000198214156121b2576121b2612188565b5060010190565b7f7b2270726f66696c654964223a200000000000000000000000000000000000008152600085516121f181600e850160208a01611cc7565b7f2c2022706f73744964223a200000000000000000000000000000000000000000600e91840191820152855161222e81601a840160208a01611cc7565b7f2c2022706f737444617461223a20000000000000000000000000000000000000601a9290910191820152845161226c816028840160208901611cc7565b7f2c2022637265617465644174223a2000000000000000000000000000000000006028929091019182015283516122aa816037840160208801611cc7565b7f7d00000000000000000000000000000000000000000000000000000000000000603792909101918201526038019695505050505050565b600083516122f4818460208801611cc7565b835190830190612308818360208801611cc7565b01949350505050565b6040815260006123246040830185611cf3565b90506001600160a01b03831660208301529392505050565b60008282101561234e5761234e612188565b500390565b6000821982111561236657612366612188565b500190565b634e487b7160e01b600052601260045260246000fd5b6000826123905761239061236b565b500490565b6000826123a4576123a461236b565b500690565b6080815260006123bc6080830187611cf3565b8560208401526001600160a01b038516604084015282810360608401526123e38185611cf3565b979650505050505050565b60006001600160a01b038087168352808616602084015250836040830152608060608301526124206080830184611cf3565b9695505050505050565b60006020828403121561243c57600080fd5b815161180781611c1e56fea26469706673582212208df308c61672391116fe1677df1055e06313a8ae8189961f80972fce87856df864736f6c634300080a0033",
  "linkReferences": {},
  "deployedLinkReferences": {}
}