{
  "_format": "hh-sol-artifact-1",
  "contractName": "RefoundPost",
  "sourceName": "contracts/RefoundPost.sol",
  "abi": [
    {
      "inputs": [
        {
          "internalType": "address",
          "name": "_refound",
          "type": "address"
        },
        {
          "internalType": "address",
          "name": "_currency",
          "type": "address"
        }
      ],
      "stateMutability": "nonpayable",
      "type": "constructor"
    },
    {
      "anonymous": false,
      "inputs": [
        {
          "indexed": true,
          "internalType": "address",
          "name": "owner",
          "type": "address"
        },
        {
          "indexed": true,
          "internalType": "address",
          "name": "approved",
          "type": "address"
        },
        {
          "indexed": true,
          "internalType": "uint256",
          "name": "tokenId",
          "type": "uint256"
        }
      ],
      "name": "Approval",
      "type": "event"
    },
    {
      "anonymous": false,
      "inputs": [
        {
          "indexed": true,
          "internalType": "address",
          "name": "owner",
          "type": "address"
        },
        {
          "indexed": true,
          "internalType": "address",
          "name": "operator",
          "type": "address"
        },
        {
          "indexed": false,
          "internalType": "bool",
          "name": "approved",
          "type": "bool"
        }
      ],
      "name": "ApprovalForAll",
      "type": "event"
    },
    {
      "anonymous": false,
      "inputs": [
        {
          "indexed": true,
          "internalType": "address",
          "name": "from",
          "type": "address"
        },
        {
          "indexed": true,
          "internalType": "address",
          "name": "to",
          "type": "address"
        },
        {
          "indexed": true,
          "internalType": "uint256",
          "name": "tokenId",
          "type": "uint256"
        }
      ],
      "name": "Transfer",
      "type": "event"
    },
    {
      "inputs": [
        {
          "internalType": "address",
          "name": "to",
          "type": "address"
        },
        {
          "internalType": "uint256",
          "name": "tokenId",
          "type": "uint256"
        }
      ],
      "name": "approve",
      "outputs": [],
      "stateMutability": "nonpayable",
      "type": "function"
    },
    {
      "inputs": [
        {
          "internalType": "address",
          "name": "owner",
          "type": "address"
        }
      ],
      "name": "balanceOf",
      "outputs": [
        {
          "internalType": "uint256",
          "name": "",
          "type": "uint256"
        }
      ],
      "stateMutability": "view",
      "type": "function"
    },
    {
      "inputs": [
        {
          "internalType": "uint256",
          "name": "tokenId",
          "type": "uint256"
        }
      ],
      "name": "getApproved",
      "outputs": [
        {
          "internalType": "address",
          "name": "",
          "type": "address"
        }
      ],
      "stateMutability": "view",
      "type": "function"
    },
    {
      "inputs": [
        {
          "internalType": "uint256",
          "name": "postID",
          "type": "uint256"
        }
      ],
      "name": "getContentInteractionAddresses",
      "outputs": [
        {
          "internalType": "address[]",
          "name": "",
          "type": "address[]"
        }
      ],
      "stateMutability": "view",
      "type": "function"
    },
    {
      "inputs": [
        {
          "internalType": "uint256",
          "name": "postID",
          "type": "uint256"
        },
        {
          "internalType": "address",
          "name": "user",
          "type": "address"
        }
      ],
      "name": "getContentInteractions",
      "outputs": [
        {
          "internalType": "enum contentInteraction",
          "name": "",
          "type": "uint8"
        }
      ],
      "stateMutability": "view",
      "type": "function"
    },
    {
      "inputs": [
        {
          "internalType": "address",
          "name": "user",
          "type": "address"
        }
      ],
      "name": "getLicensesByAddress",
      "outputs": [
        {
          "components": [
            {
              "internalType": "uint256",
              "name": "postID",
              "type": "uint256"
            },
            {
              "internalType": "enum LicenseType",
              "name": "Ltype",
              "type": "uint8"
            },
            {
              "internalType": "uint256",
              "name": "purchaseDate",
              "type": "uint256"
            }
          ],
          "internalType": "struct License[]",
          "name": "",
          "type": "tuple[]"
        }
      ],
      "stateMutability": "view",
      "type": "function"
    },
    {
      "inputs": [
        {
          "internalType": "address",
          "name": "user",
          "type": "address"
        }
      ],
      "name": "getPostIDs",
      "outputs": [
        {
          "internalType": "uint256[]",
          "name": "",
          "type": "uint256[]"
        }
      ],
      "stateMutability": "view",
      "type": "function"
    },
    {
      "inputs": [
        {
          "internalType": "uint256",
          "name": "postID",
          "type": "uint256"
        },
        {
          "internalType": "uint8",
          "name": "interactionType",
          "type": "uint8"
        }
      ],
      "name": "interactWithContent",
      "outputs": [],
      "stateMutability": "nonpayable",
      "type": "function"
    },
    {
      "inputs": [
        {
          "internalType": "address",
          "name": "owner",
          "type": "address"
        },
        {
          "internalType": "address",
          "name": "operator",
          "type": "address"
        }
      ],
      "name": "isApprovedForAll",
      "outputs": [
        {
          "internalType": "bool",
          "name": "",
          "type": "bool"
        }
      ],
      "stateMutability": "view",
      "type": "function"
    },
    {
      "inputs": [
        {
          "internalType": "uint256",
          "name": "profileID",
          "type": "uint256"
        },
        {
          "internalType": "string",
          "name": "postData",
          "type": "string"
        },
        {
          "internalType": "address",
          "name": "postOwner",
          "type": "address"
        }
      ],
      "name": "makeRefoundPost",
      "outputs": [
        {
          "internalType": "uint256",
          "name": "",
          "type": "uint256"
        }
      ],
      "stateMutability": "nonpayable",
      "type": "function"
    },
    {
      "inputs": [],
      "name": "name",
      "outputs": [
        {
          "internalType": "string",
          "name": "",
          "type": "string"
        }
      ],
      "stateMutability": "view",
      "type": "function"
    },
    {
      "inputs": [],
      "name": "owner",
      "outputs": [
        {
          "internalType": "address",
          "name": "",
          "type": "address"
        }
      ],
      "stateMutability": "view",
      "type": "function"
    },
    {
      "inputs": [
        {
          "internalType": "uint256",
          "name": "tokenId",
          "type": "uint256"
        }
      ],
      "name": "ownerOf",
      "outputs": [
        {
          "internalType": "address",
          "name": "",
          "type": "address"
        }
      ],
      "stateMutability": "view",
      "type": "function"
    },
    {
      "inputs": [],
      "name": "posts",
      "outputs": [
        {
          "internalType": "uint256",
          "name": "",
          "type": "uint256"
        }
      ],
      "stateMutability": "view",
      "type": "function"
    },
    {
      "inputs": [
        {
          "internalType": "uint256",
          "name": "postID",
          "type": "uint256"
        },
        {
          "internalType": "uint8",
          "name": "licenseType",
          "type": "uint8"
        }
      ],
      "name": "purchaseLicense",
      "outputs": [],
      "stateMutability": "nonpayable",
      "type": "function"
    },
    {
      "inputs": [],
      "name": "refound",
      "outputs": [
        {
          "internalType": "address",
          "name": "",
          "type": "address"
        }
      ],
      "stateMutability": "view",
      "type": "function"
    },
    {
      "inputs": [
        {
          "internalType": "address",
          "name": "from",
          "type": "address"
        },
        {
          "internalType": "address",
          "name": "to",
          "type": "address"
        },
        {
          "internalType": "uint256",
          "name": "tokenId",
          "type": "uint256"
        }
      ],
      "name": "safeTransferFrom",
      "outputs": [],
      "stateMutability": "nonpayable",
      "type": "function"
    },
    {
      "inputs": [
        {
          "internalType": "address",
          "name": "from",
          "type": "address"
        },
        {
          "internalType": "address",
          "name": "to",
          "type": "address"
        },
        {
          "internalType": "uint256",
          "name": "tokenId",
          "type": "uint256"
        },
        {
          "internalType": "bytes",
          "name": "data",
          "type": "bytes"
        }
      ],
      "name": "safeTransferFrom",
      "outputs": [],
      "stateMutability": "nonpayable",
      "type": "function"
    },
    {
      "inputs": [
        {
          "internalType": "address",
          "name": "operator",
          "type": "address"
        },
        {
          "internalType": "bool",
          "name": "approved",
          "type": "bool"
        }
      ],
      "name": "setApprovalForAll",
      "outputs": [],
      "stateMutability": "nonpayable",
      "type": "function"
    },
    {
      "inputs": [
        {
          "internalType": "bytes4",
          "name": "interfaceId",
          "type": "bytes4"
        }
      ],
      "name": "supportsInterface",
      "outputs": [
        {
          "internalType": "bool",
          "name": "",
          "type": "bool"
        }
      ],
      "stateMutability": "view",
      "type": "function"
    },
    {
      "inputs": [],
      "name": "symbol",
      "outputs": [
        {
          "internalType": "string",
          "name": "",
          "type": "string"
        }
      ],
      "stateMutability": "view",
      "type": "function"
    },
    {
      "inputs": [
        {
          "internalType": "uint256",
          "name": "tokenId",
          "type": "uint256"
        }
      ],
      "name": "tokenURI",
      "outputs": [
        {
          "internalType": "string",
          "name": "",
          "type": "string"
        }
      ],
      "stateMutability": "view",
      "type": "function"
    },
    {
      "inputs": [
        {
          "internalType": "address",
          "name": "from",
          "type": "address"
        },
        {
          "internalType": "address",
          "name": "to",
          "type": "address"
        },
        {
          "internalType": "uint256",
          "name": "tokenId",
          "type": "uint256"
        }
      ],
      "name": "transferFrom",
      "outputs": [],
      "stateMutability": "nonpayable",
      "type": "function"
    },
    {
      "inputs": [
        {
          "internalType": "uint8",
          "name": "index",
          "type": "uint8"
        },
        {
          "internalType": "uint256",
          "name": "price",
          "type": "uint256"
        }
      ],
      "name": "updatePrice",
      "outputs": [],
      "stateMutability": "nonpayable",
      "type": "function"
    }
  ],
  "bytecode": "0x60806040523480156200001157600080fd5b50604051620026a1380380620026a1833981016040819052620000349162000253565b604080518082018252600b81526a1499599bdd5b99141bdcdd60aa1b6020808301918252835180850190945260068452650464f554e44560d41b908401528151919291620000859160009162000190565b5080516200009b90600190602084019062000190565b5050600e80546001600160a01b0319166001600160a01b038516179055506000600d55604080518082019091526007815266037bbb732b91d160cd1b602080830191909152620000f7919033906200011e811b62000f7317901c565b600980546001600160a01b0319166001600160a01b03929092169190911790555062000331565b6200016b8282604051602401620001379291906200028b565b60408051601f198184030181529190526020810180516001600160e01b0390811663319af33360e01b179091526200016f16565b5050565b80516a636f6e736f6c652e6c6f67602083016000808483855afa5050505050565b8280546200019e90620002f4565b90600052602060002090601f016020900481019282620001c257600085556200020d565b82601f10620001dd57805160ff19168380011785556200020d565b828001600101855582156200020d579182015b828111156200020d578251825591602001919060010190620001f0565b506200021b9291506200021f565b5090565b5b808211156200021b576000815560010162000220565b80516001600160a01b03811681146200024e57600080fd5b919050565b600080604083850312156200026757600080fd5b620002728362000236565b9150620002826020840162000236565b90509250929050565b604081526000835180604084015260005b81811015620002bb57602081870181015160608684010152016200029c565b81811115620002ce576000606083860101525b506001600160a01b0393909316602083015250601f91909101601f191601606001919050565b600181811c908216806200030957607f821691505b602082108114156200032b57634e487b7160e01b600052602260045260246000fd5b50919050565b61236080620003416000396000f3fe608060405234801561001057600080fd5b50600436106101975760003560e01c806367b2cf1d116100e3578063a22cb4651161008c578063c7f4c56711610066578063c7f4c5671461037c578063c87b56dd146103c2578063e985e9c5146103d557600080fd5b8063a22cb46514610343578063b3c90e1114610356578063b88d4fde1461036957600080fd5b80638da5cb5b116100bd5780638da5cb5b1461030857806395d89b411461031b578063988ddb891461032357600080fd5b806367b2cf1d146102cb57806370a08231146102e25780637efca41f146102f557600080fd5b80631d2e22391161014557806342842e0e1161011f57806342842e0e1461029257806360b88995146102a55780636352211e146102b857600080fd5b80631d2e22391461024c5780631f706f141461026c57806323b872dd1461027f57600080fd5b806306fdde031161017657806306fdde03146101f9578063081812fc1461020e578063095ea7b31461023957600080fd5b80627fa4f01461019c57806301ffc9a7146101b157806304dc6379146101d9575b600080fd5b6101af6101aa366004611b33565b610411565b005b6101c46101bf366004611b73565b610466565b60405190151581526020015b60405180910390f35b6101ec6101e7366004611ba7565b610503565b6040516101d09190611bc2565b61020161056f565b6040516101d09190611c5e565b61022161021c366004611c71565b610601565b6040516001600160a01b0390911681526020016101d0565b6101af610247366004611c8a565b610628565b61025f61025a366004611ba7565b61075f565b6040516101d09190611cda565b6101af61027a366004611d3c565b610821565b6101af61028d366004611d68565b610978565b6101af6102a0366004611d68565b6109ff565b6101af6102b3366004611d3c565b610a1a565b6102216102c6366004611c71565b610ae7565b6102d4600d5481565b6040519081526020016101d0565b6102d46102f0366004611ba7565b610b4c565b6102d4610303366004611e30565b610be6565b600c54610221906001600160a01b031681565b610201610d4b565b610336610331366004611c71565b610d5a565b6040516101d09190611e9b565b6101af610351366004611eea565b610dc5565b600e54610221906001600160a01b031681565b6101af610377366004611f21565b610dd4565b6103b561038a366004611f9d565b6000918252600a602090815260408084206001600160a01b0393909316845291905290205460ff1690565b6040516101d09190611fc0565b6102016103d0366004611c71565b610e62565b6101c46103e3366004611fd3565b6001600160a01b03918216600090815260056020908152604080832093909416825291909152205460ff1690565b6104506040518060400160405280601381526020017f61646472657373206f662063616c6c65723a200000000000000000000000000081525033610f73565b60ff9091166000908152600b6020526040902055565b60006001600160e01b031982167f80ac58cd0000000000000000000000000000000000000000000000000000000014806104c957506001600160e01b031982167f5b5e139f00000000000000000000000000000000000000000000000000000000145b806104fd57507f01ffc9a7000000000000000000000000000000000000000000000000000000006001600160e01b03198316145b92915050565b6001600160a01b03811660009081526007602090815260409182902080548351818402810184019094528084526060939283018282801561056357602002820191906000526020600020905b81548152602001906001019080831161054f575b50505050509050919050565b60606000805461057e90611ffd565b80601f01602080910402602001604051908101604052809291908181526020018280546105aa90611ffd565b80156105f75780601f106105cc576101008083540402835291602001916105f7565b820191906000526020600020905b8154815290600101906020018083116105da57829003601f168201915b5050505050905090565b600061060c82610fe6565b506000908152600460205260409020546001600160a01b031690565b600061063382610ae7565b9050806001600160a01b0316836001600160a01b031614156106c25760405162461bcd60e51b815260206004820152602160248201527f4552433732313a20617070726f76616c20746f2063757272656e74206f776e6560448201527f720000000000000000000000000000000000000000000000000000000000000060648201526084015b60405180910390fd5b336001600160a01b03821614806106de57506106de81336103e3565b6107505760405162461bcd60e51b815260206004820152603e60248201527f4552433732313a20617070726f76652063616c6c6572206973206e6f7420746f60448201527f6b656e206f776e6572206e6f7220617070726f76656420666f7220616c6c000060648201526084016106b9565b61075a838361104d565b505050565b6001600160a01b0381166000908152600f60209081526040808320805482518185028101850190935280835260609492939192909184015b828210156108165783829060005260206000209060030201604051806060016040529081600082015481526020016001820160009054906101000a900460ff1660038111156107e8576107e8611ca6565b60038111156107f9576107f9611ca6565b815260200160028201548152505081526020019060010190610797565b505050509050919050565b6009546001600160a01b03166323b872dd3361083c85610ae7565b60ff85166000908152600b60205260409081902054905160e085901b6001600160e01b03191681526001600160a01b03938416600482015292909116602483015260448201526064016020604051808303816000875af11580156108a4573d6000803e3d6000fd5b505050506040513d601f19601f820116820180604052508101906108c89190612038565b50336000908152600f60209081526040918290208251606081019093528483529190810160ff8416600381111561090157610901611ca6565b600381111561091257610912611ca6565b81524260209182015282546001818101855560009485529382902083516003928302909101908155918301518285018054949593949193909260ff1990921691849081111561096357610963611ca6565b02179055506040820151816002015550505050565b61098233826110c8565b6109f45760405162461bcd60e51b815260206004820152602e60248201527f4552433732313a2063616c6c6572206973206e6f7420746f6b656e206f776e6560448201527f72206e6f7220617070726f76656400000000000000000000000000000000000060648201526084016106b9565b61075a838383611146565b61075a83838360405180602001604052806000815250610dd4565b60ff8116610a2757600080fd5b6000828152600a6020908152604080832033845290915281205460ff166003811115610a5557610a55611ca6565b14610a9657600082815260086020908152604082208054600181018255908352912001805473ffffffffffffffffffffffffffffffffffffffff1916331790555b8060ff166003811115610aab57610aab611ca6565b6000838152600a602090815260408083203384529091529020805460ff19166001836003811115610ade57610ade611ca6565b02179055505050565b6000818152600260205260408120546001600160a01b0316806104fd5760405162461bcd60e51b815260206004820152601860248201527f4552433732313a20696e76616c696420746f6b656e204944000000000000000060448201526064016106b9565b60006001600160a01b038216610bca5760405162461bcd60e51b815260206004820152602960248201527f4552433732313a2061646472657373207a65726f206973206e6f74206120766160448201527f6c6964206f776e6572000000000000000000000000000000000000000000000060648201526084016106b9565b506001600160a01b031660009081526003602052604090205490565b600e546000906001600160a01b03163314610c695760405162461bcd60e51b815260206004820152602960248201527f6f6e6c7920746865207265666f756e6420636f6e74726163742063616e206d6160448201527f6b65206120706f7374000000000000000000000000000000000000000000000060648201526084016106b9565b600d805460009182610c7a8361206b565b909155506001600160a01b03841660009081526007602090815260408220805460018101825590835290822001829055909150610cb686611320565b610cbf83611320565b86610cc942611320565b604051602001610cdc9493929190612086565b6040516020818303038152906040529050610cf78483611452565b610d01828261146c565b610d426040518060400160405280600f81526020017f6d696e74656420706f7374204e46540000000000000000000000000000000000815250838684611515565b50949350505050565b60606001805461057e90611ffd565b60008181526008602090815260409182902080548351818402810184019094528084526060939283018282801561056357602002820191906000526020600020905b81546001600160a01b03168152600190910190602001808311610d9c5750505050509050919050565b610dd033838361158c565b5050565b610dde33836110c8565b610e505760405162461bcd60e51b815260206004820152602e60248201527f4552433732313a2063616c6c6572206973206e6f7420746f6b656e206f776e6560448201527f72206e6f7220617070726f76656400000000000000000000000000000000000060648201526084016106b9565b610e5c8484848461165b565b50505050565b6060610e6d82610fe6565b60008281526006602052604081208054610e8690611ffd565b80601f0160208091040260200160405190810160405280929190818152602001828054610eb290611ffd565b8015610eff5780601f10610ed457610100808354040283529160200191610eff565b820191906000526020600020905b815481529060010190602001808311610ee257829003601f168201915b505050505090506000610f1d60408051602081019091526000815290565b9050805160001415610f30575092915050565b815115610f62578082604051602001610f4a9291906121af565b60405160208183030381529060405292505050919050565b610f6b846116d9565b949350505050565b610dd08282604051602401610f899291906121de565b60408051601f198184030181529190526020810180517bffffffffffffffffffffffffffffffffffffffffffffffffffffffff167f319af3330000000000000000000000000000000000000000000000000000000017905261174d565b6000818152600260205260409020546001600160a01b031661104a5760405162461bcd60e51b815260206004820152601860248201527f4552433732313a20696e76616c696420746f6b656e204944000000000000000060448201526064016106b9565b50565b6000818152600460205260409020805473ffffffffffffffffffffffffffffffffffffffff19166001600160a01b038416908117909155819061108f82610ae7565b6001600160a01b03167f8c5be1e5ebec7d5bd14f71427d1e84f3dd0314c0f7b2291e5b200ac8c7c3b92560405160405180910390a45050565b6000806110d483610ae7565b9050806001600160a01b0316846001600160a01b0316148061111b57506001600160a01b0380821660009081526005602090815260408083209388168352929052205460ff165b80610f6b5750836001600160a01b031661113484610601565b6001600160a01b031614949350505050565b826001600160a01b031661115982610ae7565b6001600160a01b0316146111d55760405162461bcd60e51b815260206004820152602560248201527f4552433732313a207472616e736665722066726f6d20696e636f72726563742060448201527f6f776e657200000000000000000000000000000000000000000000000000000060648201526084016106b9565b6001600160a01b0382166112505760405162461bcd60e51b8152602060048201526024808201527f4552433732313a207472616e7366657220746f20746865207a65726f2061646460448201527f726573730000000000000000000000000000000000000000000000000000000060648201526084016106b9565b61125b60008261104d565b6001600160a01b0383166000908152600360205260408120805460019290611284908490612209565b90915550506001600160a01b03821660009081526003602052604081208054600192906112b2908490612220565b9091555050600081815260026020526040808220805473ffffffffffffffffffffffffffffffffffffffff19166001600160a01b0386811691821790925591518493918716917fddf252ad1be2c89b69c2b068fc378daa952ba7f163c4a11628f55a4df523b3ef91a4505050565b60608161136057505060408051808201909152600181527f3000000000000000000000000000000000000000000000000000000000000000602082015290565b8160005b811561138a57806113748161206b565b91506113839050600a8361224e565b9150611364565b60008167ffffffffffffffff8111156113a5576113a5611da4565b6040519080825280601f01601f1916602001820160405280156113cf576020820181803683370190505b5090505b8415610f6b576113e4600183612209565b91506113f1600a86612262565b6113fc906030612220565b60f81b81838151811061141157611411612276565b60200101907effffffffffffffffffffffffffffffffffffffffffffffffffffffffffffff1916908160001a90535061144b600a8661224e565b94506113d3565b610dd082826040518060200160405280600081525061176e565b6000828152600260205260409020546001600160a01b03166114f65760405162461bcd60e51b815260206004820152602e60248201527f45524337323155524953746f726167653a2055524920736574206f66206e6f6e60448201527f6578697374656e7420746f6b656e00000000000000000000000000000000000060648201526084016106b9565b6000828152600660209081526040909120825161075a92840190611a84565b610e5c8484848460405160240161152f949392919061228c565b60408051601f198184030181529190526020810180517bffffffffffffffffffffffffffffffffffffffffffffffffffffffff167f9ffb2f930000000000000000000000000000000000000000000000000000000017905261174d565b816001600160a01b0316836001600160a01b031614156115ee5760405162461bcd60e51b815260206004820152601960248201527f4552433732313a20617070726f766520746f2063616c6c65720000000000000060448201526064016106b9565b6001600160a01b03838116600081815260056020908152604080832094871680845294825291829020805460ff191686151590811790915591519182527f17307eab39ab6107e8899845ad3d59bd9653f200f220920489ca2b5937696c31910160405180910390a3505050565b611666848484611146565b611672848484846117ec565b610e5c5760405162461bcd60e51b815260206004820152603260248201527f4552433732313a207472616e7366657220746f206e6f6e20455243373231526560448201527131b2b4bb32b91034b6b83632b6b2b73a32b960711b60648201526084016106b9565b60606116e482610fe6565b60006116fb60408051602081019091526000815290565b9050600081511161171b5760405180602001604052806000815250611746565b8061172584611320565b6040516020016117369291906121af565b6040516020818303038152906040525b9392505050565b80516a636f6e736f6c652e6c6f67602083016000808483855afa5050505050565b6117788383611935565b61178560008484846117ec565b61075a5760405162461bcd60e51b815260206004820152603260248201527f4552433732313a207472616e7366657220746f206e6f6e20455243373231526560448201527131b2b4bb32b91034b6b83632b6b2b73a32b960711b60648201526084016106b9565b60006001600160a01b0384163b1561192a57604051630a85bd0160e11b81526001600160a01b0385169063150b7a02906118309033908990889088906004016122d1565b6020604051808303816000875af192505050801561186b575060408051601f3d908101601f191682019092526118689181019061230d565b60015b611910573d808015611899576040519150601f19603f3d011682016040523d82523d6000602084013e61189e565b606091505b5080516119085760405162461bcd60e51b815260206004820152603260248201527f4552433732313a207472616e7366657220746f206e6f6e20455243373231526560448201527131b2b4bb32b91034b6b83632b6b2b73a32b960711b60648201526084016106b9565b805181602001fd5b6001600160e01b031916630a85bd0160e11b149050610f6b565b506001949350505050565b6001600160a01b03821661198b5760405162461bcd60e51b815260206004820181905260248201527f4552433732313a206d696e7420746f20746865207a65726f206164647265737360448201526064016106b9565b6000818152600260205260409020546001600160a01b0316156119f05760405162461bcd60e51b815260206004820152601c60248201527f4552433732313a20746f6b656e20616c7265616479206d696e7465640000000060448201526064016106b9565b6001600160a01b0382166000908152600360205260408120805460019290611a19908490612220565b9091555050600081815260026020526040808220805473ffffffffffffffffffffffffffffffffffffffff19166001600160a01b03861690811790915590518392907fddf252ad1be2c89b69c2b068fc378daa952ba7f163c4a11628f55a4df523b3ef908290a45050565b828054611a9090611ffd565b90600052602060002090601f016020900481019282611ab25760008555611af8565b82601f10611acb57805160ff1916838001178555611af8565b82800160010185558215611af8579182015b82811115611af8578251825591602001919060010190611add565b50611b04929150611b08565b5090565b5b80821115611b045760008155600101611b09565b803560ff81168114611b2e57600080fd5b919050565b60008060408385031215611b4657600080fd5b611b4f83611b1d565b946020939093013593505050565b6001600160e01b03198116811461104a57600080fd5b600060208284031215611b8557600080fd5b813561174681611b5d565b80356001600160a01b0381168114611b2e57600080fd5b600060208284031215611bb957600080fd5b61174682611b90565b6020808252825182820181905260009190848201906040850190845b81811015611bfa57835183529284019291840191600101611bde565b50909695505050505050565b60005b83811015611c21578181015183820152602001611c09565b83811115610e5c5750506000910152565b60008151808452611c4a816020860160208601611c06565b601f01601f19169290920160200192915050565b6020815260006117466020830184611c32565b600060208284031215611c8357600080fd5b5035919050565b60008060408385031215611c9d57600080fd5b611b4f83611b90565b634e487b7160e01b600052602160045260246000fd5b6004811061104a57634e487b7160e01b600052602160045260246000fd5b602080825282518282018190526000919060409081850190868401855b82811015611d2f5781518051855286810151611d1281611cbc565b858801528501518585015260609093019290850190600101611cf7565b5091979650505050505050565b60008060408385031215611d4f57600080fd5b82359150611d5f60208401611b1d565b90509250929050565b600080600060608486031215611d7d57600080fd5b611d8684611b90565b9250611d9460208501611b90565b9150604084013590509250925092565b634e487b7160e01b600052604160045260246000fd5b600067ffffffffffffffff80841115611dd557611dd5611da4565b604051601f8501601f19908116603f01168101908282118183101715611dfd57611dfd611da4565b81604052809350858152868686011115611e1657600080fd5b858560208301376000602087830101525050509392505050565b600080600060608486031215611e4557600080fd5b83359250602084013567ffffffffffffffff811115611e6357600080fd5b8401601f81018613611e7457600080fd5b611e8386823560208401611dba565b925050611e9260408501611b90565b90509250925092565b6020808252825182820181905260009190848201906040850190845b81811015611bfa5783516001600160a01b031683529284019291840191600101611eb7565b801515811461104a57600080fd5b60008060408385031215611efd57600080fd5b611f0683611b90565b91506020830135611f1681611edc565b809150509250929050565b60008060008060808587031215611f3757600080fd5b611f4085611b90565b9350611f4e60208601611b90565b925060408501359150606085013567ffffffffffffffff811115611f7157600080fd5b8501601f81018713611f8257600080fd5b611f9187823560208401611dba565b91505092959194509250565b60008060408385031215611fb057600080fd5b82359150611d5f60208401611b90565b60208101611fcd83611cbc565b91905290565b60008060408385031215611fe657600080fd5b611fef83611b90565b9150611d5f60208401611b90565b600181811c9082168061201157607f821691505b6020821081141561203257634e487b7160e01b600052602260045260246000fd5b50919050565b60006020828403121561204a57600080fd5b815161174681611edc565b634e487b7160e01b600052601160045260246000fd5b600060001982141561207f5761207f612055565b5060010190565b7f7b2270726f66696c654964223a200000000000000000000000000000000000008152600085516120be81600e850160208a01611c06565b7f2c2022706f73744964223a200000000000000000000000000000000000000000600e9184019182015285516120fb81601a840160208a01611c06565b7f2c2022706f737444617461223a20000000000000000000000000000000000000601a92909101918201528451612139816028840160208901611c06565b7f2c2022637265617465644174223a200000000000000000000000000000000000602892909101918201528351612177816037840160208801611c06565b7f7d00000000000000000000000000000000000000000000000000000000000000603792909101918201526038019695505050505050565b600083516121c1818460208801611c06565b8351908301906121d5818360208801611c06565b01949350505050565b6040815260006121f16040830185611c32565b90506001600160a01b03831660208301529392505050565b60008282101561221b5761221b612055565b500390565b6000821982111561223357612233612055565b500190565b634e487b7160e01b600052601260045260246000fd5b60008261225d5761225d612238565b500490565b60008261227157612271612238565b500690565b634e487b7160e01b600052603260045260246000fd5b60808152600061229f6080830187611c32565b8560208401526001600160a01b038516604084015282810360608401526122c68185611c32565b979650505050505050565b60006001600160a01b038087168352808616602084015250836040830152608060608301526123036080830184611c32565b9695505050505050565b60006020828403121561231f57600080fd5b815161174681611b5d56fea26469706673582212208133e5f6a143307c36828ed2507b8c6914076f45327d8607773435e271f207b764736f6c634300080a0033",
  "linkReferences": {},
  "deployedLinkReferences": {}
}