{
  "_format": "hh-sol-artifact-1",
  "contractName": "RefoundUSD",
  "sourceName": "contracts/RefoundUSD.sol",
  "abi": [
    {
      "inputs": [
        {
          "internalType": "address",
          "name": "_token",
          "type": "address"
        }
      ],
      "stateMutability": "nonpayable",
      "type": "constructor"
    },
    {
      "anonymous": false,
      "inputs": [
        {
          "indexed": true,
          "internalType": "address",
          "name": "owner",
          "type": "address"
        },
        {
          "indexed": true,
          "internalType": "address",
          "name": "spender",
          "type": "address"
        },
        {
          "indexed": false,
          "internalType": "uint256",
          "name": "value",
          "type": "uint256"
        }
      ],
      "name": "Approval",
      "type": "event"
    },
    {
      "anonymous": false,
      "inputs": [
        {
          "indexed": true,
          "internalType": "address",
          "name": "from",
          "type": "address"
        },
        {
          "indexed": true,
          "internalType": "address",
          "name": "to",
          "type": "address"
        },
        {
          "indexed": false,
          "internalType": "uint256",
          "name": "value",
          "type": "uint256"
        }
      ],
      "name": "Transfer",
      "type": "event"
    },
    {
      "inputs": [
        {
          "internalType": "address",
          "name": "owner",
          "type": "address"
        },
        {
          "internalType": "address",
          "name": "spender",
          "type": "address"
        }
      ],
      "name": "allowance",
      "outputs": [
        {
          "internalType": "uint256",
          "name": "",
          "type": "uint256"
        }
      ],
      "stateMutability": "view",
      "type": "function"
    },
    {
      "inputs": [
        {
          "internalType": "address",
          "name": "spender",
          "type": "address"
        },
        {
          "internalType": "uint256",
          "name": "amount",
          "type": "uint256"
        }
      ],
      "name": "approve",
      "outputs": [
        {
          "internalType": "bool",
          "name": "",
          "type": "bool"
        }
      ],
      "stateMutability": "nonpayable",
      "type": "function"
    },
    {
      "inputs": [
        {
          "internalType": "address",
          "name": "account",
          "type": "address"
        }
      ],
      "name": "balanceOf",
      "outputs": [
        {
          "internalType": "uint256",
          "name": "",
          "type": "uint256"
        }
      ],
      "stateMutability": "view",
      "type": "function"
    },
    {
      "inputs": [
        {
          "internalType": "address",
          "name": "user",
          "type": "address"
        }
      ],
      "name": "beneficiaryClaimFunds",
      "outputs": [],
      "stateMutability": "nonpayable",
      "type": "function"
    },
    {
      "inputs": [],
      "name": "cancelChannel",
      "outputs": [],
      "stateMutability": "nonpayable",
      "type": "function"
    },
    {
      "inputs": [],
      "name": "cancelClaim",
      "outputs": [],
      "stateMutability": "nonpayable",
      "type": "function"
    },
    {
      "inputs": [],
      "name": "decimals",
      "outputs": [
        {
          "internalType": "uint8",
          "name": "",
          "type": "uint8"
        }
      ],
      "stateMutability": "view",
      "type": "function"
    },
    {
      "inputs": [
        {
          "internalType": "address",
          "name": "spender",
          "type": "address"
        },
        {
          "internalType": "uint256",
          "name": "subtractedValue",
          "type": "uint256"
        }
      ],
      "name": "decreaseAllowance",
      "outputs": [
        {
          "internalType": "bool",
          "name": "",
          "type": "bool"
        }
      ],
      "stateMutability": "nonpayable",
      "type": "function"
    },
    {
      "inputs": [
        {
          "internalType": "uint256",
          "name": "amount",
          "type": "uint256"
        }
      ],
      "name": "deposit",
      "outputs": [],
      "stateMutability": "nonpayable",
      "type": "function"
    },
    {
      "inputs": [
        {
          "internalType": "address",
          "name": "spender",
          "type": "address"
        },
        {
          "internalType": "uint256",
          "name": "addedValue",
          "type": "uint256"
        }
      ],
      "name": "increaseAllowance",
      "outputs": [
        {
          "internalType": "bool",
          "name": "",
          "type": "bool"
        }
      ],
      "stateMutability": "nonpayable",
      "type": "function"
    },
    {
      "inputs": [],
      "name": "name",
      "outputs": [
        {
          "internalType": "string",
          "name": "",
          "type": "string"
        }
      ],
      "stateMutability": "view",
      "type": "function"
    },
    {
      "inputs": [],
      "name": "openChannel",
      "outputs": [],
      "stateMutability": "nonpayable",
      "type": "function"
    },
    {
      "inputs": [],
      "name": "payeeChannel",
      "outputs": [],
      "stateMutability": "nonpayable",
      "type": "function"
    },
    {
      "inputs": [
        {
          "internalType": "address",
          "name": "_beneficiary",
          "type": "address"
        }
      ],
      "name": "setBeneficiary",
      "outputs": [],
      "stateMutability": "nonpayable",
      "type": "function"
    },
    {
      "inputs": [
        {
          "internalType": "address",
          "name": "user",
          "type": "address"
        }
      ],
      "name": "startBeneficiaryClaimFunds",
      "outputs": [],
      "stateMutability": "nonpayable",
      "type": "function"
    },
    {
      "inputs": [],
      "name": "startCancelChannel",
      "outputs": [],
      "stateMutability": "nonpayable",
      "type": "function"
    },
    {
      "inputs": [],
      "name": "symbol",
      "outputs": [
        {
          "internalType": "string",
          "name": "",
          "type": "string"
        }
      ],
      "stateMutability": "view",
      "type": "function"
    },
    {
      "inputs": [],
      "name": "totalSupply",
      "outputs": [
        {
          "internalType": "uint256",
          "name": "",
          "type": "uint256"
        }
      ],
      "stateMutability": "view",
      "type": "function"
    },
    {
      "inputs": [
        {
          "internalType": "address",
          "name": "to",
          "type": "address"
        },
        {
          "internalType": "uint256",
          "name": "amount",
          "type": "uint256"
        }
      ],
      "name": "transfer",
      "outputs": [
        {
          "internalType": "bool",
          "name": "",
          "type": "bool"
        }
      ],
      "stateMutability": "nonpayable",
      "type": "function"
    },
    {
      "inputs": [
        {
          "internalType": "address",
          "name": "from",
          "type": "address"
        },
        {
          "internalType": "address",
          "name": "to",
          "type": "address"
        },
        {
          "internalType": "uint256",
          "name": "amount",
          "type": "uint256"
        }
      ],
      "name": "transferFrom",
      "outputs": [
        {
          "internalType": "bool",
          "name": "",
          "type": "bool"
        }
      ],
      "stateMutability": "nonpayable",
      "type": "function"
    },
    {
      "inputs": [
        {
          "internalType": "uint256",
          "name": "amount",
          "type": "uint256"
        }
      ],
      "name": "withdrawal",
      "outputs": [],
      "stateMutability": "nonpayable",
      "type": "function"
    }
  ],
  "bytecode": "0x608060405262093a80600a553480156200001857600080fd5b506040516200155b3803806200155b8339810160408190526200003b916200016f565b604080518082018252600a8152691499599bdd5b991554d160b21b602080830191825283518085019094526004845263149554d160e21b9084015281519192916200008991600391620000c9565b5080516200009f906004906020840190620000c9565b5050600680546001600160a01b0319166001600160a01b03939093169290921790915550620001de565b828054620000d790620001a1565b90600052602060002090601f016020900481019282620000fb576000855562000146565b82601f106200011657805160ff191683800117855562000146565b8280016001018555821562000146579182015b828111156200014657825182559160200191906001019062000129565b506200015492915062000158565b5090565b5b8082111562000154576000815560010162000159565b6000602082840312156200018257600080fd5b81516001600160a01b03811681146200019a57600080fd5b9392505050565b600181811c90821680620001b657607f821691505b60208210811415620001d857634e487b7160e01b600052602260045260246000fd5b50919050565b61136d80620001ee6000396000f3fe608060405234801561001057600080fd5b50600436106101775760003560e01c806344e122dc116100d857806395d89b411161008c578063b6b55f2511610066578063b6b55f2514610307578063dd62ed3e1461031a578063eb25386a1461022457600080fd5b806395d89b41146102d9578063a457c2d7146102e1578063a9059cbb146102f457600080fd5b8063835fc6ca116100bd578063835fc6ca146102b357806389be87a11461022457806392301572146102c657600080fd5b806344e122dc1461022457806370a082311461028a57600080fd5b80632bd7cc0f1161012f57806337f53a821161011457806337f53a8214610264578063395093511461027757806343a6c6f61461022457600080fd5b80632bd7cc0f14610239578063313ce5671461025557600080fd5b806318160ddd1161016057806318160ddd146101bd5780631c31f710146101cf57806323b872dd1461022657600080fd5b806306fdde031461017c578063095ea7b31461019a575b600080fd5b610184610353565b6040516101919190611150565b60405180910390f35b6101ad6101a83660046111c1565b6103e5565b6040519015158152602001610191565b6002545b604051908152602001610191565b6102246101dd3660046111eb565b33600090815260076020526040902080547fffffffffffffffffffffffff0000000000000000000000000000000000000000166001600160a01b0392909216919091179055565b005b6101ad61023436600461120d565b6103fd565b610224336000908152600860205260409020805460ff19169055565b60405160128152602001610191565b6102246102723660046111eb565b610421565b6101ad6102853660046111c1565b6106cd565b6101c16102983660046111eb565b6001600160a01b031660009081526020819052604090205490565b6102246102c1366004611249565b61070c565b6102246102d43660046111eb565b6107f0565b610184610927565b6101ad6102ef3660046111c1565b610936565b6101ad6103023660046111c1565b6109e0565b610224610315366004611249565b6109ee565b6101c1610328366004611262565b6001600160a01b03918216600090815260016020908152604080832093909416825291909152205490565b60606003805461036290611295565b80601f016020809104026020016040519081016040528092919081815260200182805461038e90611295565b80156103db5780601f106103b0576101008083540402835291602001916103db565b820191906000526020600020905b8154815290600101906020018083116103be57829003601f168201915b5050505050905090565b6000336103f3818585610af1565b5060019392505050565b60003361040b858285610c49565b610416858585610cd5565b506001949350505050565b6001600160a01b038116600090815260086020526040902054819060ff16156104915760405162461bcd60e51b815260206004820152601d60248201527f74686973206163636f756e74206973206265696e6720636c61696d656400000060448201526064015b60405180910390fd5b6001600160a01b0382811660009081526007602052604090205416331461050d5760405162461bcd60e51b815260206004820152602a60248201527f74686973207573657220686173206e6f74206d61646520796f75206869732062604482015269656e656669636961727960b01b6064820152608401610488565b6001600160a01b03821660009081526008602052604090205460ff1615156001146105a05760405162461bcd60e51b815260206004820152603060248201527f796f75206e65656420746f2075736520737461727442656e656669636961727960448201527f436c61696d46756e6473206669727374000000000000000000000000000000006064820152608401610488565b6001600160a01b038216600090815260096020526040902054421161062d5760405162461bcd60e51b815260206004820152602860248201527f796f75206e65656420746f20776169742074696c6c204c6f636b506572696f6460448201527f206973206f7665720000000000000000000000000000000000000000000000006064820152608401610488565b6001600160a01b0382166000908152602081905260409020546106508382610eec565b60065460405163a9059cbb60e01b81526001600160a01b038581166004830152602482018490529091169063a9059cbb906044016020604051808303816000875af11580156106a3573d6000803e3d6000fd5b505050506040513d601f19601f820116820180604052508101906106c791906112d0565b50505050565b3360008181526001602090815260408083206001600160a01b03871684529091528120549091906103f39082908690610707908790611308565b610af1565b3360008181526008602052604090205460ff161561076c5760405162461bcd60e51b815260206004820152601d60248201527f74686973206163636f756e74206973206265696e6720636c61696d65640000006044820152606401610488565b6107763383610eec565b60065460405163a9059cbb60e01b8152336004820152602481018490526001600160a01b039091169063a9059cbb906044016020604051808303816000875af11580156107c7573d6000803e3d6000fd5b505050506040513d601f19601f820116820180604052508101906107eb91906112d0565b505050565b6001600160a01b038116600090815260086020526040902054819060ff161561085b5760405162461bcd60e51b815260206004820152601d60248201527f74686973206163636f756e74206973206265696e6720636c61696d65640000006044820152606401610488565b6001600160a01b038281166000908152600760205260409020541633146108d75760405162461bcd60e51b815260206004820152602a60248201527f74686973207573657220686173206e6f74206d61646520796f75206869732062604482015269656e656669636961727960b01b6064820152608401610488565b6001600160a01b0382166000908152600860205260409020805460ff19166001179055600a546109079042611308565b6001600160a01b0390921660009081526009602052604090209190915550565b60606004805461036290611295565b3360008181526001602090815260408083206001600160a01b0387168452909152812054909190838110156109d35760405162461bcd60e51b815260206004820152602560248201527f45524332303a2064656372656173656420616c6c6f77616e63652062656c6f7760448201527f207a65726f0000000000000000000000000000000000000000000000000000006064820152608401610488565b6104168286868403610af1565b6000336103f3818585610cd5565b3360008181526008602052604090205460ff1615610a4e5760405162461bcd60e51b815260206004820152601d60248201527f74686973206163636f756e74206973206265696e6720636c61696d65640000006044820152606401610488565b6006546040517f23b872dd000000000000000000000000000000000000000000000000000000008152336004820152306024820152604481018490526001600160a01b03909116906323b872dd906064016020604051808303816000875af1158015610abe573d6000803e3d6000fd5b505050506040513d601f19601f82011682018060405250810190610ae291906112d0565b50610aed3383611071565b5050565b6001600160a01b038316610b6c5760405162461bcd60e51b8152602060048201526024808201527f45524332303a20617070726f76652066726f6d20746865207a65726f2061646460448201527f72657373000000000000000000000000000000000000000000000000000000006064820152608401610488565b6001600160a01b038216610be85760405162461bcd60e51b815260206004820152602260248201527f45524332303a20617070726f766520746f20746865207a65726f20616464726560448201527f73730000000000000000000000000000000000000000000000000000000000006064820152608401610488565b6001600160a01b0383811660008181526001602090815260408083209487168084529482529182902085905590518481527f8c5be1e5ebec7d5bd14f71427d1e84f3dd0314c0f7b2291e5b200ac8c7c3b925910160405180910390a3505050565b6001600160a01b0383811660009081526001602090815260408083209386168352929052205460001981146106c75781811015610cc85760405162461bcd60e51b815260206004820152601d60248201527f45524332303a20696e73756666696369656e7420616c6c6f77616e63650000006044820152606401610488565b6106c78484848403610af1565b6001600160a01b038316610d515760405162461bcd60e51b815260206004820152602560248201527f45524332303a207472616e736665722066726f6d20746865207a65726f20616460448201527f64726573730000000000000000000000000000000000000000000000000000006064820152608401610488565b6001600160a01b038216610dcd5760405162461bcd60e51b815260206004820152602360248201527f45524332303a207472616e7366657220746f20746865207a65726f206164647260448201527f65737300000000000000000000000000000000000000000000000000000000006064820152608401610488565b6001600160a01b03831660009081526020819052604090205481811015610e5c5760405162461bcd60e51b815260206004820152602660248201527f45524332303a207472616e7366657220616d6f756e742065786365656473206260448201527f616c616e636500000000000000000000000000000000000000000000000000006064820152608401610488565b6001600160a01b03808516600090815260208190526040808220858503905591851681529081208054849290610e93908490611308565b92505081905550826001600160a01b0316846001600160a01b03167fddf252ad1be2c89b69c2b068fc378daa952ba7f163c4a11628f55a4df523b3ef84604051610edf91815260200190565b60405180910390a36106c7565b6001600160a01b038216610f685760405162461bcd60e51b815260206004820152602160248201527f45524332303a206275726e2066726f6d20746865207a65726f2061646472657360448201527f73000000000000000000000000000000000000000000000000000000000000006064820152608401610488565b6001600160a01b03821660009081526020819052604090205481811015610ff75760405162461bcd60e51b815260206004820152602260248201527f45524332303a206275726e20616d6f756e7420657863656564732062616c616e60448201527f63650000000000000000000000000000000000000000000000000000000000006064820152608401610488565b6001600160a01b0383166000908152602081905260408120838303905560028054849290611026908490611320565b90915550506040518281526000906001600160a01b038516907fddf252ad1be2c89b69c2b068fc378daa952ba7f163c4a11628f55a4df523b3ef9060200160405180910390a3505050565b6001600160a01b0382166110c75760405162461bcd60e51b815260206004820152601f60248201527f45524332303a206d696e7420746f20746865207a65726f2061646472657373006044820152606401610488565b80600260008282546110d99190611308565b90915550506001600160a01b03821660009081526020819052604081208054839290611106908490611308565b90915550506040518181526001600160a01b038316906000907fddf252ad1be2c89b69c2b068fc378daa952ba7f163c4a11628f55a4df523b3ef9060200160405180910390a35050565b600060208083528351808285015260005b8181101561117d57858101830151858201604001528201611161565b8181111561118f576000604083870101525b50601f01601f1916929092016040019392505050565b80356001600160a01b03811681146111bc57600080fd5b919050565b600080604083850312156111d457600080fd5b6111dd836111a5565b946020939093013593505050565b6000602082840312156111fd57600080fd5b611206826111a5565b9392505050565b60008060006060848603121561122257600080fd5b61122b846111a5565b9250611239602085016111a5565b9150604084013590509250925092565b60006020828403121561125b57600080fd5b5035919050565b6000806040838503121561127557600080fd5b61127e836111a5565b915061128c602084016111a5565b90509250929050565b600181811c908216806112a957607f821691505b602082108114156112ca57634e487b7160e01b600052602260045260246000fd5b50919050565b6000602082840312156112e257600080fd5b8151801515811461120657600080fd5b634e487b7160e01b600052601160045260246000fd5b6000821982111561131b5761131b6112f2565b500190565b600082821015611332576113326112f2565b50039056fea26469706673582212207c2031186e78b7fcd6148898a38bf18afa757f7934fe399d8a7676d4fd820a7064736f6c634300080a0033",
  "linkReferences": {},
  "deployedLinkReferences": {}
}