{
  "_format": "hh-sol-artifact-1",
  "contractName": "RefoundUSD",
  "sourceName": "contracts/RefoundUSD.sol",
  "abi": [
    {
      "inputs": [
        {
          "internalType": "address",
          "name": "_token",
          "type": "address"
        }
      ],
      "stateMutability": "nonpayable",
      "type": "constructor"
    },
    {
      "anonymous": false,
      "inputs": [
        {
          "indexed": true,
          "internalType": "address",
          "name": "owner",
          "type": "address"
        },
        {
          "indexed": true,
          "internalType": "address",
          "name": "spender",
          "type": "address"
        },
        {
          "indexed": false,
          "internalType": "uint256",
          "name": "value",
          "type": "uint256"
        }
      ],
      "name": "Approval",
      "type": "event"
    },
    {
      "anonymous": false,
      "inputs": [
        {
          "indexed": true,
          "internalType": "address",
          "name": "primary",
          "type": "address"
        },
        {
          "indexed": true,
          "internalType": "address",
          "name": "beneficiary",
          "type": "address"
        }
      ],
      "name": "BeneficiaryAdded",
      "type": "event"
    },
    {
      "anonymous": false,
      "inputs": [
        {
          "indexed": true,
          "internalType": "address",
          "name": "primary",
          "type": "address"
        },
        {
          "indexed": true,
          "internalType": "address",
          "name": "beneficiary",
          "type": "address"
        }
      ],
      "name": "BeneficiaryClaimCancelled",
      "type": "event"
    },
    {
      "anonymous": false,
      "inputs": [
        {
          "indexed": true,
          "internalType": "address",
          "name": "primary",
          "type": "address"
        },
        {
          "indexed": true,
          "internalType": "address",
          "name": "beneficiary",
          "type": "address"
        },
        {
          "indexed": false,
          "internalType": "uint256",
          "name": "releaseDate",
          "type": "uint256"
        }
      ],
      "name": "BeneficiaryClaimStart",
      "type": "event"
    },
    {
      "anonymous": false,
      "inputs": [
        {
          "indexed": true,
          "internalType": "address",
          "name": "primary",
          "type": "address"
        },
        {
          "indexed": true,
          "internalType": "address",
          "name": "beneficiary",
          "type": "address"
        }
      ],
      "name": "BeneficiaryRemoved",
      "type": "event"
    },
    {
      "anonymous": false,
      "inputs": [
        {
          "indexed": true,
          "internalType": "address",
          "name": "primary",
          "type": "address"
        },
        {
          "indexed": true,
          "internalType": "address",
          "name": "beneficiary",
          "type": "address"
        },
        {
          "indexed": false,
          "internalType": "uint256",
          "name": "amount",
          "type": "uint256"
        }
      ],
      "name": "BeneficiaryWithdraw",
      "type": "event"
    },
    {
      "anonymous": false,
      "inputs": [
        {
          "indexed": true,
          "internalType": "address",
          "name": "from",
          "type": "address"
        },
        {
          "indexed": false,
          "internalType": "uint256",
          "name": "amount",
          "type": "uint256"
        }
      ],
      "name": "Deposit",
      "type": "event"
    },
    {
      "anonymous": false,
      "inputs": [
        {
          "indexed": false,
          "internalType": "address",
          "name": "receiver",
          "type": "address"
        },
        {
          "indexed": false,
          "internalType": "address",
          "name": "subscriber",
          "type": "address"
        },
        {
          "indexed": false,
          "internalType": "uint256",
          "name": "amount",
          "type": "uint256"
        }
      ],
      "name": "NewSubscriber",
      "type": "event"
    },
    {
      "anonymous": false,
      "inputs": [
        {
          "indexed": false,
          "internalType": "address",
          "name": "receiverOwner",
          "type": "address"
        }
      ],
      "name": "NewSubscriptionReceiver",
      "type": "event"
    },
    {
      "anonymous": false,
      "inputs": [
        {
          "indexed": true,
          "internalType": "address",
          "name": "previousOwner",
          "type": "address"
        },
        {
          "indexed": true,
          "internalType": "address",
          "name": "newOwner",
          "type": "address"
        }
      ],
      "name": "OwnershipTransferred",
      "type": "event"
    },
    {
      "anonymous": false,
      "inputs": [
        {
          "indexed": false,
          "internalType": "address",
          "name": "receiver",
          "type": "address"
        },
        {
          "indexed": false,
          "internalType": "address",
          "name": "subscriber",
          "type": "address"
        }
      ],
      "name": "SubscriberUnsubscribed",
      "type": "event"
    },
    {
      "anonymous": false,
      "inputs": [
        {
          "indexed": false,
          "internalType": "uint256",
          "name": "startTime",
          "type": "uint256"
        }
      ],
      "name": "SubscriptionPeriodIncremented",
      "type": "event"
    },
    {
      "anonymous": false,
      "inputs": [
        {
          "indexed": true,
          "internalType": "address",
          "name": "from",
          "type": "address"
        },
        {
          "indexed": true,
          "internalType": "address",
          "name": "to",
          "type": "address"
        },
        {
          "indexed": false,
          "internalType": "uint256",
          "name": "value",
          "type": "uint256"
        }
      ],
      "name": "Transfer",
      "type": "event"
    },
    {
      "anonymous": false,
      "inputs": [
        {
          "indexed": false,
          "internalType": "address",
          "name": "receiver",
          "type": "address"
        },
        {
          "indexed": false,
          "internalType": "address",
          "name": "subscriber",
          "type": "address"
        }
      ],
      "name": "UnsubscribedInsufficientFunds",
      "type": "event"
    },
    {
      "anonymous": false,
      "inputs": [
        {
          "indexed": true,
          "internalType": "address",
          "name": "to",
          "type": "address"
        },
        {
          "indexed": false,
          "internalType": "uint256",
          "name": "amount",
          "type": "uint256"
        }
      ],
      "name": "Withdraw",
      "type": "event"
    },
    {
      "inputs": [],
      "name": "SubscriptionsLocked",
      "outputs": [
        {
          "internalType": "bool",
          "name": "",
          "type": "bool"
        }
      ],
      "stateMutability": "view",
      "type": "function"
    },
    {
      "inputs": [
        {
          "internalType": "uint8",
          "name": "times",
          "type": "uint8"
        }
      ],
      "name": "_incrementSubscriptionPeriod",
      "outputs": [],
      "stateMutability": "nonpayable",
      "type": "function"
    },
    {
      "inputs": [],
      "name": "accountLockPeriod",
      "outputs": [
        {
          "internalType": "uint256",
          "name": "",
          "type": "uint256"
        }
      ],
      "stateMutability": "view",
      "type": "function"
    },
    {
      "inputs": [
        {
          "internalType": "address",
          "name": "receiver",
          "type": "address"
        }
      ],
      "name": "addSubsciptionReceiver",
      "outputs": [],
      "stateMutability": "nonpayable",
      "type": "function"
    },
    {
      "inputs": [
        {
          "internalType": "address",
          "name": "owner",
          "type": "address"
        },
        {
          "internalType": "address",
          "name": "spender",
          "type": "address"
        }
      ],
      "name": "allowance",
      "outputs": [
        {
          "internalType": "uint256",
          "name": "",
          "type": "uint256"
        }
      ],
      "stateMutability": "view",
      "type": "function"
    },
    {
      "inputs": [
        {
          "internalType": "address",
          "name": "spender",
          "type": "address"
        },
        {
          "internalType": "uint256",
          "name": "amount",
          "type": "uint256"
        }
      ],
      "name": "approve",
      "outputs": [
        {
          "internalType": "bool",
          "name": "",
          "type": "bool"
        }
      ],
      "stateMutability": "nonpayable",
      "type": "function"
    },
    {
      "inputs": [
        {
          "internalType": "address",
          "name": "account",
          "type": "address"
        }
      ],
      "name": "balanceOf",
      "outputs": [
        {
          "internalType": "uint256",
          "name": "",
          "type": "uint256"
        }
      ],
      "stateMutability": "view",
      "type": "function"
    },
    {
      "inputs": [
        {
          "internalType": "address",
          "name": "",
          "type": "address"
        }
      ],
      "name": "beneficiary",
      "outputs": [
        {
          "internalType": "address",
          "name": "",
          "type": "address"
        }
      ],
      "stateMutability": "view",
      "type": "function"
    },
    {
      "inputs": [
        {
          "internalType": "address",
          "name": "user",
          "type": "address"
        }
      ],
      "name": "beneficiaryClaimFunds",
      "outputs": [],
      "stateMutability": "nonpayable",
      "type": "function"
    },
    {
      "inputs": [
        {
          "internalType": "address",
          "name": "",
          "type": "address"
        }
      ],
      "name": "beneficiaryClaimTimestamp",
      "outputs": [
        {
          "internalType": "uint256",
          "name": "",
          "type": "uint256"
        }
      ],
      "stateMutability": "view",
      "type": "function"
    },
    {
      "inputs": [],
      "name": "cancelClaim",
      "outputs": [],
      "stateMutability": "nonpayable",
      "type": "function"
    },
    {
      "inputs": [],
      "name": "decimals",
      "outputs": [
        {
          "internalType": "uint8",
          "name": "",
          "type": "uint8"
        }
      ],
      "stateMutability": "view",
      "type": "function"
    },
    {
      "inputs": [
        {
          "internalType": "address",
          "name": "spender",
          "type": "address"
        },
        {
          "internalType": "uint256",
          "name": "subtractedValue",
          "type": "uint256"
        }
      ],
      "name": "decreaseAllowance",
      "outputs": [
        {
          "internalType": "bool",
          "name": "",
          "type": "bool"
        }
      ],
      "stateMutability": "nonpayable",
      "type": "function"
    },
    {
      "inputs": [
        {
          "internalType": "uint256",
          "name": "amount",
          "type": "uint256"
        }
      ],
      "name": "deposit",
      "outputs": [],
      "stateMutability": "nonpayable",
      "type": "function"
    },
    {
      "inputs": [
        {
          "internalType": "address",
          "name": "",
          "type": "address"
        }
      ],
      "name": "fundsBeingClaimed",
      "outputs": [
        {
          "internalType": "bool",
          "name": "",
          "type": "bool"
        }
      ],
      "stateMutability": "view",
      "type": "function"
    },
    {
      "inputs": [
        {
          "internalType": "address",
          "name": "spender",
          "type": "address"
        },
        {
          "internalType": "uint256",
          "name": "addedValue",
          "type": "uint256"
        }
      ],
      "name": "increaseAllowance",
      "outputs": [
        {
          "internalType": "bool",
          "name": "",
          "type": "bool"
        }
      ],
      "stateMutability": "nonpayable",
      "type": "function"
    },
    {
      "inputs": [],
      "name": "incrementSubscriptionPeriod",
      "outputs": [],
      "stateMutability": "nonpayable",
      "type": "function"
    },
    {
      "inputs": [],
      "name": "lockForSubsciptionPayments",
      "outputs": [],
      "stateMutability": "nonpayable",
      "type": "function"
    },
    {
      "inputs": [],
      "name": "name",
      "outputs": [
        {
          "internalType": "string",
          "name": "",
          "type": "string"
        }
      ],
      "stateMutability": "view",
      "type": "function"
    },
    {
      "inputs": [],
      "name": "owner",
      "outputs": [
        {
          "internalType": "address",
          "name": "",
          "type": "address"
        }
      ],
      "stateMutability": "view",
      "type": "function"
    },
    {
      "inputs": [],
      "name": "removeBeneficiary",
      "outputs": [],
      "stateMutability": "nonpayable",
      "type": "function"
    },
    {
      "inputs": [],
      "name": "renounceOwnership",
      "outputs": [],
      "stateMutability": "nonpayable",
      "type": "function"
    },
    {
      "inputs": [
        {
          "internalType": "address",
          "name": "_beneficiary",
          "type": "address"
        }
      ],
      "name": "setBeneficiary",
      "outputs": [],
      "stateMutability": "nonpayable",
      "type": "function"
    },
    {
      "inputs": [
        {
          "internalType": "address",
          "name": "user",
          "type": "address"
        }
      ],
      "name": "startBeneficiaryClaimFunds",
      "outputs": [],
      "stateMutability": "nonpayable",
      "type": "function"
    },
    {
      "inputs": [
        {
          "internalType": "address",
          "name": "receiver",
          "type": "address"
        }
      ],
      "name": "subscribe",
      "outputs": [],
      "stateMutability": "nonpayable",
      "type": "function"
    },
    {
      "inputs": [],
      "name": "subscriptionAmount",
      "outputs": [
        {
          "internalType": "uint256",
          "name": "",
          "type": "uint256"
        }
      ],
      "stateMutability": "view",
      "type": "function"
    },
    {
      "inputs": [],
      "name": "subscriptionPeriod",
      "outputs": [
        {
          "internalType": "uint256",
          "name": "",
          "type": "uint256"
        }
      ],
      "stateMutability": "view",
      "type": "function"
    },
    {
      "inputs": [
        {
          "internalType": "uint256",
          "name": "",
          "type": "uint256"
        }
      ],
      "name": "subscriptionReceivers",
      "outputs": [
        {
          "internalType": "address",
          "name": "",
          "type": "address"
        }
      ],
      "stateMutability": "view",
      "type": "function"
    },
    {
      "inputs": [
        {
          "internalType": "address",
          "name": "",
          "type": "address"
        }
      ],
      "name": "subscriptionReceiversMap",
      "outputs": [
        {
          "internalType": "bool",
          "name": "",
          "type": "bool"
        }
      ],
      "stateMutability": "view",
      "type": "function"
    },
    {
      "inputs": [],
      "name": "subscriptionStartTime",
      "outputs": [
        {
          "internalType": "uint256",
          "name": "",
          "type": "uint256"
        }
      ],
      "stateMutability": "view",
      "type": "function"
    },
    {
      "inputs": [
        {
          "internalType": "address",
          "name": "",
          "type": "address"
        },
        {
          "internalType": "uint256",
          "name": "",
          "type": "uint256"
        }
      ],
      "name": "subscriptions",
      "outputs": [
        {
          "internalType": "address",
          "name": "",
          "type": "address"
        }
      ],
      "stateMutability": "view",
      "type": "function"
    },
    {
      "inputs": [],
      "name": "symbol",
      "outputs": [
        {
          "internalType": "string",
          "name": "",
          "type": "string"
        }
      ],
      "stateMutability": "view",
      "type": "function"
    },
    {
      "inputs": [],
      "name": "totalSupply",
      "outputs": [
        {
          "internalType": "uint256",
          "name": "",
          "type": "uint256"
        }
      ],
      "stateMutability": "view",
      "type": "function"
    },
    {
      "inputs": [
        {
          "internalType": "address",
          "name": "to",
          "type": "address"
        },
        {
          "internalType": "uint256",
          "name": "amount",
          "type": "uint256"
        }
      ],
      "name": "transfer",
      "outputs": [
        {
          "internalType": "bool",
          "name": "",
          "type": "bool"
        }
      ],
      "stateMutability": "nonpayable",
      "type": "function"
    },
    {
      "inputs": [
        {
          "internalType": "address",
          "name": "from",
          "type": "address"
        },
        {
          "internalType": "address",
          "name": "to",
          "type": "address"
        },
        {
          "internalType": "uint256",
          "name": "amount",
          "type": "uint256"
        }
      ],
      "name": "transferFrom",
      "outputs": [
        {
          "internalType": "bool",
          "name": "",
          "type": "bool"
        }
      ],
      "stateMutability": "nonpayable",
      "type": "function"
    },
    {
      "inputs": [
        {
          "internalType": "address",
          "name": "newOwner",
          "type": "address"
        }
      ],
      "name": "transferOwnership",
      "outputs": [],
      "stateMutability": "nonpayable",
      "type": "function"
    },
    {
      "inputs": [
        {
          "internalType": "address",
          "name": "receiver",
          "type": "address"
        },
        {
          "internalType": "uint64",
          "name": "index",
          "type": "uint64"
        }
      ],
      "name": "unSubscribe",
      "outputs": [],
      "stateMutability": "nonpayable",
      "type": "function"
    },
    {
      "inputs": [
        {
          "internalType": "uint256",
          "name": "amount",
          "type": "uint256"
        }
      ],
      "name": "withdrawal",
      "outputs": [],
      "stateMutability": "nonpayable",
      "type": "function"
    }
  ],
  "bytecode": "0x608060405262093a80600a5562278d00600b55674563918244f40000600c553480156200002b57600080fd5b50604051620024b0380380620024b08339810160408190526200004e9162000209565b604080518082018252600a8152691499599bdd5b991554d160b21b602080830191825283518085019094526004845263149554d160e21b9084015281519192916200009c9160039162000163565b508051620000b290600490602084019062000163565b505050620000cf620000c96200010d60201b60201c565b62000111565b600680546001600160a01b0319166001600160a01b039290921691909117905542600d55600060118190556012556013805460ff1916905562000278565b3390565b600580546001600160a01b038381166001600160a01b0319831681179093556040519116919082907f8be0079c531659141344cd1fd0a4f28419497f9722a3daafe3b4186f6b6457e090600090a35050565b82805462000171906200023b565b90600052602060002090601f016020900481019282620001955760008555620001e0565b82601f10620001b057805160ff1916838001178555620001e0565b82800160010185558215620001e0579182015b82811115620001e0578251825591602001919060010190620001c3565b50620001ee929150620001f2565b5090565b5b80821115620001ee5760008155600101620001f3565b6000602082840312156200021c57600080fd5b81516001600160a01b03811681146200023457600080fd5b9392505050565b600181811c908216806200025057607f821691505b602082108114156200027257634e487b7160e01b600052602260045260246000fd5b50919050565b61222880620002886000396000f3fe608060405234801561001057600080fd5b50600436106102925760003560e01c806370a082311161016057806395d89b41116100d8578063b6b55f251161008c578063dd62ed3e11610071578063dd62ed3e14610556578063e7cb26bc1461058f578063f2fde38b1461059757600080fd5b8063b6b55f251461053a578063d9fe6b0a1461054d57600080fd5b8063a737baad116100bd578063a737baad146104e1578063a9059cbb14610504578063b4883a151461051757600080fd5b806395d89b41146104c6578063a457c2d7146104ce57600080fd5b8063835fc6ca1161012f5780638da5cb5b116101145780638da5cb5b1461049a5780638fc39184146104ab57806392301572146104b357600080fd5b8063835fc6ca1461047f5780638d23d97a1461049257600080fd5b806370a0823114610412578063715018a61461043b57806375caa37d14610443578063810085681461045657600080fd5b8063319ae8a61161020e5780634eb36752116101c257806354f8a8c2116101a757806354f8a8c2146103cb578063606959e0146103d4578063623da3d1146103ff57600080fd5b80634eb36752146103ab57806350b1938e146103be57600080fd5b806339509351116101f3578063395093511461037c57806341a7726a1461038f57806347f3308d146103a257600080fd5b8063319ae8a61461034957806337f53a821461036957600080fd5b80631c31f7101161026557806324dd06ad1161024a57806324dd06ad1461031f5780632bd7cc0f14610332578063313ce5671461033a57600080fd5b80631c31f710146102f757806323b872dd1461030c57600080fd5b806306fdde0314610297578063095ea7b3146102b55780630ca2822c146102d857806318160ddd146102ef575b600080fd5b61029f6105aa565b6040516102ac9190611f3d565b60405180910390f35b6102c86102c3366004611fae565b61063c565b60405190151581526020016102ac565b6102e1600b5481565b6040519081526020016102ac565b6002546102e1565b61030a610305366004611fd8565b610654565b005b6102c861031a366004611ffa565b6106ab565b61030a61032d366004611fd8565b6106cf565b61030a610834565b604051601281526020016102ac565b6102e1610357366004611fd8565b60096020526000908152604090205481565b61030a610377366004611fd8565b61088b565b6102c861038a366004611fae565b610b73565b61030a61039d366004611fd8565b610bb2565b6102e1600d5481565b61030a6103b9366004612036565b610d3c565b6013546102c89060ff1681565b6102e1600c5481565b6103e76103e236600461207a565b610edd565b6040516001600160a01b0390911681526020016102ac565b6103e761040d366004611fae565b610f07565b6102e1610420366004611fd8565b6001600160a01b031660009081526020819052604090205490565b61030a610f3f565b61030a610451366004612093565b610f53565b6103e7610464366004611fd8565b6007602052600090815260409020546001600160a01b031681565b61030a61048d36600461207a565b6111b0565b61030a6112ca565b6005546001600160a01b03166103e7565b61030a6112fc565b61030a6104c1366004611fd8565b611383565b61029f6114f4565b6102c86104dc366004611fae565b611503565b6102c86104ef366004611fd8565b600f6020526000908152604090205460ff1681565b6102c8610512366004611fae565b6115ad565b6102c8610525366004611fd8565b60086020526000908152604090205460ff1681565b61030a61054836600461207a565b6115bb565b6102e1600a5481565b6102e16105643660046120b6565b6001600160a01b03918216600090815260016020908152604080832093909416825291909152205490565b61030a6116ec565b61030a6105a5366004611fd8565b6117b3565b6060600380546105b9906120e9565b80601f01602080910402602001604051908101604052809291908181526020018280546105e5906120e9565b80156106325780601f1061060757610100808354040283529160200191610632565b820191906000526020600020905b81548152906001019060200180831161061557829003601f168201915b5050505050905090565b60003361064a818585611843565b5060019392505050565b3360008181526007602052604080822080546001600160a01b0319166001600160a01b03861690811790915590519092917fbb39c36a7502b7256e1a687254146a9a2ea7b146c77cb9e40eb0e2b8793781e191a350565b6000336106b9858285611993565b6106c4858585611a25565b506001949350505050565b336000908152600f602052604090205460ff161561075a5760405162461bcd60e51b815260206004820152602560248201527f537562736372697074696f6e20726563656976657220616c726561647920657860448201527f697374732e00000000000000000000000000000000000000000000000000000060648201526084015b60405180910390fd5b60135460ff16156107ad5760405162461bcd60e51b815260206004820152601760248201527f537562736372697074696f6e206973206c6f636b65642e0000000000000000006044820152606401610751565b600f6020908152600e80546001810182556000919091527fbb7b4a454dc3493923482f07822329ed19e8244eff582cc204f8554c3620c3fd0180546001600160a01b0319166001600160a01b0384161790556040513381527f63cdbc3201073d8bf2c89a76ca4ac02b0e366ff032b9028efa11f6bcbee2614b91015b60405180910390a150565b336000818152600860209081526040808320805460ff1916905560079091528082205490516001600160a01b0390911692917faff98b65da8b8fd7d539768ba2b00e8c92295eb538e5117fe7cce27faacbdfea91a3565b6001600160a01b038116600090815260086020526040902054819060ff16156108f65760405162461bcd60e51b815260206004820152601d60248201527f74686973206163636f756e74206973206265696e6720636c61696d65640000006044820152606401610751565b6001600160a01b038281166000908152600760205260409020541633146109725760405162461bcd60e51b815260206004820152602a60248201527f74686973207573657220686173206e6f74206d61646520796f75206869732062604482015269656e656669636961727960b01b6064820152608401610751565b6001600160a01b03821660009081526008602052604090205460ff161515600114610a055760405162461bcd60e51b815260206004820152603060248201527f796f75206e65656420746f2075736520737461727442656e656669636961727960448201527f436c61696d46756e6473206669727374000000000000000000000000000000006064820152608401610751565b6001600160a01b0382166000908152600960205260409020544211610a925760405162461bcd60e51b815260206004820152602860248201527f796f75206e65656420746f20776169742074696c6c204c6f636b506572696f6460448201527f206973206f7665720000000000000000000000000000000000000000000000006064820152608401610751565b6001600160a01b038216600090815260208190526040902054610ab58382611c3c565b60065460405163a9059cbb60e01b81526001600160a01b038581166004830152602482018490529091169063a9059cbb906044016020604051808303816000875af1158015610b08573d6000803e3d6000fd5b505050506040513d601f19601f82011682018060405250810190610b2c9190612124565b5060405181815233906001600160a01b038516907f9362aa1dc33277205cdbe4cf6fc2553ad2270f2c5f28ded794973021772d4437906020015b60405180910390a3505050565b3360008181526001602090815260408083206001600160a01b038716845290915281205490919061064a9082908690610bad90879061215c565b611843565b336000908152600f602052604090205460ff161515600114610c625760405162461bcd60e51b815260206004820152604b60248201527f746869732075736572206e6565647320746f2063616c6c20616464537562736360448201527f697074696f6e526563656976657220666f7220796f7520746f2073756273637260648201527f69626520746f207468656d000000000000000000000000000000000000000000608482015260a401610751565b60135460ff1615610cb55760405162461bcd60e51b815260206004820152601660248201527f537562736372697074696f6e206973206c6f636b6564000000000000000000006044820152606401610751565b610cc181600c546115ad565b506001600160a01b038116600081815260106020908152604080832080546001810182559084529282902090920180546001600160a01b03191633908117909155600c54835194855291840152908201527f667ab8de50e4145b801af75a49aa75fe65af8ab9cb4985c6bc452999b790d6af90606001610829565b60135460ff1615610d4c57600080fd5b6001600160a01b0382166000908152601060205260409020805433919067ffffffffffffffff8416908110610d8357610d83612174565b6000918252602090912001546001600160a01b031614610da257600080fd5b6001600160a01b03821660009081526010602052604081208054610dc89060019061218a565b81548110610dd857610dd8612174565b60009182526020808320909101546001600160a01b03868116845260109092526040909220805491909216925082919067ffffffffffffffff8516908110610e2257610e22612174565b600091825260208083209190910180546001600160a01b0319166001600160a01b039485161790559185168152601090915260409020805480610e6757610e676121a1565b600082815260209020810160001990810180546001600160a01b03191690550190556040517f8f5d7b8ff266cc9cfc9142ae269dad1b3ec859eee9a4743a3b08318f3413cbc190610ed090859033906001600160a01b0392831681529116602082015260400190565b60405180910390a1505050565b600e8181548110610eed57600080fd5b6000918252602090912001546001600160a01b0316905081565b60106020528160005260406000208181548110610f2357600080fd5b6000918252602090912001546001600160a01b03169150829050565b610f47611db9565b610f516000611e13565b565b610f5b611db9565b60135460ff16610f6a57600080fd5b601154601254600e548210610fc15760405162461bcd60e51b815260206004820152600960248201527f796f757220646f6e6500000000000000000000000000000000000000000000006044820152606401610751565b6000600e8381548110610fd657610fd6612174565b60009182526020822001546001600160a01b031691505b8460ff168160ff1610156111a2576001600160a01b0382166000908152601060205260409020548310611066576000925083611028816121b7565b600e549095508510905061103b576111a2565b600e848154811061104e5761104e612174565b6000918252602090912001546001600160a01b031691505b6001600160a01b038216600090815260106020526040812080548590811061109057611090612174565b6000918252602090912001546001600160a01b03169050806110bf57836110b6816121b7565b94505050611190565b600c546001600160a01b0382166000908152602081905260409020541015611174576001600160a01b038316600090815260106020526040812080548690811061110b5761110b612174565b60009182526020918290200180546001600160a01b0319166001600160a01b03938416179055604080518684168152928416918301919091527f91f1c31b2bd278bfd6f7baa0957c65767451ee1b970057e73d38262452bb3063910160405180910390a1611181565b6111818184600c54611a25565b8361118b816121b7565b945050505b8061119a816121d2565b915050610fed565b505060119190915560125550565b3360008181526008602052604090205460ff16156112105760405162461bcd60e51b815260206004820152601d60248201527f74686973206163636f756e74206973206265696e6720636c61696d65640000006044820152606401610751565b61121a3383611c3c565b60065460405163a9059cbb60e01b8152336004820152602481018490526001600160a01b039091169063a9059cbb906044016020604051808303816000875af115801561126b573d6000803e3d6000fd5b505050506040513d601f19601f8201168201806040525081019061128f9190612124565b5060405182815233907f884edad9ce6fa2440d8a54cc123490eb96d2768479d49ff9c7366125a9424364906020015b60405180910390a25050565b6112d2611db9565b600b54600d546112e2919061215c565b42116112ed57600080fd5b6013805460ff19166001179055565b611304611db9565b60135460ff1661131357600080fd5b600e546011541161132357600080fd5b600b54600d6000828254611337919061215c565b909155505060006011556013805460ff19169055600d546040519081527febbdec5a6b30945725bd5760d5e1ff6826f3cd5cf213732a733d9dea317e22619060200160405180910390a1565b6001600160a01b038116600090815260086020526040902054819060ff16156113ee5760405162461bcd60e51b815260206004820152601d60248201527f74686973206163636f756e74206973206265696e6720636c61696d65640000006044820152606401610751565b6001600160a01b0382811660009081526007602052604090205416331461146a5760405162461bcd60e51b815260206004820152602a60248201527f74686973207573657220686173206e6f74206d61646520796f75206869732062604482015269656e656669636961727960b01b6064820152608401610751565b6001600160a01b0382166000908152600860205260409020805460ff19166001179055600a5461149a904261215c565b6001600160a01b038316600081815260096020526040908190208390555133927fce0bfb715ff96eb4d3fb06a6ef96171b96c7bff3aee50eacfbd4db1313c2cb90916114e891815260200190565b60405180910390a35050565b6060600480546105b9906120e9565b3360008181526001602090815260408083206001600160a01b0387168452909152812054909190838110156115a05760405162461bcd60e51b815260206004820152602560248201527f45524332303a2064656372656173656420616c6c6f77616e63652062656c6f7760448201527f207a65726f0000000000000000000000000000000000000000000000000000006064820152608401610751565b6106c48286868403611843565b60003361064a818585611a25565b3360008181526008602052604090205460ff161561161b5760405162461bcd60e51b815260206004820152601d60248201527f74686973206163636f756e74206973206265696e6720636c61696d65640000006044820152606401610751565b6006546040517f23b872dd000000000000000000000000000000000000000000000000000000008152336004820152306024820152604481018490526001600160a01b03909116906323b872dd906064016020604051808303816000875af115801561168b573d6000803e3d6000fd5b505050506040513d601f19601f820116820180604052508101906116af9190612124565b506116ba3383611e65565b60405182815233907fe1fffcc4923d04b559f4d29a8bfc6cda04eb5b0d3c460751c2402c5c5cc9109c906020016112be565b336000908152600760205260409020546001600160a01b03166117515760405162461bcd60e51b815260206004820152601560248201527f4e6f2062656e65666963696172792069732073657400000000000000000000006044820152606401610751565b336000818152600760205260408082205490516001600160a01b0390911692917f1a6590bd0cabbfcc7c86bef99e1034054e179905cfcc294598fcd426c092244291a333600090815260076020526040902080546001600160a01b0319169055565b6117bb611db9565b6001600160a01b0381166118375760405162461bcd60e51b815260206004820152602660248201527f4f776e61626c653a206e6577206f776e657220697320746865207a65726f206160448201527f64647265737300000000000000000000000000000000000000000000000000006064820152608401610751565b61184081611e13565b50565b6001600160a01b0383166118be5760405162461bcd60e51b8152602060048201526024808201527f45524332303a20617070726f76652066726f6d20746865207a65726f2061646460448201527f72657373000000000000000000000000000000000000000000000000000000006064820152608401610751565b6001600160a01b03821661193a5760405162461bcd60e51b815260206004820152602260248201527f45524332303a20617070726f766520746f20746865207a65726f20616464726560448201527f73730000000000000000000000000000000000000000000000000000000000006064820152608401610751565b6001600160a01b0383811660008181526001602090815260408083209487168084529482529182902085905590518481527f8c5be1e5ebec7d5bd14f71427d1e84f3dd0314c0f7b2291e5b200ac8c7c3b9259101610b66565b6001600160a01b038381166000908152600160209081526040808320938616835292905220546000198114611a1f5781811015611a125760405162461bcd60e51b815260206004820152601d60248201527f45524332303a20696e73756666696369656e7420616c6c6f77616e63650000006044820152606401610751565b611a1f8484848403611843565b50505050565b6001600160a01b038316611aa15760405162461bcd60e51b815260206004820152602560248201527f45524332303a207472616e736665722066726f6d20746865207a65726f20616460448201527f64726573730000000000000000000000000000000000000000000000000000006064820152608401610751565b6001600160a01b038216611b1d5760405162461bcd60e51b815260206004820152602360248201527f45524332303a207472616e7366657220746f20746865207a65726f206164647260448201527f65737300000000000000000000000000000000000000000000000000000000006064820152608401610751565b6001600160a01b03831660009081526020819052604090205481811015611bac5760405162461bcd60e51b815260206004820152602660248201527f45524332303a207472616e7366657220616d6f756e742065786365656473206260448201527f616c616e636500000000000000000000000000000000000000000000000000006064820152608401610751565b6001600160a01b03808516600090815260208190526040808220858503905591851681529081208054849290611be390849061215c565b92505081905550826001600160a01b0316846001600160a01b03167fddf252ad1be2c89b69c2b068fc378daa952ba7f163c4a11628f55a4df523b3ef84604051611c2f91815260200190565b60405180910390a3611a1f565b6001600160a01b038216611cb85760405162461bcd60e51b815260206004820152602160248201527f45524332303a206275726e2066726f6d20746865207a65726f2061646472657360448201527f73000000000000000000000000000000000000000000000000000000000000006064820152608401610751565b6001600160a01b03821660009081526020819052604090205481811015611d475760405162461bcd60e51b815260206004820152602260248201527f45524332303a206275726e20616d6f756e7420657863656564732062616c616e60448201527f63650000000000000000000000000000000000000000000000000000000000006064820152608401610751565b6001600160a01b0383166000908152602081905260408120838303905560028054849290611d7690849061218a565b90915550506040518281526000906001600160a01b038516907fddf252ad1be2c89b69c2b068fc378daa952ba7f163c4a11628f55a4df523b3ef90602001610b66565b6005546001600160a01b03163314610f515760405162461bcd60e51b815260206004820181905260248201527f4f776e61626c653a2063616c6c6572206973206e6f7420746865206f776e65726044820152606401610751565b600580546001600160a01b038381166001600160a01b0319831681179093556040519116919082907f8be0079c531659141344cd1fd0a4f28419497f9722a3daafe3b4186f6b6457e090600090a35050565b6001600160a01b038216611ebb5760405162461bcd60e51b815260206004820152601f60248201527f45524332303a206d696e7420746f20746865207a65726f2061646472657373006044820152606401610751565b8060026000828254611ecd919061215c565b90915550506001600160a01b03821660009081526020819052604081208054839290611efa90849061215c565b90915550506040518181526001600160a01b038316906000907fddf252ad1be2c89b69c2b068fc378daa952ba7f163c4a11628f55a4df523b3ef906020016114e8565b600060208083528351808285015260005b81811015611f6a57858101830151858201604001528201611f4e565b81811115611f7c576000604083870101525b50601f01601f1916929092016040019392505050565b80356001600160a01b0381168114611fa957600080fd5b919050565b60008060408385031215611fc157600080fd5b611fca83611f92565b946020939093013593505050565b600060208284031215611fea57600080fd5b611ff382611f92565b9392505050565b60008060006060848603121561200f57600080fd5b61201884611f92565b925061202660208501611f92565b9150604084013590509250925092565b6000806040838503121561204957600080fd5b61205283611f92565b9150602083013567ffffffffffffffff8116811461206f57600080fd5b809150509250929050565b60006020828403121561208c57600080fd5b5035919050565b6000602082840312156120a557600080fd5b813560ff81168114611ff357600080fd5b600080604083850312156120c957600080fd5b6120d283611f92565b91506120e060208401611f92565b90509250929050565b600181811c908216806120fd57607f821691505b6020821081141561211e57634e487b7160e01b600052602260045260246000fd5b50919050565b60006020828403121561213657600080fd5b81518015158114611ff357600080fd5b634e487b7160e01b600052601160045260246000fd5b6000821982111561216f5761216f612146565b500190565b634e487b7160e01b600052603260045260246000fd5b60008282101561219c5761219c612146565b500390565b634e487b7160e01b600052603160045260246000fd5b60006000198214156121cb576121cb612146565b5060010190565b600060ff821660ff8114156121e9576121e9612146565b6001019291505056fea264697066735822122013a71fc04f5f43c3d75712984c835dee40acafd595dc42a746642c5ca985241664736f6c634300080a0033",
  "linkReferences": {},
  "deployedLinkReferences": {}
}