{
  "_format": "hh-sol-artifact-1",
  "contractName": "FundingPool",
  "sourceName": "contracts/FundingPool.sol",
  "abi": [
    {
      "inputs": [
        {
          "internalType": "address",
          "name": "_token",
          "type": "address"
        },
        {
          "internalType": "uint256",
          "name": "_maxDuration",
          "type": "uint256"
        }
      ],
      "stateMutability": "nonpayable",
      "type": "constructor"
    },
    {
      "anonymous": false,
      "inputs": [
        {
          "indexed": true,
          "internalType": "address",
          "name": "caller",
          "type": "address"
        },
        {
          "indexed": true,
          "internalType": "uint256",
          "name": "poolId",
          "type": "uint256"
        }
      ],
      "name": "Cancel",
      "type": "event"
    },
    {
      "anonymous": false,
      "inputs": [
        {
          "indexed": true,
          "internalType": "address",
          "name": "caller",
          "type": "address"
        },
        {
          "indexed": false,
          "internalType": "uint256",
          "name": "poolId",
          "type": "uint256"
        },
        {
          "indexed": false,
          "internalType": "uint256",
          "name": "amount",
          "type": "uint256"
        }
      ],
      "name": "Claim",
      "type": "event"
    },
    {
      "anonymous": false,
      "inputs": [
        {
          "indexed": false,
          "internalType": "uint256",
          "name": "id",
          "type": "uint256"
        },
        {
          "indexed": true,
          "internalType": "address",
          "name": "creator",
          "type": "address"
        },
        {
          "indexed": false,
          "internalType": "uint256",
          "name": "goal",
          "type": "uint256"
        },
        {
          "indexed": false,
          "internalType": "string",
          "name": "title",
          "type": "string"
        },
        {
          "indexed": false,
          "internalType": "string",
          "name": "description",
          "type": "string"
        },
        {
          "indexed": false,
          "internalType": "string",
          "name": "imageLink",
          "type": "string"
        },
        {
          "indexed": false,
          "internalType": "uint32",
          "name": "startAt",
          "type": "uint32"
        },
        {
          "indexed": false,
          "internalType": "uint32",
          "name": "endAt",
          "type": "uint32"
        }
      ],
      "name": "Launch",
      "type": "event"
    },
    {
      "anonymous": false,
      "inputs": [
        {
          "indexed": true,
          "internalType": "address",
          "name": "caller",
          "type": "address"
        },
        {
          "indexed": true,
          "internalType": "uint256",
          "name": "poolId",
          "type": "uint256"
        },
        {
          "indexed": false,
          "internalType": "uint256",
          "name": "amount",
          "type": "uint256"
        },
        {
          "indexed": false,
          "internalType": "uint256",
          "name": "callerTotal",
          "type": "uint256"
        },
        {
          "indexed": false,
          "internalType": "uint256",
          "name": "poolTotal",
          "type": "uint256"
        }
      ],
      "name": "Pledge",
      "type": "event"
    },
    {
      "anonymous": false,
      "inputs": [
        {
          "indexed": true,
          "internalType": "address",
          "name": "caller",
          "type": "address"
        },
        {
          "indexed": true,
          "internalType": "uint256",
          "name": "poolId",
          "type": "uint256"
        },
        {
          "indexed": false,
          "internalType": "uint256",
          "name": "amount",
          "type": "uint256"
        }
      ],
      "name": "Refund",
      "type": "event"
    },
    {
      "anonymous": false,
      "inputs": [
        {
          "indexed": true,
          "internalType": "address",
          "name": "caller",
          "type": "address"
        },
        {
          "indexed": true,
          "internalType": "uint256",
          "name": "poolId",
          "type": "uint256"
        },
        {
          "indexed": false,
          "internalType": "uint256",
          "name": "amount",
          "type": "uint256"
        },
        {
          "indexed": false,
          "internalType": "uint256",
          "name": "callerTotal",
          "type": "uint256"
        },
        {
          "indexed": false,
          "internalType": "uint256",
          "name": "poolTotal",
          "type": "uint256"
        }
      ],
      "name": "Unpledge",
      "type": "event"
    },
    {
      "inputs": [
        {
          "internalType": "address",
          "name": "",
          "type": "address"
        },
        {
          "internalType": "uint256",
          "name": "",
          "type": "uint256"
        }
      ],
      "name": "CampaignsByCreator",
      "outputs": [
        {
          "internalType": "address",
          "name": "creator",
          "type": "address"
        },
        {
          "internalType": "uint256",
          "name": "goal",
          "type": "uint256"
        },
        {
          "internalType": "string",
          "name": "title",
          "type": "string"
        },
        {
          "internalType": "string",
          "name": "description",
          "type": "string"
        },
        {
          "internalType": "string",
          "name": "imageLink",
          "type": "string"
        },
        {
          "internalType": "uint256",
          "name": "pledged",
          "type": "uint256"
        },
        {
          "internalType": "uint256",
          "name": "startAt",
          "type": "uint256"
        },
        {
          "internalType": "uint256",
          "name": "endAt",
          "type": "uint256"
        },
        {
          "internalType": "bool",
          "name": "claimed",
          "type": "bool"
        }
      ],
      "stateMutability": "view",
      "type": "function"
    },
    {
      "inputs": [
        {
          "internalType": "uint256",
          "name": "",
          "type": "uint256"
        }
      ],
      "name": "campaigns",
      "outputs": [
        {
          "internalType": "address",
          "name": "creator",
          "type": "address"
        },
        {
          "internalType": "uint256",
          "name": "goal",
          "type": "uint256"
        },
        {
          "internalType": "string",
          "name": "title",
          "type": "string"
        },
        {
          "internalType": "string",
          "name": "description",
          "type": "string"
        },
        {
          "internalType": "string",
          "name": "imageLink",
          "type": "string"
        },
        {
          "internalType": "uint256",
          "name": "pledged",
          "type": "uint256"
        },
        {
          "internalType": "uint256",
          "name": "startAt",
          "type": "uint256"
        },
        {
          "internalType": "uint256",
          "name": "endAt",
          "type": "uint256"
        },
        {
          "internalType": "bool",
          "name": "claimed",
          "type": "bool"
        }
      ],
      "stateMutability": "view",
      "type": "function"
    },
    {
      "inputs": [
        {
          "internalType": "uint256",
          "name": "_id",
          "type": "uint256"
        }
      ],
      "name": "cancel",
      "outputs": [],
      "stateMutability": "nonpayable",
      "type": "function"
    },
    {
      "inputs": [
        {
          "internalType": "uint256",
          "name": "_id",
          "type": "uint256"
        }
      ],
      "name": "claim",
      "outputs": [],
      "stateMutability": "nonpayable",
      "type": "function"
    },
    {
      "inputs": [],
      "name": "count",
      "outputs": [
        {
          "internalType": "uint256",
          "name": "",
          "type": "uint256"
        }
      ],
      "stateMutability": "view",
      "type": "function"
    },
    {
      "inputs": [
        {
          "internalType": "uint256",
          "name": "_goal",
          "type": "uint256"
        },
        {
          "internalType": "string",
          "name": "_title",
          "type": "string"
        },
        {
          "internalType": "string",
          "name": "_description",
          "type": "string"
        },
        {
          "internalType": "string",
          "name": "_imageLink",
          "type": "string"
        },
        {
          "internalType": "uint32",
          "name": "_startAt",
          "type": "uint32"
        },
        {
          "internalType": "uint32",
          "name": "_endAt",
          "type": "uint32"
        }
      ],
      "name": "launch",
      "outputs": [],
      "stateMutability": "nonpayable",
      "type": "function"
    },
    {
      "inputs": [],
      "name": "maxDuration",
      "outputs": [
        {
          "internalType": "uint256",
          "name": "",
          "type": "uint256"
        }
      ],
      "stateMutability": "view",
      "type": "function"
    },
    {
      "inputs": [
        {
          "internalType": "uint256",
          "name": "_id",
          "type": "uint256"
        },
        {
          "internalType": "uint256",
          "name": "_amount",
          "type": "uint256"
        }
      ],
      "name": "pledge",
      "outputs": [],
      "stateMutability": "nonpayable",
      "type": "function"
    },
    {
      "inputs": [
        {
          "internalType": "uint256",
          "name": "",
          "type": "uint256"
        },
        {
          "internalType": "address",
          "name": "",
          "type": "address"
        }
      ],
      "name": "pledgedAmount",
      "outputs": [
        {
          "internalType": "uint256",
          "name": "",
          "type": "uint256"
        }
      ],
      "stateMutability": "view",
      "type": "function"
    },
    {
      "inputs": [
        {
          "internalType": "uint256",
          "name": "_id",
          "type": "uint256"
        }
      ],
      "name": "refund",
      "outputs": [],
      "stateMutability": "nonpayable",
      "type": "function"
    },
    {
      "inputs": [],
      "name": "token",
      "outputs": [
        {
          "internalType": "contract IERC20",
          "name": "",
          "type": "address"
        }
      ],
      "stateMutability": "view",
      "type": "function"
    },
    {
      "inputs": [
        {
          "internalType": "uint256",
          "name": "_id",
          "type": "uint256"
        },
        {
          "internalType": "uint256",
          "name": "_amount",
          "type": "uint256"
        }
      ],
      "name": "unPledge",
      "outputs": [],
      "stateMutability": "nonpayable",
      "type": "function"
    }
  ],
  "bytecode": "0x60a060405234801561001057600080fd5b50604051611cab380380611cab83398101604081905261002f91610045565b6001600160a01b0390911660805260015561007f565b6000806040838503121561005857600080fd5b82516001600160a01b038116811461006f57600080fd5b6020939093015192949293505050565b608051611bf56100b6600039600081816101ca01528181610790015281816109df0152818161139901526115a60152611bf56000f3fe608060405234801561001057600080fd5b50600436106100d45760003560e01c8063630d8cb311610081578063aa4fb63a1161005b578063aa4fb63a1461019a578063fc0c546a146101c5578063fde327be1461020457600080fd5b8063630d8cb31461016b5780636db5c8fd1461017e578063a3a0e9361461018757600080fd5b8063278ecde1116100b2578063278ecde114610130578063379607f51461014557806340e58ee51461015857600080fd5b806306661abd146100d9578063083c4acd146100f5578063141961bc1461011d575b600080fd5b6100e260005481565b6040519081526020015b60405180910390f35b6101086101033660046117e8565b610217565b6040516100ec9998979695949392919061185f565b61010861012b3660046118dc565b610425565b61014361013e3660046118dc565b610459565b005b6101436101533660046118dc565b61083b565b6101436101663660046118dc565b610a99565b6101436101793660046119ac565b610e14565b6100e260015481565b610143610195366004611a5e565b6111f1565b6100e26101a8366004611a80565b600360209081526000928352604080842090915290825290205481565b6101ec7f000000000000000000000000000000000000000000000000000000000000000081565b6040516001600160a01b0390911681526020016100ec565b610143610212366004611a5e565b61146e565b6004602052816000526040600020818154811061023357600080fd5b60009182526020909120600990910201805460018201546002830180546001600160a01b0390931695509093509061026a90611aac565b80601f016020809104026020016040519081016040528092919081815260200182805461029690611aac565b80156102e35780601f106102b8576101008083540402835291602001916102e3565b820191906000526020600020905b8154815290600101906020018083116102c657829003601f168201915b5050505050908060030180546102f890611aac565b80601f016020809104026020016040519081016040528092919081815260200182805461032490611aac565b80156103715780601f1061034657610100808354040283529160200191610371565b820191906000526020600020905b81548152906001019060200180831161035457829003601f168201915b50505050509080600401805461038690611aac565b80601f01602080910402602001604051908101604052809291908181526020018280546103b290611aac565b80156103ff5780601f106103d4576101008083540402835291602001916103ff565b820191906000526020600020905b8154815290600101906020018083116103e257829003601f168201915b505050506005830154600684015460078501546008909501549394919390925060ff1689565b60026020819052600091825260409091208054600182015492820180546001600160a01b0390921693929161026a90611aac565b600081815260026020818152604080842081516101208101835281546001600160a01b031681526001820154938101939093529283018054929392918401916104a190611aac565b80601f01602080910402602001604051908101604052809291908181526020018280546104cd90611aac565b801561051a5780601f106104ef5761010080835404028352916020019161051a565b820191906000526020600020905b8154815290600101906020018083116104fd57829003601f168201915b5050505050815260200160038201805461053390611aac565b80601f016020809104026020016040519081016040528092919081815260200182805461055f90611aac565b80156105ac5780601f10610581576101008083540402835291602001916105ac565b820191906000526020600020905b81548152906001019060200180831161058f57829003601f168201915b505050505081526020016004820180546105c590611aac565b80601f01602080910402602001604051908101604052809291908181526020018280546105f190611aac565b801561063e5780601f106106135761010080835404028352916020019161063e565b820191906000526020600020905b81548152906001019060200180831161062157829003601f168201915b505050918352505060058201546020820152600682015460408201526007820154606082015260089091015460ff16151560809091015260e081015190915042116106d05760405162461bcd60e51b815260206004820152600960248201527f6e6f7420656e646564000000000000000000000000000000000000000000000060448201526064015b60405180910390fd5b80602001518160a001511061074d5760405162461bcd60e51b815260206004820152602b60248201527f596f752063616e6e6f742057697468647261772c2043616d706169676e20686160448201527f732073756363656564656400000000000000000000000000000000000000000060648201526084016106c7565b600082815260036020908152604080832033808552925280832080549390555163a9059cbb60e01b81526004810191909152602481018290526001600160a01b037f0000000000000000000000000000000000000000000000000000000000000000169063a9059cbb906044016020604051808303816000875af11580156107d9573d6000803e3d6000fd5b505050506040513d601f19601f820116820180604052508101906107fd9190611ae7565b50604051818152839033907f73f04af9dcc582a923ec15d3eea990fe34adabfff2879e28d44572e01a54abb6906020015b60405180910390a3505050565b600081815260026020526040902080546001600160a01b031633146108a25760405162461bcd60e51b815260206004820181905260248201527f596f7520646964206e6f742063726561746520746869732043616d706169676e60448201526064016106c7565b806007015442116108f55760405162461bcd60e51b815260206004820152601660248201527f43616d706169676e20686173206e6f7420656e6465640000000000000000000060448201526064016106c7565b80600101548160050154101561094d5760405162461bcd60e51b815260206004820152601760248201527f43616d706169676e20646964206e6f742073756363656400000000000000000060448201526064016106c7565b600881015460ff16156109a25760405162461bcd60e51b815260206004820152600760248201527f636c61696d65640000000000000000000000000000000000000000000000000060448201526064016106c7565b60088101805460ff191660011790558054600582015460405163a9059cbb60e01b81526001600160a01b03928316600482015260248101919091527f00000000000000000000000000000000000000000000000000000000000000009091169063a9059cbb906044016020604051808303816000875af1158015610a2a573d6000803e3d6000fd5b505050506040513d601f19601f82011682018060405250810190610a4e9190611ae7565b50600581015460405133917f34fcbac0073d7c3d388e51312faf357774904998eeb8fca628b9e6f65ee1cbf791610a8d91868252602082015260400190565b60405180910390a25050565b600081815260026020818152604080842081516101208101835281546001600160a01b03168152600182015493810193909352928301805492939291840191610ae190611aac565b80601f0160208091040260200160405190810160405280929190818152602001828054610b0d90611aac565b8015610b5a5780601f10610b2f57610100808354040283529160200191610b5a565b820191906000526020600020905b815481529060010190602001808311610b3d57829003601f168201915b50505050508152602001600382018054610b7390611aac565b80601f0160208091040260200160405190810160405280929190818152602001828054610b9f90611aac565b8015610bec5780601f10610bc157610100808354040283529160200191610bec565b820191906000526020600020905b815481529060010190602001808311610bcf57829003601f168201915b50505050508152602001600482018054610c0590611aac565b80601f0160208091040260200160405190810160405280929190818152602001828054610c3190611aac565b8015610c7e5780601f10610c5357610100808354040283529160200191610c7e565b820191906000526020600020905b815481529060010190602001808311610c6157829003601f168201915b505050918352505060058201546020820152600682015460408201526007820154606082015260089091015460ff16151560809091015280519091506001600160a01b03163314610d115760405162461bcd60e51b815260206004820181905260248201527f596f7520646964206e6f742063726561746520746869732043616d706169676e60448201526064016106c7565b8060c001514210610d645760405162461bcd60e51b815260206004820152601c60248201527f43616d706169676e2068617320616c726561647920737461727465640000000060448201526064016106c7565b60008281526002602081905260408220805473ffffffffffffffffffffffffffffffffffffffff19168155600181018390559190610da49083018261167b565b610db260038301600061167b565b610dc060048301600061167b565b5060006005820181905560068201819055600782018190556008909101805460ff19169055604051839133917f27f83af92b39768b17fe0c8d6922452702717efb8626d97e7a754e0b27d4f6d29190a35050565b428263ffffffff161015610e905760405162461bcd60e51b815260206004820152602f60248201527f53746172742074696d65206973206c657373207468616e2063757272656e742060448201527f426c6f636b2054696d657374616d70000000000000000000000000000000000060648201526084016106c7565b8163ffffffff168163ffffffff1611610eeb5760405162461bcd60e51b815260206004820181905260248201527f456e642074696d65206973206c657373207468616e2053746172742074696d6560448201526064016106c7565b600154610ef89042611b26565b8163ffffffff161115610f735760405162461bcd60e51b815260206004820152602560248201527f456e642074696d65206578636565647320746865206d6178696d756d2044757260448201527f6174696f6e00000000000000000000000000000000000000000000000000000060648201526084016106c7565b6001600080828254610f859190611b26565b9091555050604080516101208101825233815260208082018981528284018981526060840189905260808401889052600060a0850181905263ffffffff88811660c0870152871660e086015261010085018190528054815260028085529590208451815473ffffffffffffffffffffffffffffffffffffffff19166001600160a01b03909116178155915160018301555180519394919361102e939285019291909101906116b8565b506060820151805161104a9160038401916020909101906116b8565b50608082015180516110669160048401916020909101906116b8565b5060a0820151600582015560c0820151600682015560e08201516007820155610100909101516008909101805460ff191691151591909117905533600090815260046020908152604080832083548452600280845291842081546001818101845592865293909420845460099094020180546001600160a01b0390941673ffffffffffffffffffffffffffffffffffffffff19909416939093178355838101549083015582810180549183019161111c90611aac565b61112792919061173c565b50600382018160030190805461113c90611aac565b61114792919061173c565b50600482018160040190805461115c90611aac565b61116792919061173c565b506005828101549082015560068083015490820155600780830154908201556008918201549101805460ff191660ff909216151591909117905560005460405133917fdcc197ee5ff1ed392a0dd78786079cddcf8c14434c77be1e7c724ee41b30ebcf916111e191908a908a908a908a908a908a90611b3e565b60405180910390a2505050505050565b600082815260026020526040902060068101544210156112535760405162461bcd60e51b815260206004820152601c60248201527f43616d706169676e20686173206e6f742053746172746564207965740000000060448201526064016106c7565b80600701544211156112a75760405162461bcd60e51b815260206004820152601a60248201527f43616d706169676e2068617320616c726561647920656e64656400000000000060448201526064016106c7565b60008381526003602090815260408083203384529091529020548211156113365760405162461bcd60e51b815260206004820152603060248201527f596f7520646f206e6f74206861766520656e6f75676820746f6b656e7320506c60448201527f656467656420746f20776974687261770000000000000000000000000000000060648201526084016106c7565b8181600501600082825461134a9190611ba8565b9091555050600083815260036020908152604080832033845290915281208054849290611378908490611ba8565b909155505060405163a9059cbb60e01b8152336004820152602481018390527f00000000000000000000000000000000000000000000000000000000000000006001600160a01b03169063a9059cbb906044016020604051808303816000875af11580156113ea573d6000803e3d6000fd5b505050506040513d601f19601f8201168201806040525081019061140e9190611ae7565b5060008381526003602090815260408083203380855290835292819020546005850154825187815293840191909152908201528491907fb967189cc07e472168379920159e5b56c57abb2d2cc73c12d2426c0f6db01e199060600161082e565b600082815260026020526040902060068101544210156114d05760405162461bcd60e51b815260206004820152601c60248201527f43616d706169676e20686173206e6f742053746172746564207965740000000060448201526064016106c7565b80600701544211156115245760405162461bcd60e51b815260206004820152601a60248201527f43616d706169676e2068617320616c726561647920656e64656400000000000060448201526064016106c7565b818160050160008282546115389190611b26565b9091555050600083815260036020908152604080832033845290915281208054849290611566908490611b26565b90915550506040517f23b872dd000000000000000000000000000000000000000000000000000000008152336004820152306024820152604481018390527f00000000000000000000000000000000000000000000000000000000000000006001600160a01b0316906323b872dd906064016020604051808303816000875af11580156115f7573d6000803e3d6000fd5b505050506040513d601f19601f8201168201806040525081019061161b9190611ae7565b5060008381526003602090815260408083203380855290835292819020546005850154825187815293840191909152908201528491907fed2509425dd0f680d501a75cc21bf3df7a6d6ba8afcff987fb1159cbc070da1f9060600161082e565b50805461168790611aac565b6000825580601f10611697575050565b601f0160209004906000526020600020908101906116b591906117b7565b50565b8280546116c490611aac565b90600052602060002090601f0160209004810192826116e6576000855561172c565b82601f106116ff57805160ff191683800117855561172c565b8280016001018555821561172c579182015b8281111561172c578251825591602001919060010190611711565b506117389291506117b7565b5090565b82805461174890611aac565b90600052602060002090601f01602090048101928261176a576000855561172c565b82601f1061177b578054855561172c565b8280016001018555821561172c57600052602060002091601f016020900482015b8281111561172c57825482559160010191906001019061179c565b5b8082111561173857600081556001016117b8565b80356001600160a01b03811681146117e357600080fd5b919050565b600080604083850312156117fb57600080fd5b611804836117cc565b946020939093013593505050565b6000815180845260005b818110156118385760208185018101518683018201520161181c565b8181111561184a576000602083870101525b50601f01601f19169290920160200192915050565b60006101206001600160a01b038c1683528a60208401528060408401526118888184018b611812565b9050828103606084015261189c818a611812565b905082810360808401526118b08189611812565b9150508560a08301528460c08301528360e08301528215156101008301529a9950505050505050505050565b6000602082840312156118ee57600080fd5b5035919050565b634e487b7160e01b600052604160045260246000fd5b600082601f83011261191c57600080fd5b813567ffffffffffffffff80821115611937576119376118f5565b604051601f8301601f19908116603f0116810190828211818310171561195f5761195f6118f5565b8160405283815286602085880101111561197857600080fd5b836020870160208301376000602085830101528094505050505092915050565b803563ffffffff811681146117e357600080fd5b60008060008060008060c087890312156119c557600080fd5b86359550602087013567ffffffffffffffff808211156119e457600080fd5b6119f08a838b0161190b565b96506040890135915080821115611a0657600080fd5b611a128a838b0161190b565b95506060890135915080821115611a2857600080fd5b50611a3589828a0161190b565b935050611a4460808801611998565b9150611a5260a08801611998565b90509295509295509295565b60008060408385031215611a7157600080fd5b50508035926020909101359150565b60008060408385031215611a9357600080fd5b82359150611aa3602084016117cc565b90509250929050565b600181811c90821680611ac057607f821691505b60208210811415611ae157634e487b7160e01b600052602260045260246000fd5b50919050565b600060208284031215611af957600080fd5b81518015158114611b0957600080fd5b9392505050565b634e487b7160e01b600052601160045260246000fd5b60008219821115611b3957611b39611b10565b500190565b87815286602082015260e060408201526000611b5d60e0830188611812565b8281036060840152611b6f8188611812565b90508281036080840152611b838187611812565b91505063ffffffff80851660a084015280841660c08401525098975050505050505050565b600082821015611bba57611bba611b10565b50039056fea264697066735822122058f5cb831a24250c8afc524b0ff6e684d6804ae77962fc37c29ce14316a5002964736f6c634300080a0033",
  "linkReferences": {},
  "deployedLinkReferences": {}
}