{
  "_format": "hh-sol-artifact-1",
  "contractName": "FundingPool",
  "sourceName": "contracts/FundingPool.sol",
  "abi": [
    {
      "inputs": [
        {
          "internalType": "address",
          "name": "_token",
          "type": "address"
        },
        {
          "internalType": "uint256",
          "name": "_maxDuration",
          "type": "uint256"
        }
      ],
      "stateMutability": "nonpayable",
      "type": "constructor"
    },
    {
      "anonymous": false,
      "inputs": [
        {
          "indexed": false,
          "internalType": "uint256",
          "name": "id",
          "type": "uint256"
        }
      ],
      "name": "Cancel",
      "type": "event"
    },
    {
      "anonymous": false,
      "inputs": [
        {
          "indexed": false,
          "internalType": "uint256",
          "name": "id",
          "type": "uint256"
        }
      ],
      "name": "Claim",
      "type": "event"
    },
    {
      "anonymous": false,
      "inputs": [
        {
          "indexed": false,
          "internalType": "uint256",
          "name": "id",
          "type": "uint256"
        },
        {
          "indexed": true,
          "internalType": "address",
          "name": "creator",
          "type": "address"
        },
        {
          "indexed": false,
          "internalType": "uint256",
          "name": "goal",
          "type": "uint256"
        },
        {
          "indexed": false,
          "internalType": "string",
          "name": "title",
          "type": "string"
        },
        {
          "indexed": false,
          "internalType": "string",
          "name": "description",
          "type": "string"
        },
        {
          "indexed": false,
          "internalType": "string",
          "name": "imageLink",
          "type": "string"
        },
        {
          "indexed": false,
          "internalType": "uint32",
          "name": "startAt",
          "type": "uint32"
        },
        {
          "indexed": false,
          "internalType": "uint32",
          "name": "endAt",
          "type": "uint32"
        }
      ],
      "name": "Launch",
      "type": "event"
    },
    {
      "anonymous": false,
      "inputs": [
        {
          "indexed": true,
          "internalType": "uint256",
          "name": "id",
          "type": "uint256"
        },
        {
          "indexed": true,
          "internalType": "address",
          "name": "caller",
          "type": "address"
        },
        {
          "indexed": false,
          "internalType": "uint256",
          "name": "amount",
          "type": "uint256"
        }
      ],
      "name": "Pledge",
      "type": "event"
    },
    {
      "anonymous": false,
      "inputs": [
        {
          "indexed": false,
          "internalType": "uint256",
          "name": "id",
          "type": "uint256"
        },
        {
          "indexed": true,
          "internalType": "address",
          "name": "caller",
          "type": "address"
        },
        {
          "indexed": false,
          "internalType": "uint256",
          "name": "amount",
          "type": "uint256"
        }
      ],
      "name": "Refund",
      "type": "event"
    },
    {
      "anonymous": false,
      "inputs": [
        {
          "indexed": true,
          "internalType": "uint256",
          "name": "id",
          "type": "uint256"
        },
        {
          "indexed": true,
          "internalType": "address",
          "name": "caller",
          "type": "address"
        },
        {
          "indexed": false,
          "internalType": "uint256",
          "name": "amount",
          "type": "uint256"
        }
      ],
      "name": "Unpledge",
      "type": "event"
    },
    {
      "inputs": [
        {
          "internalType": "uint256",
          "name": "",
          "type": "uint256"
        }
      ],
      "name": "campaigns",
      "outputs": [
        {
          "internalType": "uint256",
          "name": "id",
          "type": "uint256"
        },
        {
          "internalType": "address",
          "name": "creator",
          "type": "address"
        },
        {
          "internalType": "uint256",
          "name": "goal",
          "type": "uint256"
        },
        {
          "internalType": "string",
          "name": "title",
          "type": "string"
        },
        {
          "internalType": "string",
          "name": "description",
          "type": "string"
        },
        {
          "internalType": "string",
          "name": "imageLink",
          "type": "string"
        },
        {
          "internalType": "uint256",
          "name": "pledged",
          "type": "uint256"
        },
        {
          "internalType": "uint256",
          "name": "startAt",
          "type": "uint256"
        },
        {
          "internalType": "uint256",
          "name": "endAt",
          "type": "uint256"
        },
        {
          "internalType": "bool",
          "name": "claimed",
          "type": "bool"
        }
      ],
      "stateMutability": "view",
      "type": "function"
    },
    {
      "inputs": [
        {
          "internalType": "uint256",
          "name": "_id",
          "type": "uint256"
        }
      ],
      "name": "cancel",
      "outputs": [],
      "stateMutability": "nonpayable",
      "type": "function"
    },
    {
      "inputs": [
        {
          "internalType": "uint256",
          "name": "_id",
          "type": "uint256"
        }
      ],
      "name": "claim",
      "outputs": [],
      "stateMutability": "nonpayable",
      "type": "function"
    },
    {
      "inputs": [],
      "name": "count",
      "outputs": [
        {
          "internalType": "uint256",
          "name": "",
          "type": "uint256"
        }
      ],
      "stateMutability": "view",
      "type": "function"
    },
    {
      "inputs": [
        {
          "internalType": "address",
          "name": "user",
          "type": "address"
        }
      ],
      "name": "getFundingPoolsByCreator",
      "outputs": [
        {
          "components": [
            {
              "internalType": "uint256",
              "name": "id",
              "type": "uint256"
            },
            {
              "internalType": "address",
              "name": "creator",
              "type": "address"
            },
            {
              "internalType": "uint256",
              "name": "goal",
              "type": "uint256"
            },
            {
              "internalType": "string",
              "name": "title",
              "type": "string"
            },
            {
              "internalType": "string",
              "name": "description",
              "type": "string"
            },
            {
              "internalType": "string",
              "name": "imageLink",
              "type": "string"
            },
            {
              "internalType": "uint256",
              "name": "pledged",
              "type": "uint256"
            },
            {
              "internalType": "uint256",
              "name": "startAt",
              "type": "uint256"
            },
            {
              "internalType": "uint256",
              "name": "endAt",
              "type": "uint256"
            },
            {
              "internalType": "bool",
              "name": "claimed",
              "type": "bool"
            }
          ],
          "internalType": "struct FundingPool.Campaign[]",
          "name": "",
          "type": "tuple[]"
        }
      ],
      "stateMutability": "view",
      "type": "function"
    },
    {
      "inputs": [
        {
          "internalType": "uint256",
          "name": "_goal",
          "type": "uint256"
        },
        {
          "internalType": "string",
          "name": "_title",
          "type": "string"
        },
        {
          "internalType": "string",
          "name": "_description",
          "type": "string"
        },
        {
          "internalType": "string",
          "name": "_imageLink",
          "type": "string"
        },
        {
          "internalType": "uint32",
          "name": "_startAt",
          "type": "uint32"
        },
        {
          "internalType": "uint32",
          "name": "_endAt",
          "type": "uint32"
        }
      ],
      "name": "launch",
      "outputs": [],
      "stateMutability": "nonpayable",
      "type": "function"
    },
    {
      "inputs": [],
      "name": "maxDuration",
      "outputs": [
        {
          "internalType": "uint256",
          "name": "",
          "type": "uint256"
        }
      ],
      "stateMutability": "view",
      "type": "function"
    },
    {
      "inputs": [
        {
          "internalType": "uint256",
          "name": "_id",
          "type": "uint256"
        },
        {
          "internalType": "uint256",
          "name": "_amount",
          "type": "uint256"
        }
      ],
      "name": "pledge",
      "outputs": [],
      "stateMutability": "nonpayable",
      "type": "function"
    },
    {
      "inputs": [
        {
          "internalType": "uint256",
          "name": "",
          "type": "uint256"
        },
        {
          "internalType": "address",
          "name": "",
          "type": "address"
        }
      ],
      "name": "pledgedAmount",
      "outputs": [
        {
          "internalType": "uint256",
          "name": "",
          "type": "uint256"
        }
      ],
      "stateMutability": "view",
      "type": "function"
    },
    {
      "inputs": [
        {
          "internalType": "uint256",
          "name": "_id",
          "type": "uint256"
        }
      ],
      "name": "refund",
      "outputs": [],
      "stateMutability": "nonpayable",
      "type": "function"
    },
    {
      "inputs": [],
      "name": "token",
      "outputs": [
        {
          "internalType": "contract IERC20",
          "name": "",
          "type": "address"
        }
      ],
      "stateMutability": "view",
      "type": "function"
    },
    {
      "inputs": [
        {
          "internalType": "uint256",
          "name": "_id",
          "type": "uint256"
        },
        {
          "internalType": "uint256",
          "name": "_amount",
          "type": "uint256"
        }
      ],
      "name": "unPledge",
      "outputs": [],
      "stateMutability": "nonpayable",
      "type": "function"
    }
  ],
  "bytecode": "0x60a060405234801561001057600080fd5b50604051611e5f380380611e5f83398101604081905261002f91610045565b6001600160a01b0390911660805260025561007f565b6000806040838503121561005857600080fd5b82516001600160a01b038116811461006f57600080fd5b6020939093015192949293505050565b608051611da96100b6600039600081816101d8015281816109e501528181610c3e0152818161151601526117010152611da96000f3fe608060405234801561001057600080fd5b50600436106100d45760003560e01c8063630d8cb311610081578063aa4fb63a1161005b578063aa4fb63a146101a8578063fc0c546a146101d3578063fde327be1461021257600080fd5b8063630d8cb3146101795780636db5c8fd1461018c578063a3a0e9361461019557600080fd5b8063278ecde1116100b2578063278ecde11461013e578063379607f51461015357806340e58ee51461016657600080fd5b806306661abd146100d957806306c20ffe146100f5578063141961bc14610115575b600080fd5b6100e260015481565b6040519081526020015b60405180910390f35b61010861010336600461189d565b610225565b6040516100ec919061190c565b610128610123366004611a12565b6104ad565b6040516100ec9a99989796959493929190611a2b565b61015161014c366004611a12565b6106a3565b005b610151610161366004611a12565b610a93565b610151610174366004611a12565b610ce6565b610151610187366004611b67565b611078565b6100e260025481565b6101516101a3366004611c19565b61136e565b6100e26101b6366004611c3b565b600460209081526000928352604080842090915290825290205481565b6101fa7f000000000000000000000000000000000000000000000000000000000000000081565b6040516001600160a01b0390911681526020016100ec565b610151610220366004611c19565b6115c9565b6001600160a01b038116600090815260208181526040808320805482518185028101850190935280835260609492939192909184015b828210156104a25760008481526020908190206040805161014081018252600a86029092018054835260018101546001600160a01b0316938301939093526002830154908201526003820180549192916060840191906102ba90611c67565b80601f01602080910402602001604051908101604052809291908181526020018280546102e690611c67565b80156103335780601f1061030857610100808354040283529160200191610333565b820191906000526020600020905b81548152906001019060200180831161031657829003601f168201915b5050505050815260200160048201805461034c90611c67565b80601f016020809104026020016040519081016040528092919081815260200182805461037890611c67565b80156103c55780601f1061039a576101008083540402835291602001916103c5565b820191906000526020600020905b8154815290600101906020018083116103a857829003601f168201915b505050505081526020016005820180546103de90611c67565b80601f016020809104026020016040519081016040528092919081815260200182805461040a90611c67565b80156104575780601f1061042c57610100808354040283529160200191610457565b820191906000526020600020905b81548152906001019060200180831161043a57829003601f168201915b50505091835250506006820154602080830191909152600783015460408301526008830154606083015260099092015460ff161515608090910152908252600192909201910161025b565b505050509050919050565b6003602081905260009182526040909120805460018201546002830154938301805492946001600160a01b039092169391926104e890611c67565b80601f016020809104026020016040519081016040528092919081815260200182805461051490611c67565b80156105615780601f1061053657610100808354040283529160200191610561565b820191906000526020600020905b81548152906001019060200180831161054457829003601f168201915b50505050509080600401805461057690611c67565b80601f01602080910402602001604051908101604052809291908181526020018280546105a290611c67565b80156105ef5780601f106105c4576101008083540402835291602001916105ef565b820191906000526020600020905b8154815290600101906020018083116105d257829003601f168201915b50505050509080600501805461060490611c67565b80601f016020809104026020016040519081016040528092919081815260200182805461063090611c67565b801561067d5780601f106106525761010080835404028352916020019161067d565b820191906000526020600020905b81548152906001019060200180831161066057829003601f168201915b505050506006830154600784015460088501546009909501549394919390925060ff168a565b60008181526003602081815260408084208151610140810183528154815260018201546001600160a01b03169381019390935260028101549183019190915291820180549192916060840191906106f990611c67565b80601f016020809104026020016040519081016040528092919081815260200182805461072590611c67565b80156107725780601f1061074757610100808354040283529160200191610772565b820191906000526020600020905b81548152906001019060200180831161075557829003601f168201915b5050505050815260200160048201805461078b90611c67565b80601f01602080910402602001604051908101604052809291908181526020018280546107b790611c67565b80156108045780601f106107d957610100808354040283529160200191610804565b820191906000526020600020905b8154815290600101906020018083116107e757829003601f168201915b5050505050815260200160058201805461081d90611c67565b80601f016020809104026020016040519081016040528092919081815260200182805461084990611c67565b80156108965780601f1061086b57610100808354040283529160200191610896565b820191906000526020600020905b81548152906001019060200180831161087957829003601f168201915b505050918352505060068201546020820152600782015460408201526008820154606082015260099091015460ff16151560809091015261010081015190915042116109295760405162461bcd60e51b815260206004820152600960248201527f6e6f7420656e646564000000000000000000000000000000000000000000000060448201526064015b60405180910390fd5b80604001518160c00151106109a65760405162461bcd60e51b815260206004820152602b60248201527f596f752063616e6e6f742057697468647261772c2043616d706169676e20686160448201527f73207375636365656465640000000000000000000000000000000000000000006064820152608401610920565b600082815260046020818152604080842033808652925280842080549490555163a9059cbb60e01b815291820152602481018290526001600160a01b037f0000000000000000000000000000000000000000000000000000000000000000169063a9059cbb906044016020604051808303816000875af1158015610a2e573d6000803e3d6000fd5b505050506040513d601f19601f82011682018060405250810190610a529190611ca2565b50604080518481526020810183905233917f21e12a7cad0da5928167e1084ea4d5fdf8d9af66657a2543a9ac76a0ca081477910160405180910390a2505050565b600081815260036020526040902060018101546001600160a01b03163314610afd5760405162461bcd60e51b815260206004820181905260248201527f596f7520646964206e6f742063726561746520746869732043616d706169676e6044820152606401610920565b80600801544211610b505760405162461bcd60e51b815260206004820152601660248201527f43616d706169676e20686173206e6f7420656e646564000000000000000000006044820152606401610920565b806002015481600601541015610ba85760405162461bcd60e51b815260206004820152601760248201527f43616d706169676e20646964206e6f74207375636365640000000000000000006044820152606401610920565b600981015460ff1615610bfd5760405162461bcd60e51b815260206004820152600760248201527f636c61696d6564000000000000000000000000000000000000000000000000006044820152606401610920565b60098101805460ff19166001908117909155810154600682015460405163a9059cbb60e01b81526001600160a01b03928316600482015260248101919091527f00000000000000000000000000000000000000000000000000000000000000009091169063a9059cbb906044016020604051808303816000875af1158015610c89573d6000803e3d6000fd5b505050506040513d601f19601f82011682018060405250810190610cad9190611ca2565b506040518281527f7bb2b3c10797baccb6f8c4791f1edd6ca2f0d028ee0eda64b01a9a57e3a653f7906020015b60405180910390a15050565b60008181526003602081815260408084208151610140810183528154815260018201546001600160a01b0316938101939093526002810154918301919091529182018054919291606084019190610d3c90611c67565b80601f0160208091040260200160405190810160405280929190818152602001828054610d6890611c67565b8015610db55780601f10610d8a57610100808354040283529160200191610db5565b820191906000526020600020905b815481529060010190602001808311610d9857829003601f168201915b50505050508152602001600482018054610dce90611c67565b80601f0160208091040260200160405190810160405280929190818152602001828054610dfa90611c67565b8015610e475780601f10610e1c57610100808354040283529160200191610e47565b820191906000526020600020905b815481529060010190602001808311610e2a57829003601f168201915b50505050508152602001600582018054610e6090611c67565b80601f0160208091040260200160405190810160405280929190818152602001828054610e8c90611c67565b8015610ed95780601f10610eae57610100808354040283529160200191610ed9565b820191906000526020600020905b815481529060010190602001808311610ebc57829003601f168201915b50505091835250506006820154602080830191909152600783015460408301526008830154606083015260099092015460ff1615156080909101528101519091506001600160a01b03163314610f715760405162461bcd60e51b815260206004820181905260248201527f596f7520646964206e6f742063726561746520746869732043616d706169676e6044820152606401610920565b8060e001514210610fc45760405162461bcd60e51b815260206004820152601c60248201527f43616d706169676e2068617320616c72656164792073746172746564000000006044820152606401610920565b6000828152600360208190526040822082815560018101805473ffffffffffffffffffffffffffffffffffffffff1916905560028101839055919061100b908301826117ab565b6110196004830160006117ab565b6110276005830160006117ab565b50600060068201819055600782018190556008820155600901805460ff191690556040518281527f8bf30e7ff26833413be5f69e1d373744864d600b664204b4a2f9844a8eedb9ed90602001610cda565b428263ffffffff1610156110f45760405162461bcd60e51b815260206004820152602f60248201527f53746172742074696d65206973206c657373207468616e2063757272656e742060448201527f426c6f636b2054696d657374616d7000000000000000000000000000000000006064820152608401610920565b8163ffffffff168163ffffffff161161114f5760405162461bcd60e51b815260206004820181905260248201527f456e642074696d65206973206c657373207468616e2053746172742074696d656044820152606401610920565b60025461115c9042611cda565b8163ffffffff1611156111d75760405162461bcd60e51b815260206004820152602560248201527f456e642074696d65206578636565647320746865206d6178696d756d2044757260448201527f6174696f6e0000000000000000000000000000000000000000000000000000006064820152608401610920565b60018060008282546111e99190611cda565b90915550506040805161014081018252600180548083523360208085019182528486018c8152606086018c8152608087018c905260a087018b9052600060c0880181905263ffffffff8b811660e08a01528a166101008901526101208801819052948552600380845297909420865181559251948301805473ffffffffffffffffffffffffffffffffffffffff19166001600160a01b03909616959095179094559251600282015590518051939491936112ab939285019291909101906117e8565b50608082015180516112c79160048401916020909101906117e8565b5060a082015180516112e39160058401916020909101906117e8565b5060c0820151600682015560e082015160078201556101008201516008820155610120909101516009909101805460ff191691151591909117905560015460405133917fdcc197ee5ff1ed392a0dd78786079cddcf8c14434c77be1e7c724ee41b30ebcf9161135e91908a908a908a908a908a908a90611cf2565b60405180910390a2505050505050565b600082815260036020526040902060078101544210156113d05760405162461bcd60e51b815260206004820152601c60248201527f43616d706169676e20686173206e6f74205374617274656420796574000000006044820152606401610920565b80600801544211156114245760405162461bcd60e51b815260206004820152601a60248201527f43616d706169676e2068617320616c726561647920656e6465640000000000006044820152606401610920565b60008381526004602090815260408083203384529091529020548211156114b35760405162461bcd60e51b815260206004820152603060248201527f596f7520646f206e6f74206861766520656e6f75676820746f6b656e7320506c60448201527f656467656420746f2077697468726177000000000000000000000000000000006064820152608401610920565b818160060160008282546114c79190611d5c565b90915550506000838152600460209081526040808320338452909152812080548492906114f5908490611d5c565b909155505060405163a9059cbb60e01b8152336004820152602481018390527f00000000000000000000000000000000000000000000000000000000000000006001600160a01b03169063a9059cbb906044016020604051808303816000875af1158015611567573d6000803e3d6000fd5b505050506040513d601f19601f8201168201806040525081019061158b9190611ca2565b50604051828152339084907f2eeeab891b26a214d1b25749f88a406bdea852bd8c9bfda977e0ef8114c180ba906020015b60405180910390a3505050565b6000828152600360205260409020600781015442101561162b5760405162461bcd60e51b815260206004820152601c60248201527f43616d706169676e20686173206e6f74205374617274656420796574000000006044820152606401610920565b806008015442111561167f5760405162461bcd60e51b815260206004820152601a60248201527f43616d706169676e2068617320616c726561647920656e6465640000000000006044820152606401610920565b818160060160008282546116939190611cda565b90915550506000838152600460209081526040808320338452909152812080548492906116c1908490611cda565b90915550506040517f23b872dd000000000000000000000000000000000000000000000000000000008152336004820152306024820152604481018390527f00000000000000000000000000000000000000000000000000000000000000006001600160a01b0316906323b872dd906064016020604051808303816000875af1158015611752573d6000803e3d6000fd5b505050506040513d601f19601f820116820180604052508101906117769190611ca2565b50604051828152339084907f06bdb975df800a73232998e71ed585d536222f1dfeaa622d7f62a23ada686c82906020016115bc565b5080546117b790611c67565b6000825580601f106117c7575050565b601f0160209004906000526020600020908101906117e5919061186c565b50565b8280546117f490611c67565b90600052602060002090601f016020900481019282611816576000855561185c565b82601f1061182f57805160ff191683800117855561185c565b8280016001018555821561185c579182015b8281111561185c578251825591602001919060010190611841565b5061186892915061186c565b5090565b5b80821115611868576000815560010161186d565b80356001600160a01b038116811461189857600080fd5b919050565b6000602082840312156118af57600080fd5b6118b882611881565b9392505050565b6000815180845260005b818110156118e5576020818501810151868301820152016118c9565b818111156118f7576000602083870101525b50601f01601f19169290920160200192915050565b60006020808301818452808551808352604092508286019150828160051b87010184880160005b83811015611a0457888303603f19018552815180518452878101516001600160a01b03811689860152610140905087820151888601526060808301518282880152611980838801826118bf565b925050506080808301518683038288015261199b83826118bf565b9250505060a080830151868303828801526119b683826118bf565b60c0858101519089015260e08086015190890152610100808601519089015261012094850151801515868a01529490935091506119f09050565b509588019593505090860190600101611933565b509098975050505050505050565b600060208284031215611a2457600080fd5b5035919050565b60006101408c83526001600160a01b038c1660208401528a6040840152806060840152611a5a8184018b6118bf565b90508281036080840152611a6e818a6118bf565b905082810360a0840152611a8281896118bf565b9150508560c08301528460e0830152836101008301528215156101208301529b9a5050505050505050505050565b634e487b7160e01b600052604160045260246000fd5b600082601f830112611ad757600080fd5b813567ffffffffffffffff80821115611af257611af2611ab0565b604051601f8301601f19908116603f01168101908282118183101715611b1a57611b1a611ab0565b81604052838152866020858801011115611b3357600080fd5b836020870160208301376000602085830101528094505050505092915050565b803563ffffffff8116811461189857600080fd5b60008060008060008060c08789031215611b8057600080fd5b86359550602087013567ffffffffffffffff80821115611b9f57600080fd5b611bab8a838b01611ac6565b96506040890135915080821115611bc157600080fd5b611bcd8a838b01611ac6565b95506060890135915080821115611be357600080fd5b50611bf089828a01611ac6565b935050611bff60808801611b53565b9150611c0d60a08801611b53565b90509295509295509295565b60008060408385031215611c2c57600080fd5b50508035926020909101359150565b60008060408385031215611c4e57600080fd5b82359150611c5e60208401611881565b90509250929050565b600181811c90821680611c7b57607f821691505b60208210811415611c9c57634e487b7160e01b600052602260045260246000fd5b50919050565b600060208284031215611cb457600080fd5b815180151581146118b857600080fd5b634e487b7160e01b600052601160045260246000fd5b60008219821115611ced57611ced611cc4565b500190565b87815286602082015260e060408201526000611d1160e08301886118bf565b8281036060840152611d2381886118bf565b90508281036080840152611d3781876118bf565b91505063ffffffff80851660a084015280841660c08401525098975050505050505050565b600082821015611d6e57611d6e611cc4565b50039056fea2646970667358221220637c5e15d0748a194aca0f97a78ac858c218fdd1343d93582620e70a125a00e264736f6c634300080a0033",
  "linkReferences": {},
  "deployedLinkReferences": {}
}