{
    "_format": "hh-sol-artifact-1",
    "contractName": "RefoundPost",
    "sourceName": "contracts/RefoundPost.sol",
    "abi": [
        {
            "inputs": [
                {
                    "internalType": "address",
                    "name": "_refound",
                    "type": "address"
                }
            ],
            "stateMutability": "nonpayable",
            "type": "constructor"
        },
        {
            "anonymous": false,
            "inputs": [
                {
                    "indexed": true,
                    "internalType": "address",
                    "name": "owner",
                    "type": "address"
                },
                {
                    "indexed": true,
                    "internalType": "address",
                    "name": "approved",
                    "type": "address"
                },
                {
                    "indexed": true,
                    "internalType": "uint256",
                    "name": "tokenId",
                    "type": "uint256"
                }
            ],
            "name": "Approval",
            "type": "event"
        },
        {
            "anonymous": false,
            "inputs": [
                {
                    "indexed": true,
                    "internalType": "address",
                    "name": "owner",
                    "type": "address"
                },
                {
                    "indexed": true,
                    "internalType": "address",
                    "name": "operator",
                    "type": "address"
                },
                {
                    "indexed": false,
                    "internalType": "bool",
                    "name": "approved",
                    "type": "bool"
                }
            ],
            "name": "ApprovalForAll",
            "type": "event"
        },
        {
            "anonymous": false,
            "inputs": [
                {
                    "indexed": true,
                    "internalType": "address",
                    "name": "from",
                    "type": "address"
                },
                {
                    "indexed": true,
                    "internalType": "address",
                    "name": "to",
                    "type": "address"
                },
                {
                    "indexed": true,
                    "internalType": "uint256",
                    "name": "tokenId",
                    "type": "uint256"
                }
            ],
            "name": "Transfer",
            "type": "event"
        },
        {
            "inputs": [
                {
                    "internalType": "address",
                    "name": "to",
                    "type": "address"
                },
                {
                    "internalType": "uint256",
                    "name": "tokenId",
                    "type": "uint256"
                }
            ],
            "name": "approve",
            "outputs": [],
            "stateMutability": "nonpayable",
            "type": "function"
        },
        {
            "inputs": [
                {
                    "internalType": "address",
                    "name": "owner",
                    "type": "address"
                }
            ],
            "name": "balanceOf",
            "outputs": [
                {
                    "internalType": "uint256",
                    "name": "",
                    "type": "uint256"
                }
            ],
            "stateMutability": "view",
            "type": "function"
        },
        {
            "inputs": [],
            "name": "getAllPosts",
            "outputs": [
                {
                    "internalType": "string[]",
                    "name": "",
                    "type": "string[]"
                }
            ],
            "stateMutability": "view",
            "type": "function"
        },
        {
            "inputs": [
                {
                    "internalType": "uint256",
                    "name": "tokenId",
                    "type": "uint256"
                }
            ],
            "name": "getApproved",
            "outputs": [
                {
                    "internalType": "address",
                    "name": "",
                    "type": "address"
                }
            ],
            "stateMutability": "view",
            "type": "function"
        },
        {
            "inputs": [
                {
                    "internalType": "address",
                    "name": "user",
                    "type": "address"
                }
            ],
            "name": "getLicensesByAddress",
            "outputs": [
                {
                    "components": [
                        {
                            "internalType": "uint256",
                            "name": "postID",
                            "type": "uint256"
                        },
                        {
                            "internalType": "enum LicenseType",
                            "name": "Ltype",
                            "type": "uint8"
                        },
                        {
                            "internalType": "uint256",
                            "name": "purchaseDate",
                            "type": "uint256"
                        }
                    ],
                    "internalType": "struct License[]",
                    "name": "",
                    "type": "tuple[]"
                }
            ],
            "stateMutability": "view",
            "type": "function"
        },
        {
            "inputs": [
                {
                    "internalType": "uint256",
                    "name": "profileID",
                    "type": "uint256"
                }
            ],
            "name": "getPostsByCreator",
            "outputs": [
                {
                    "internalType": "string[]",
                    "name": "",
                    "type": "string[]"
                }
            ],
            "stateMutability": "view",
            "type": "function"
        },
        {
            "inputs": [
                {
                    "internalType": "address",
                    "name": "owner",
                    "type": "address"
                },
                {
                    "internalType": "address",
                    "name": "operator",
                    "type": "address"
                }
            ],
            "name": "isApprovedForAll",
            "outputs": [
                {
                    "internalType": "bool",
                    "name": "",
                    "type": "bool"
                }
            ],
            "stateMutability": "view",
            "type": "function"
        },
        {
            "inputs": [
                {
                    "internalType": "uint256",
                    "name": "profileID",
                    "type": "uint256"
                },
                {
                    "internalType": "string",
                    "name": "postData",
                    "type": "string"
                },
                {
                    "internalType": "address",
                    "name": "postOwner",
                    "type": "address"
                }
            ],
            "name": "makeRefoundPost",
            "outputs": [
                {
                    "internalType": "uint256",
                    "name": "",
                    "type": "uint256"
                }
            ],
            "stateMutability": "nonpayable",
            "type": "function"
        },
        {
            "inputs": [],
            "name": "name",
            "outputs": [
                {
                    "internalType": "string",
                    "name": "",
                    "type": "string"
                }
            ],
            "stateMutability": "view",
            "type": "function"
        },
        {
            "inputs": [],
            "name": "owner",
            "outputs": [
                {
                    "internalType": "address",
                    "name": "",
                    "type": "address"
                }
            ],
            "stateMutability": "view",
            "type": "function"
        },
        {
            "inputs": [
                {
                    "internalType": "uint256",
                    "name": "tokenId",
                    "type": "uint256"
                }
            ],
            "name": "ownerOf",
            "outputs": [
                {
                    "internalType": "address",
                    "name": "",
                    "type": "address"
                }
            ],
            "stateMutability": "view",
            "type": "function"
        },
        {
            "inputs": [],
            "name": "posts",
            "outputs": [
                {
                    "internalType": "uint256",
                    "name": "",
                    "type": "uint256"
                }
            ],
            "stateMutability": "view",
            "type": "function"
        },
        {
            "inputs": [
                {
                    "internalType": "uint256",
                    "name": "postID",
                    "type": "uint256"
                },
                {
                    "internalType": "uint8",
                    "name": "licenseType",
                    "type": "uint8"
                }
            ],
            "name": "purchaseLicense",
            "outputs": [],
            "stateMutability": "nonpayable",
            "type": "function"
        },
        {
            "inputs": [],
            "name": "refound",
            "outputs": [
                {
                    "internalType": "address",
                    "name": "",
                    "type": "address"
                }
            ],
            "stateMutability": "view",
            "type": "function"
        },
        {
            "inputs": [
                {
                    "internalType": "address",
                    "name": "from",
                    "type": "address"
                },
                {
                    "internalType": "address",
                    "name": "to",
                    "type": "address"
                },
                {
                    "internalType": "uint256",
                    "name": "tokenId",
                    "type": "uint256"
                }
            ],
            "name": "safeTransferFrom",
            "outputs": [],
            "stateMutability": "nonpayable",
            "type": "function"
        },
        {
            "inputs": [
                {
                    "internalType": "address",
                    "name": "from",
                    "type": "address"
                },
                {
                    "internalType": "address",
                    "name": "to",
                    "type": "address"
                },
                {
                    "internalType": "uint256",
                    "name": "tokenId",
                    "type": "uint256"
                },
                {
                    "internalType": "bytes",
                    "name": "data",
                    "type": "bytes"
                }
            ],
            "name": "safeTransferFrom",
            "outputs": [],
            "stateMutability": "nonpayable",
            "type": "function"
        },
        {
            "inputs": [
                {
                    "internalType": "address",
                    "name": "operator",
                    "type": "address"
                },
                {
                    "internalType": "bool",
                    "name": "approved",
                    "type": "bool"
                }
            ],
            "name": "setApprovalForAll",
            "outputs": [],
            "stateMutability": "nonpayable",
            "type": "function"
        },
        {
            "inputs": [
                {
                    "internalType": "bytes4",
                    "name": "interfaceId",
                    "type": "bytes4"
                }
            ],
            "name": "supportsInterface",
            "outputs": [
                {
                    "internalType": "bool",
                    "name": "",
                    "type": "bool"
                }
            ],
            "stateMutability": "view",
            "type": "function"
        },
        {
            "inputs": [],
            "name": "symbol",
            "outputs": [
                {
                    "internalType": "string",
                    "name": "",
                    "type": "string"
                }
            ],
            "stateMutability": "view",
            "type": "function"
        },
        {
            "inputs": [
                {
                    "internalType": "uint256",
                    "name": "tokenId",
                    "type": "uint256"
                }
            ],
            "name": "tokenURI",
            "outputs": [
                {
                    "internalType": "string",
                    "name": "",
                    "type": "string"
                }
            ],
            "stateMutability": "view",
            "type": "function"
        },
        {
            "inputs": [
                {
                    "internalType": "address",
                    "name": "from",
                    "type": "address"
                },
                {
                    "internalType": "address",
                    "name": "to",
                    "type": "address"
                },
                {
                    "internalType": "uint256",
                    "name": "tokenId",
                    "type": "uint256"
                }
            ],
            "name": "transferFrom",
            "outputs": [],
            "stateMutability": "nonpayable",
            "type": "function"
        },
        {
            "inputs": [
                {
                    "internalType": "uint8",
                    "name": "index",
                    "type": "uint8"
                },
                {
                    "internalType": "uint256",
                    "name": "price",
                    "type": "uint256"
                }
            ],
            "name": "updatePrice",
            "outputs": [],
            "stateMutability": "nonpayable",
            "type": "function"
        }
    ],
    "bytecode": "0x60806040523480156200001157600080fd5b506040516200247c3803806200247c833981016040819052620000349162000216565b604080518082018252600b81526a1499599bdd5b99141bdcdd60aa1b6020808301918252835180850190945260068452650464f554e44560d41b908401528151919291620000859160009162000170565b5080516200009b90600190602084019062000170565b5050600a80546001600160a01b0319166001600160a01b038416179055506000600955604080518082019091526007815266037bbb732b91d160cd1b602080830191909152620000f791903390620000fe811b62000e1e17901c565b50620002ee565b6200014b82826040516024016200011792919062000248565b60408051601f198184030181529190526020810180516001600160e01b0390811663319af33360e01b179091526200014f16565b5050565b80516a636f6e736f6c652e6c6f67602083016000808483855afa5050505050565b8280546200017e90620002b1565b90600052602060002090601f016020900481019282620001a25760008555620001ed565b82601f10620001bd57805160ff1916838001178555620001ed565b82800160010185558215620001ed579182015b82811115620001ed578251825591602001919060010190620001d0565b50620001fb929150620001ff565b5090565b5b80821115620001fb576000815560010162000200565b6000602082840312156200022957600080fd5b81516001600160a01b03811681146200024157600080fd5b9392505050565b604081526000835180604084015260005b8181101562000278576020818701810151606086840101520162000259565b818111156200028b576000606083860101525b506001600160a01b0393909316602083015250601f91909101601f191601606001919050565b600181811c90821680620002c657607f821691505b60208210811415620002e857634e487b7160e01b600052602260045260246000fd5b50919050565b61217e80620002fe6000396000f3fe608060405234801561001057600080fd5b50600436106101815760003560e01c80636352211e116100d857806395d89b411161008c578063b88d4fde11610066578063b88d4fde14610328578063c87b56dd1461033b578063e985e9c51461034e57600080fd5b806395d89b41146102fa578063a22cb46514610302578063b3c90e111461031557600080fd5b806370a08231116100bd57806370a08231146102c15780637efca41f146102d45780638da5cb5b146102e757600080fd5b80636352211e1461029757806367b2cf1d146102aa57600080fd5b80631aaafff31161013a57806323b872dd1161011457806323b872dd14610269578063305611001461027c57806342842e0e1461028457600080fd5b80631aaafff3146102165780631d2e2239146102365780631f706f141461025657600080fd5b806306fdde031161016b57806306fdde03146101c3578063081812fc146101d8578063095ea7b31461020357600080fd5b80627fa4f01461018657806301ffc9a71461019b575b600080fd5b6101996101943660046119de565b61038a565b005b6101ae6101a9366004611a1e565b6103df565b60405190151581526020015b60405180910390f35b6101cb61047c565b6040516101ba9190611a93565b6101eb6101e6366004611aa6565b61050e565b6040516001600160a01b0390911681526020016101ba565b610199610211366004611ad6565b610535565b610229610224366004611aa6565b61066c565b6040516101ba9190611af2565b610249610244366004611b54565b610752565b6040516101ba9190611b85565b610199610264366004611bfd565b610814565b610199610277366004611c29565b6108c3565b61022961094a565b610199610292366004611c29565b6109eb565b6101eb6102a5366004611aa6565b610a06565b6102b360095481565b6040519081526020016101ba565b6102b36102cf366004611b54565b610a6b565b6102b36102e2366004611cf1565b610b05565b6008546101eb906001600160a01b031681565b6101cb610c61565b610199610310366004611d5c565b610c70565b600a546101eb906001600160a01b031681565b610199610336366004611d98565b610c7f565b6101cb610349366004611aa6565b610d0d565b6101ae61035c366004611e14565b6001600160a01b03918216600090815260056020908152604080832093909416825291909152205460ff1690565b6103c96040518060400160405280601381526020017f61646472657373206f662063616c6c65723a200000000000000000000000000081525033610e1e565b60ff909116600090815260076020526040902055565b60006001600160e01b031982167f80ac58cd00000000000000000000000000000000000000000000000000000000148061044257506001600160e01b031982167f5b5e139f00000000000000000000000000000000000000000000000000000000145b8061047657507f01ffc9a7000000000000000000000000000000000000000000000000000000006001600160e01b03198316145b92915050565b60606000805461048b90611e3e565b80601f01602080910402602001604051908101604052809291908181526020018280546104b790611e3e565b80156105045780601f106104d957610100808354040283529160200191610504565b820191906000526020600020905b8154815290600101906020018083116104e757829003601f168201915b5050505050905090565b600061051982610e91565b506000908152600460205260409020546001600160a01b031690565b600061054082610a06565b9050806001600160a01b0316836001600160a01b031614156105cf5760405162461bcd60e51b815260206004820152602160248201527f4552433732313a20617070726f76616c20746f2063757272656e74206f776e6560448201527f720000000000000000000000000000000000000000000000000000000000000060648201526084015b60405180910390fd5b336001600160a01b03821614806105eb57506105eb813361035c565b61065d5760405162461bcd60e51b815260206004820152603e60248201527f4552433732313a20617070726f76652063616c6c6572206973206e6f7420746f60448201527f6b656e206f776e6572206e6f7220617070726f76656420666f7220616c6c000060648201526084016105c6565b6106678383610ef8565b505050565b6000818152600c60205260408120546060919067ffffffffffffffff81111561069757610697611c65565b6040519080825280602002602001820160405280156106ca57816020015b60608152602001906001900390816106b55790505b50905060005b6000848152600c602052604090205481101561074b576000848152600c60205260409020805461071b91908390811061070b5761070b611e73565b9060005260206000200154610d0d565b82828151811061072d5761072d611e73565b6020026020010181905250808061074390611e9f565b9150506106d0565b5092915050565b6001600160a01b0381166000908152600b60209081526040808320805482518185028101850190935280835260609492939192909184015b828210156108095783829060005260206000209060030201604051806060016040529081600082015481526020016001820160009054906101000a900460ff1660038111156107db576107db611b6f565b60038111156107ec576107ec611b6f565b81526020016002820154815250508152602001906001019061078a565b505050509050919050565b336000908152600b60209081526040918290208251606081019093528483529190810160ff8416600381111561084c5761084c611b6f565b600381111561085d5761085d611b6f565b81524260209182015282546001818101855560009485529382902083516003928302909101908155918301518285018054949593949193909260ff199092169184908111156108ae576108ae611b6f565b02179055506040820151816002015550505050565b6108cd3382610f73565b61093f5760405162461bcd60e51b815260206004820152602e60248201527f4552433732313a2063616c6c6572206973206e6f7420746f6b656e206f776e6560448201527f72206e6f7220617070726f76656400000000000000000000000000000000000060648201526084016105c6565b610667838383610ff1565b6060600060095467ffffffffffffffff81111561096957610969611c65565b60405190808252806020026020018201604052801561099c57816020015b60608152602001906001900390816109875790505b50905060005b6009548110156109e5576109b581610d0d565b8282815181106109c7576109c7611e73565b602002602001018190525080806109dd90611e9f565b9150506109a2565b50919050565b61066783838360405180602001604052806000815250610c7f565b6000818152600260205260408120546001600160a01b0316806104765760405162461bcd60e51b815260206004820152601860248201527f4552433732313a20696e76616c696420746f6b656e204944000000000000000060448201526064016105c6565b60006001600160a01b038216610ae95760405162461bcd60e51b815260206004820152602960248201527f4552433732313a2061646472657373207a65726f206973206e6f74206120766160448201527f6c6964206f776e6572000000000000000000000000000000000000000000000060648201526084016105c6565b506001600160a01b031660009081526003602052604090205490565b600a546000906001600160a01b03163314610b885760405162461bcd60e51b815260206004820152602960248201527f6f6e6c7920746865207265666f756e6420636f6e74726163742063616e206d6160448201527f6b65206120706f7374000000000000000000000000000000000000000000000060648201526084016105c6565b6009805460009182610b9983611e9f565b9190505590506000610baa866111cb565b610bb3836111cb565b86610bbd426111cb565b604051602001610bd09493929190611eba565b6040516020818303038152906040529050610beb84836112fd565b610bf58682611317565b610c366040518060400160405280600f81526020017f6d696e74656420706f7374204e465400000000000000000000000000000000008152508386846113c0565b506000858152600c602090815260408220805460018101825590835291200181905590509392505050565b60606001805461048b90611e3e565b610c7b338383611437565b5050565b610c893383610f73565b610cfb5760405162461bcd60e51b815260206004820152602e60248201527f4552433732313a2063616c6c6572206973206e6f7420746f6b656e206f776e6560448201527f72206e6f7220617070726f76656400000000000000000000000000000000000060648201526084016105c6565b610d0784848484611506565b50505050565b6060610d1882610e91565b60008281526006602052604081208054610d3190611e3e565b80601f0160208091040260200160405190810160405280929190818152602001828054610d5d90611e3e565b8015610daa5780601f10610d7f57610100808354040283529160200191610daa565b820191906000526020600020905b815481529060010190602001808311610d8d57829003601f168201915b505050505090506000610dc860408051602081019091526000815290565b9050805160001415610ddb575092915050565b815115610e0d578082604051602001610df5929190611fe3565b60405160208183030381529060405292505050919050565b610e1684611584565b949350505050565b610c7b8282604051602401610e34929190612012565b60408051601f198184030181529190526020810180517bffffffffffffffffffffffffffffffffffffffffffffffffffffffff167f319af333000000000000000000000000000000000000000000000000000000001790526115f8565b6000818152600260205260409020546001600160a01b0316610ef55760405162461bcd60e51b815260206004820152601860248201527f4552433732313a20696e76616c696420746f6b656e204944000000000000000060448201526064016105c6565b50565b6000818152600460205260409020805473ffffffffffffffffffffffffffffffffffffffff19166001600160a01b0384169081179091558190610f3a82610a06565b6001600160a01b03167f8c5be1e5ebec7d5bd14f71427d1e84f3dd0314c0f7b2291e5b200ac8c7c3b92560405160405180910390a45050565b600080610f7f83610a06565b9050806001600160a01b0316846001600160a01b03161480610fc657506001600160a01b0380821660009081526005602090815260408083209388168352929052205460ff165b80610e165750836001600160a01b0316610fdf8461050e565b6001600160a01b031614949350505050565b826001600160a01b031661100482610a06565b6001600160a01b0316146110805760405162461bcd60e51b815260206004820152602560248201527f4552433732313a207472616e736665722066726f6d20696e636f72726563742060448201527f6f776e657200000000000000000000000000000000000000000000000000000060648201526084016105c6565b6001600160a01b0382166110fb5760405162461bcd60e51b8152602060048201526024808201527f4552433732313a207472616e7366657220746f20746865207a65726f2061646460448201527f726573730000000000000000000000000000000000000000000000000000000060648201526084016105c6565b611106600082610ef8565b6001600160a01b038316600090815260036020526040812080546001929061112f90849061203d565b90915550506001600160a01b038216600090815260036020526040812080546001929061115d908490612054565b9091555050600081815260026020526040808220805473ffffffffffffffffffffffffffffffffffffffff19166001600160a01b0386811691821790925591518493918716917fddf252ad1be2c89b69c2b068fc378daa952ba7f163c4a11628f55a4df523b3ef91a4505050565b60608161120b57505060408051808201909152600181527f3000000000000000000000000000000000000000000000000000000000000000602082015290565b8160005b8115611235578061121f81611e9f565b915061122e9050600a83612082565b915061120f565b60008167ffffffffffffffff81111561125057611250611c65565b6040519080825280601f01601f19166020018201604052801561127a576020820181803683370190505b5090505b8415610e165761128f60018361203d565b915061129c600a86612096565b6112a7906030612054565b60f81b8183815181106112bc576112bc611e73565b60200101907effffffffffffffffffffffffffffffffffffffffffffffffffffffffffffff1916908160001a9053506112f6600a86612082565b945061127e565b610c7b828260405180602001604052806000815250611619565b6000828152600260205260409020546001600160a01b03166113a15760405162461bcd60e51b815260206004820152602e60248201527f45524337323155524953746f726167653a2055524920736574206f66206e6f6e60448201527f6578697374656e7420746f6b656e00000000000000000000000000000000000060648201526084016105c6565b600082815260066020908152604090912082516106679284019061192f565b610d07848484846040516024016113da94939291906120aa565b60408051601f198184030181529190526020810180517bffffffffffffffffffffffffffffffffffffffffffffffffffffffff167f9ffb2f93000000000000000000000000000000000000000000000000000000001790526115f8565b816001600160a01b0316836001600160a01b031614156114995760405162461bcd60e51b815260206004820152601960248201527f4552433732313a20617070726f766520746f2063616c6c65720000000000000060448201526064016105c6565b6001600160a01b03838116600081815260056020908152604080832094871680845294825291829020805460ff191686151590811790915591519182527f17307eab39ab6107e8899845ad3d59bd9653f200f220920489ca2b5937696c31910160405180910390a3505050565b611511848484610ff1565b61151d84848484611697565b610d075760405162461bcd60e51b815260206004820152603260248201527f4552433732313a207472616e7366657220746f206e6f6e20455243373231526560448201527131b2b4bb32b91034b6b83632b6b2b73a32b960711b60648201526084016105c6565b606061158f82610e91565b60006115a660408051602081019091526000815290565b905060008151116115c657604051806020016040528060008152506115f1565b806115d0846111cb565b6040516020016115e1929190611fe3565b6040516020818303038152906040525b9392505050565b80516a636f6e736f6c652e6c6f67602083016000808483855afa5050505050565b61162383836117e0565b6116306000848484611697565b6106675760405162461bcd60e51b815260206004820152603260248201527f4552433732313a207472616e7366657220746f206e6f6e20455243373231526560448201527131b2b4bb32b91034b6b83632b6b2b73a32b960711b60648201526084016105c6565b60006001600160a01b0384163b156117d557604051630a85bd0160e11b81526001600160a01b0385169063150b7a02906116db9033908990889088906004016120ef565b6020604051808303816000875af1925050508015611716575060408051601f3d908101601f191682019092526117139181019061212b565b60015b6117bb573d808015611744576040519150601f19603f3d011682016040523d82523d6000602084013e611749565b606091505b5080516117b35760405162461bcd60e51b815260206004820152603260248201527f4552433732313a207472616e7366657220746f206e6f6e20455243373231526560448201527131b2b4bb32b91034b6b83632b6b2b73a32b960711b60648201526084016105c6565b805181602001fd5b6001600160e01b031916630a85bd0160e11b149050610e16565b506001949350505050565b6001600160a01b0382166118365760405162461bcd60e51b815260206004820181905260248201527f4552433732313a206d696e7420746f20746865207a65726f206164647265737360448201526064016105c6565b6000818152600260205260409020546001600160a01b03161561189b5760405162461bcd60e51b815260206004820152601c60248201527f4552433732313a20746f6b656e20616c7265616479206d696e7465640000000060448201526064016105c6565b6001600160a01b03821660009081526003602052604081208054600192906118c4908490612054565b9091555050600081815260026020526040808220805473ffffffffffffffffffffffffffffffffffffffff19166001600160a01b03861690811790915590518392907fddf252ad1be2c89b69c2b068fc378daa952ba7f163c4a11628f55a4df523b3ef908290a45050565b82805461193b90611e3e565b90600052602060002090601f01602090048101928261195d57600085556119a3565b82601f1061197657805160ff19168380011785556119a3565b828001600101855582156119a3579182015b828111156119a3578251825591602001919060010190611988565b506119af9291506119b3565b5090565b5b808211156119af57600081556001016119b4565b803560ff811681146119d957600080fd5b919050565b600080604083850312156119f157600080fd5b6119fa836119c8565b946020939093013593505050565b6001600160e01b031981168114610ef557600080fd5b600060208284031215611a3057600080fd5b81356115f181611a08565b60005b83811015611a56578181015183820152602001611a3e565b83811115610d075750506000910152565b60008151808452611a7f816020860160208601611a3b565b601f01601f19169290920160200192915050565b6020815260006115f16020830184611a67565b600060208284031215611ab857600080fd5b5035919050565b80356001600160a01b03811681146119d957600080fd5b60008060408385031215611ae957600080fd5b6119fa83611abf565b6000602080830181845280855180835260408601915060408160051b870101925083870160005b82811015611b4757603f19888603018452611b35858351611a67565b94509285019290850190600101611b19565b5092979650505050505050565b600060208284031215611b6657600080fd5b6115f182611abf565b634e487b7160e01b600052602160045260246000fd5b60208082528251828201819052600091906040908185019086840185805b83811015611bef57825180518652878101516004808210611bd157634e487b7160e01b855260218152602485fd5b50868901528601518686015260609094019391860191600101611ba3565b509298975050505050505050565b60008060408385031215611c1057600080fd5b82359150611c20602084016119c8565b90509250929050565b600080600060608486031215611c3e57600080fd5b611c4784611abf565b9250611c5560208501611abf565b9150604084013590509250925092565b634e487b7160e01b600052604160045260246000fd5b600067ffffffffffffffff80841115611c9657611c96611c65565b604051601f8501601f19908116603f01168101908282118183101715611cbe57611cbe611c65565b81604052809350858152868686011115611cd757600080fd5b858560208301376000602087830101525050509392505050565b600080600060608486031215611d0657600080fd5b83359250602084013567ffffffffffffffff811115611d2457600080fd5b8401601f81018613611d3557600080fd5b611d4486823560208401611c7b565b925050611d5360408501611abf565b90509250925092565b60008060408385031215611d6f57600080fd5b611d7883611abf565b915060208301358015158114611d8d57600080fd5b809150509250929050565b60008060008060808587031215611dae57600080fd5b611db785611abf565b9350611dc560208601611abf565b925060408501359150606085013567ffffffffffffffff811115611de857600080fd5b8501601f81018713611df957600080fd5b611e0887823560208401611c7b565b91505092959194509250565b60008060408385031215611e2757600080fd5b611e3083611abf565b9150611c2060208401611abf565b600181811c90821680611e5257607f821691505b602082108114156109e557634e487b7160e01b600052602260045260246000fd5b634e487b7160e01b600052603260045260246000fd5b634e487b7160e01b600052601160045260246000fd5b6000600019821415611eb357611eb3611e89565b5060010190565b7f7b22706f737465724964223a2000000000000000000000000000000000000000815260008551611ef281600d850160208a01611a3b565b7f2c2022706f73744964223a200000000000000000000000000000000000000000600d918401918201528551611f2f816019840160208a01611a3b565b7f2c2022706f737444617461223a20000000000000000000000000000000000000601992909101918201528451611f6d816027840160208901611a3b565b7f2c2022637265617465644174223a200000000000000000000000000000000000602792909101918201528351611fab816036840160208801611a3b565b7f7d00000000000000000000000000000000000000000000000000000000000000603692909101918201526037019695505050505050565b60008351611ff5818460208801611a3b565b835190830190612009818360208801611a3b565b01949350505050565b6040815260006120256040830185611a67565b90506001600160a01b03831660208301529392505050565b60008282101561204f5761204f611e89565b500390565b6000821982111561206757612067611e89565b500190565b634e487b7160e01b600052601260045260246000fd5b6000826120915761209161206c565b500490565b6000826120a5576120a561206c565b500690565b6080815260006120bd6080830187611a67565b8560208401526001600160a01b038516604084015282810360608401526120e48185611a67565b979650505050505050565b60006001600160a01b038087168352808616602084015250836040830152608060608301526121216080830184611a67565b9695505050505050565b60006020828403121561213d57600080fd5b81516115f181611a0856fea2646970667358221220a0b056b9ac61a690f2cab961fbc35b1ff889daf92bf75c197210e2bc4bfcfeb364736f6c634300080a0033",
    "linkReferences": {},
    "deployedLinkReferences": {}
}