{
    "_format": "hh-sol-artifact-1",
    "contractName": "Refound",
    "sourceName": "contracts/Refound.sol",
    "abi": [
        {
            "inputs": [],
            "stateMutability": "nonpayable",
            "type": "constructor"
        },
        {
            "anonymous": false,
            "inputs": [
                {
                    "indexed": true,
                    "internalType": "address",
                    "name": "owner",
                    "type": "address"
                },
                {
                    "indexed": true,
                    "internalType": "address",
                    "name": "approved",
                    "type": "address"
                },
                {
                    "indexed": true,
                    "internalType": "uint256",
                    "name": "tokenId",
                    "type": "uint256"
                }
            ],
            "name": "Approval",
            "type": "event"
        },
        {
            "anonymous": false,
            "inputs": [
                {
                    "indexed": true,
                    "internalType": "address",
                    "name": "owner",
                    "type": "address"
                },
                {
                    "indexed": true,
                    "internalType": "address",
                    "name": "operator",
                    "type": "address"
                },
                {
                    "indexed": false,
                    "internalType": "bool",
                    "name": "approved",
                    "type": "bool"
                }
            ],
            "name": "ApprovalForAll",
            "type": "event"
        },
        {
            "anonymous": false,
            "inputs": [
                {
                    "indexed": true,
                    "internalType": "address",
                    "name": "from",
                    "type": "address"
                },
                {
                    "indexed": true,
                    "internalType": "address",
                    "name": "to",
                    "type": "address"
                },
                {
                    "indexed": true,
                    "internalType": "uint256",
                    "name": "tokenId",
                    "type": "uint256"
                }
            ],
            "name": "Transfer",
            "type": "event"
        },
        {
            "inputs": [
                {
                    "internalType": "address",
                    "name": "to",
                    "type": "address"
                },
                {
                    "internalType": "uint256",
                    "name": "tokenId",
                    "type": "uint256"
                }
            ],
            "name": "approve",
            "outputs": [],
            "stateMutability": "nonpayable",
            "type": "function"
        },
        {
            "inputs": [
                {
                    "internalType": "address",
                    "name": "owner",
                    "type": "address"
                }
            ],
            "name": "balanceOf",
            "outputs": [
                {
                    "internalType": "uint256",
                    "name": "",
                    "type": "uint256"
                }
            ],
            "stateMutability": "view",
            "type": "function"
        },
        {
            "inputs": [
                {
                    "internalType": "address",
                    "name": "_postContract",
                    "type": "address"
                }
            ],
            "name": "changeAddresses",
            "outputs": [],
            "stateMutability": "nonpayable",
            "type": "function"
        },
        {
            "inputs": [],
            "name": "getAllRefoundProfiles",
            "outputs": [
                {
                    "internalType": "string[]",
                    "name": "",
                    "type": "string[]"
                }
            ],
            "stateMutability": "view",
            "type": "function"
        },
        {
            "inputs": [
                {
                    "internalType": "uint256",
                    "name": "tokenId",
                    "type": "uint256"
                }
            ],
            "name": "getApproved",
            "outputs": [
                {
                    "internalType": "address",
                    "name": "",
                    "type": "address"
                }
            ],
            "stateMutability": "view",
            "type": "function"
        },
        {
            "inputs": [
                {
                    "internalType": "address",
                    "name": "account",
                    "type": "address"
                }
            ],
            "name": "getRefoundProfile",
            "outputs": [
                {
                    "internalType": "bool",
                    "name": "_profileExists",
                    "type": "bool"
                },
                {
                    "internalType": "string",
                    "name": "_profileUri",
                    "type": "string"
                },
                {
                    "internalType": "uint256",
                    "name": "_profileId",
                    "type": "uint256"
                }
            ],
            "stateMutability": "view",
            "type": "function"
        },
        {
            "inputs": [
                {
                    "internalType": "address",
                    "name": "owner",
                    "type": "address"
                },
                {
                    "internalType": "address",
                    "name": "operator",
                    "type": "address"
                }
            ],
            "name": "isApprovedForAll",
            "outputs": [
                {
                    "internalType": "bool",
                    "name": "",
                    "type": "bool"
                }
            ],
            "stateMutability": "view",
            "type": "function"
        },
        {
            "inputs": [
                {
                    "internalType": "uint256",
                    "name": "profileID",
                    "type": "uint256"
                },
                {
                    "internalType": "string",
                    "name": "postData",
                    "type": "string"
                }
            ],
            "name": "makeRefoundPost",
            "outputs": [
                {
                    "internalType": "uint256",
                    "name": "_postId",
                    "type": "uint256"
                }
            ],
            "stateMutability": "nonpayable",
            "type": "function"
        },
        {
            "inputs": [
                {
                    "internalType": "string",
                    "name": "handle",
                    "type": "string"
                },
                {
                    "internalType": "string",
                    "name": "profileData",
                    "type": "string"
                }
            ],
            "name": "makeRefoundProfile",
            "outputs": [
                {
                    "internalType": "uint256",
                    "name": "_profileId",
                    "type": "uint256"
                }
            ],
            "stateMutability": "nonpayable",
            "type": "function"
        },
        {
            "inputs": [],
            "name": "name",
            "outputs": [
                {
                    "internalType": "string",
                    "name": "",
                    "type": "string"
                }
            ],
            "stateMutability": "view",
            "type": "function"
        },
        {
            "inputs": [],
            "name": "owner",
            "outputs": [
                {
                    "internalType": "address",
                    "name": "",
                    "type": "address"
                }
            ],
            "stateMutability": "view",
            "type": "function"
        },
        {
            "inputs": [
                {
                    "internalType": "uint256",
                    "name": "tokenId",
                    "type": "uint256"
                }
            ],
            "name": "ownerOf",
            "outputs": [
                {
                    "internalType": "address",
                    "name": "",
                    "type": "address"
                }
            ],
            "stateMutability": "view",
            "type": "function"
        },
        {
            "inputs": [],
            "name": "postContract",
            "outputs": [
                {
                    "internalType": "contract RefoundPost",
                    "name": "",
                    "type": "address"
                }
            ],
            "stateMutability": "view",
            "type": "function"
        },
        {
            "inputs": [],
            "name": "profiles",
            "outputs": [
                {
                    "internalType": "uint256",
                    "name": "",
                    "type": "uint256"
                }
            ],
            "stateMutability": "view",
            "type": "function"
        },
        {
            "inputs": [
                {
                    "internalType": "address",
                    "name": "",
                    "type": "address"
                }
            ],
            "name": "profilesByWallet",
            "outputs": [
                {
                    "internalType": "uint256",
                    "name": "",
                    "type": "uint256"
                }
            ],
            "stateMutability": "view",
            "type": "function"
        },
        {
            "inputs": [
                {
                    "internalType": "address",
                    "name": "from",
                    "type": "address"
                },
                {
                    "internalType": "address",
                    "name": "to",
                    "type": "address"
                },
                {
                    "internalType": "uint256",
                    "name": "tokenId",
                    "type": "uint256"
                }
            ],
            "name": "safeTransferFrom",
            "outputs": [],
            "stateMutability": "nonpayable",
            "type": "function"
        },
        {
            "inputs": [
                {
                    "internalType": "address",
                    "name": "from",
                    "type": "address"
                },
                {
                    "internalType": "address",
                    "name": "to",
                    "type": "address"
                },
                {
                    "internalType": "uint256",
                    "name": "tokenId",
                    "type": "uint256"
                },
                {
                    "internalType": "bytes",
                    "name": "data",
                    "type": "bytes"
                }
            ],
            "name": "safeTransferFrom",
            "outputs": [],
            "stateMutability": "nonpayable",
            "type": "function"
        },
        {
            "inputs": [
                {
                    "internalType": "address",
                    "name": "operator",
                    "type": "address"
                },
                {
                    "internalType": "bool",
                    "name": "approved",
                    "type": "bool"
                }
            ],
            "name": "setApprovalForAll",
            "outputs": [],
            "stateMutability": "nonpayable",
            "type": "function"
        },
        {
            "inputs": [
                {
                    "internalType": "bytes4",
                    "name": "interfaceId",
                    "type": "bytes4"
                }
            ],
            "name": "supportsInterface",
            "outputs": [
                {
                    "internalType": "bool",
                    "name": "",
                    "type": "bool"
                }
            ],
            "stateMutability": "view",
            "type": "function"
        },
        {
            "inputs": [],
            "name": "symbol",
            "outputs": [
                {
                    "internalType": "string",
                    "name": "",
                    "type": "string"
                }
            ],
            "stateMutability": "view",
            "type": "function"
        },
        {
            "inputs": [
                {
                    "internalType": "uint256",
                    "name": "tokenId",
                    "type": "uint256"
                }
            ],
            "name": "tokenURI",
            "outputs": [
                {
                    "internalType": "string",
                    "name": "",
                    "type": "string"
                }
            ],
            "stateMutability": "view",
            "type": "function"
        },
        {
            "inputs": [
                {
                    "internalType": "address",
                    "name": "from",
                    "type": "address"
                },
                {
                    "internalType": "address",
                    "name": "to",
                    "type": "address"
                },
                {
                    "internalType": "uint256",
                    "name": "tokenId",
                    "type": "uint256"
                }
            ],
            "name": "transferFrom",
            "outputs": [],
            "stateMutability": "nonpayable",
            "type": "function"
        },
        {
            "inputs": [
                {
                    "internalType": "string",
                    "name": "handle",
                    "type": "string"
                },
                {
                    "internalType": "string",
                    "name": "profileData",
                    "type": "string"
                }
            ],
            "name": "updateRefoundProfile",
            "outputs": [
                {
                    "internalType": "uint256",
                    "name": "profileId",
                    "type": "uint256"
                }
            ],
            "stateMutability": "nonpayable",
            "type": "function"
        }
    ],
    "bytecode": "0x60806040523480156200001157600080fd5b50604080518082018252600b81526a2932b337bab7322ab9b2b960a91b602080830191825283518085019094526006845265464f554e445560d01b908401528151919291620000639160009162000099565b5080516200007990600190602084019062000099565b5050600060075550600880546001600160a01b031916331790556200017c565b828054620000a7906200013f565b90600052602060002090601f016020900481019282620000cb576000855562000116565b82601f10620000e657805160ff191683800117855562000116565b8280016001018555821562000116579182015b8281111562000116578251825591602001919060010190620000f9565b506200012492915062000128565b5090565b5b8082111562000124576000815560010162000129565b600181811c908216806200015457607f821691505b602082108114156200017657634e487b7160e01b600052602260045260246000fd5b50919050565b612102806200018c6000396000f3fe608060405234801561001057600080fd5b506004361061018d5760003560e01c80636352211e116100e357806395d89b411161008c578063c87b56dd11610066578063c87b56dd14610356578063dd8c550614610369578063e985e9c51461037c57600080fd5b806395d89b4114610328578063a22cb46514610330578063b88d4fde1461034357600080fd5b80637d07a543116100bd5780637d07a543146102e05780638bb83846146103025780638da5cb5b1461031557600080fd5b80636352211e146102a757806364428894146102ba57806370a08231146102cd57600080fd5b80630ae728171161014557806342842e0e1161011f57806342842e0e14610278578063495057cf1461028b5780634ad651061461029457600080fd5b80630ae728171461022457806323b872dd14610245578063371c9a6f1461025857600080fd5b806306fdde031161017657806306fdde03146101cf578063081812fc146101e4578063095ea7b31461020f57600080fd5b806301ffc9a71461019257806305e5f10c146101ba575b600080fd5b6101a56101a0366004611a42565b6103b8565b60405190151581526020015b60405180910390f35b6101c2610455565b6040516101b19190611ab7565b6101d76104f6565b6040516101b19190611b19565b6101f76101f2366004611b2c565b610588565b6040516001600160a01b0390911681526020016101b1565b61022261021d366004611b5a565b6105af565b005b610237610232366004611c32565b6106e6565b6040519081526020016101b1565b610222610253366004611c96565b6107ad565b610237610266366004611cd7565b600a6020526000908152604090205481565b610222610286366004611c96565b610834565b61023760075481565b6009546101f7906001600160a01b031681565b6101f76102b5366004611b2c565b61084f565b6102226102c8366004611cd7565b6108b4565b6102376102db366004611cd7565b610963565b6102f36102ee366004611cd7565b6109fd565b6040516101b193929190611cf4565b610237610310366004611c32565b610a8a565b6008546101f7906001600160a01b031681565b6101d7610bb4565b61022261033e366004611d1f565b610bc3565b610222610351366004611d5d565b610bd2565b6101d7610364366004611b2c565b610c60565b610237610377366004611ddd565b610d71565b6101a561038a366004611e1a565b6001600160a01b03918216600090815260056020908152604080832093909416825291909152205460ff1690565b60006001600160e01b031982167f80ac58cd00000000000000000000000000000000000000000000000000000000148061041b57506001600160e01b031982167f5b5e139f00000000000000000000000000000000000000000000000000000000145b8061044f57507f01ffc9a7000000000000000000000000000000000000000000000000000000006001600160e01b03198316145b92915050565b6060600060075467ffffffffffffffff81111561047457610474611b86565b6040519080825280602002602001820160405280156104a757816020015b60608152602001906001900390816104925790505b50905060005b6007548110156104f0576104c081610c60565b8282815181106104d2576104d2611e48565b602002602001018190525080806104e890611e74565b9150506104ad565b50919050565b60606000805461050590611e8f565b80601f016020809104026020016040519081016040528092919081815260200182805461053190611e8f565b801561057e5780601f106105535761010080835404028352916020019161057e565b820191906000526020600020905b81548152906001019060200180831161056157829003601f168201915b5050505050905090565b600061059382610f02565b506000908152600460205260409020546001600160a01b031690565b60006105ba8261084f565b9050806001600160a01b0316836001600160a01b031614156106495760405162461bcd60e51b815260206004820152602160248201527f4552433732313a20617070726f76616c20746f2063757272656e74206f776e6560448201527f720000000000000000000000000000000000000000000000000000000000000060648201526084015b60405180910390fd5b336001600160a01b03821614806106655750610665813361038a565b6106d75760405162461bcd60e51b815260206004820152603e60248201527f4552433732313a20617070726f76652063616c6c6572206973206e6f7420746f60448201527f6b656e206f776e6572206e6f7220617070726f76656420666f7220616c6c00006064820152608401610640565b6106e18383610f69565b505050565b60006106f133610fe4565b60c88351106107425760405162461bcd60e51b815260206004820152600e60248201527f68616e646c6520746f206c6f6e670000000000000000000000000000000000006044820152606401610640565b600780546000918261075383611e74565b9190505590506000848460405160200161076e929190611ec4565b60405160208183030381529060405290506107893383611070565b610793828261108a565b50336000908152600a602052604090208190559392505050565b6107b73382611133565b6108295760405162461bcd60e51b815260206004820152602e60248201527f4552433732313a2063616c6c6572206973206e6f7420746f6b656e206f776e6560448201527f72206e6f7220617070726f7665640000000000000000000000000000000000006064820152608401610640565b6106e18383836111b1565b6106e183838360405180602001604052806000815250610bd2565b6000818152600260205260408120546001600160a01b03168061044f5760405162461bcd60e51b815260206004820152601860248201527f4552433732313a20696e76616c696420746f6b656e20494400000000000000006044820152606401610640565b6008546001600160a01b031633146109345760405162461bcd60e51b815260206004820152602e60248201527f6f6e6c792074686520636f6e7472616374206f776e65722063616e2063616c6c60448201527f20746869732066756e6374696f6e0000000000000000000000000000000000006064820152608401610640565b6009805473ffffffffffffffffffffffffffffffffffffffff19166001600160a01b0392909216919091179055565b60006001600160a01b0382166109e15760405162461bcd60e51b815260206004820152602960248201527f4552433732313a2061646472657373207a65726f206973206e6f74206120766160448201527f6c6964206f776e657200000000000000000000000000000000000000000000006064820152608401610640565b506001600160a01b031660009081526003602052604090205490565b6001600160a01b0381166000908152600a6020526040812054606090829080610a3c575050604080516020810190915260008082529250905081610a83565b6001600160a01b0385166000908152600a6020526040902054600190610a6190610c60565b6001600160a01b0387166000908152600a602052604090205491955093509150505b9193909250565b336000908152600a6020526040812054610b0c5760405162461bcd60e51b815260206004820152602260248201527f4e6f2070726f66696c652065786973747320666f72207468697320616464726560448201527f73730000000000000000000000000000000000000000000000000000000000006064820152608401610640565b60c8835110610b5d5760405162461bcd60e51b815260206004820152600e60248201527f68616e646c6520746f206c6f6e670000000000000000000000000000000000006044820152606401610640565b60008383604051602001610b72929190611ec4565b60408051601f19818403018152918152336000908152600a6020522054909150610b9c908261108a565b5050336000908152600a602052604090205492915050565b60606001805461050590611e8f565b610bce33838361138b565b5050565b610bdc3383611133565b610c4e5760405162461bcd60e51b815260206004820152602e60248201527f4552433732313a2063616c6c6572206973206e6f7420746f6b656e206f776e6560448201527f72206e6f7220617070726f7665640000000000000000000000000000000000006064820152608401610640565b610c5a8484848461145a565b50505050565b6060610c6b82610f02565b60008281526006602052604081208054610c8490611e8f565b80601f0160208091040260200160405190810160405280929190818152602001828054610cb090611e8f565b8015610cfd5780601f10610cd257610100808354040283529160200191610cfd565b820191906000526020600020905b815481529060010190602001808311610ce057829003601f168201915b505050505090506000610d1b60408051602081019091526000815290565b9050805160001415610d2e575092915050565b815115610d60578082604051602001610d48929190611f6f565b60405160208183030381529060405292505050919050565b610d69846114d8565b949350505050565b6040517f6352211e0000000000000000000000000000000000000000000000000000000081526004810183905260009033903090636352211e90602401602060405180830381865afa158015610dcb573d6000803e3d6000fd5b505050506040513d601f19601f82011682018060405250810190610def9190611f9e565b6001600160a01b031614610e6b5760405162461bcd60e51b815260206004820152603060248201527f796f75206e65656420746f206f776e20612070726f66696c6520746f206d616b60448201527f65206120706f73742066726f6d206974000000000000000000000000000000006064820152608401610640565b6009546040517f7efca41f0000000000000000000000000000000000000000000000000000000081526001600160a01b0390911690637efca41f90610eb890869086903390600401611fbb565b6020604051808303816000875af1158015610ed7573d6000803e3d6000fd5b505050506040513d601f19601f82011682018060405250810190610efb9190611fed565b9392505050565b6000818152600260205260409020546001600160a01b0316610f665760405162461bcd60e51b815260206004820152601860248201527f4552433732313a20696e76616c696420746f6b656e20494400000000000000006044820152606401610640565b50565b6000818152600460205260409020805473ffffffffffffffffffffffffffffffffffffffff19166001600160a01b0384169081179091558190610fab8261084f565b6001600160a01b03167f8c5be1e5ebec7d5bd14f71427d1e84f3dd0314c0f7b2291e5b200ac8c7c3b92560405160405180910390a45050565b6001600160a01b0381166000908152600a602052604090205415610f665760405162461bcd60e51b815260206004820152602a60248201527f416e206163636f756e7420616c72656164792065786973747320666f7220746860448201527f69732077616c6c65742e000000000000000000000000000000000000000000006064820152608401610640565b610bce82826040518060200160405280600081525061154b565b6000828152600260205260409020546001600160a01b03166111145760405162461bcd60e51b815260206004820152602e60248201527f45524337323155524953746f726167653a2055524920736574206f66206e6f6e60448201527f6578697374656e7420746f6b656e0000000000000000000000000000000000006064820152608401610640565b600082815260066020908152604090912082516106e192840190611993565b60008061113f8361084f565b9050806001600160a01b0316846001600160a01b0316148061118657506001600160a01b0380821660009081526005602090815260408083209388168352929052205460ff165b80610d695750836001600160a01b031661119f84610588565b6001600160a01b031614949350505050565b826001600160a01b03166111c48261084f565b6001600160a01b0316146112405760405162461bcd60e51b815260206004820152602560248201527f4552433732313a207472616e736665722066726f6d20696e636f72726563742060448201527f6f776e65720000000000000000000000000000000000000000000000000000006064820152608401610640565b6001600160a01b0382166112bb5760405162461bcd60e51b8152602060048201526024808201527f4552433732313a207472616e7366657220746f20746865207a65726f2061646460448201527f72657373000000000000000000000000000000000000000000000000000000006064820152608401610640565b6112c6600082610f69565b6001600160a01b03831660009081526003602052604081208054600192906112ef908490612006565b90915550506001600160a01b038216600090815260036020526040812080546001929061131d90849061201d565b9091555050600081815260026020526040808220805473ffffffffffffffffffffffffffffffffffffffff19166001600160a01b0386811691821790925591518493918716917fddf252ad1be2c89b69c2b068fc378daa952ba7f163c4a11628f55a4df523b3ef91a4505050565b816001600160a01b0316836001600160a01b031614156113ed5760405162461bcd60e51b815260206004820152601960248201527f4552433732313a20617070726f766520746f2063616c6c6572000000000000006044820152606401610640565b6001600160a01b03838116600081815260056020908152604080832094871680845294825291829020805460ff191686151590811790915591519182527f17307eab39ab6107e8899845ad3d59bd9653f200f220920489ca2b5937696c31910160405180910390a3505050565b6114658484846111b1565b611471848484846115c9565b610c5a5760405162461bcd60e51b815260206004820152603260248201527f4552433732313a207472616e7366657220746f206e6f6e20455243373231526560448201527131b2b4bb32b91034b6b83632b6b2b73a32b960711b6064820152608401610640565b60606114e382610f02565b60006114fa60408051602081019091526000815290565b9050600081511161151a5760405180602001604052806000815250610efb565b8061152484611712565b604051602001611535929190611f6f565b6040516020818303038152906040529392505050565b6115558383611844565b61156260008484846115c9565b6106e15760405162461bcd60e51b815260206004820152603260248201527f4552433732313a207472616e7366657220746f206e6f6e20455243373231526560448201527131b2b4bb32b91034b6b83632b6b2b73a32b960711b6064820152608401610640565b60006001600160a01b0384163b1561170757604051630a85bd0160e11b81526001600160a01b0385169063150b7a029061160d903390899088908890600401612035565b6020604051808303816000875af1925050508015611648575060408051601f3d908101601f1916820190925261164591810190612071565b60015b6116ed573d808015611676576040519150601f19603f3d011682016040523d82523d6000602084013e61167b565b606091505b5080516116e55760405162461bcd60e51b815260206004820152603260248201527f4552433732313a207472616e7366657220746f206e6f6e20455243373231526560448201527131b2b4bb32b91034b6b83632b6b2b73a32b960711b6064820152608401610640565b805181602001fd5b6001600160e01b031916630a85bd0160e11b149050610d69565b506001949350505050565b60608161175257505060408051808201909152600181527f3000000000000000000000000000000000000000000000000000000000000000602082015290565b8160005b811561177c578061176681611e74565b91506117759050600a836120a4565b9150611756565b60008167ffffffffffffffff81111561179757611797611b86565b6040519080825280601f01601f1916602001820160405280156117c1576020820181803683370190505b5090505b8415610d69576117d6600183612006565b91506117e3600a866120b8565b6117ee90603061201d565b60f81b81838151811061180357611803611e48565b60200101907effffffffffffffffffffffffffffffffffffffffffffffffffffffffffffff1916908160001a90535061183d600a866120a4565b94506117c5565b6001600160a01b03821661189a5760405162461bcd60e51b815260206004820181905260248201527f4552433732313a206d696e7420746f20746865207a65726f20616464726573736044820152606401610640565b6000818152600260205260409020546001600160a01b0316156118ff5760405162461bcd60e51b815260206004820152601c60248201527f4552433732313a20746f6b656e20616c7265616479206d696e746564000000006044820152606401610640565b6001600160a01b038216600090815260036020526040812080546001929061192890849061201d565b9091555050600081815260026020526040808220805473ffffffffffffffffffffffffffffffffffffffff19166001600160a01b03861690811790915590518392907fddf252ad1be2c89b69c2b068fc378daa952ba7f163c4a11628f55a4df523b3ef908290a45050565b82805461199f90611e8f565b90600052602060002090601f0160209004810192826119c15760008555611a07565b82601f106119da57805160ff1916838001178555611a07565b82800160010185558215611a07579182015b82811115611a075782518255916020019190600101906119ec565b50611a13929150611a17565b5090565b5b80821115611a135760008155600101611a18565b6001600160e01b031981168114610f6657600080fd5b600060208284031215611a5457600080fd5b8135610efb81611a2c565b60005b83811015611a7a578181015183820152602001611a62565b83811115610c5a5750506000910152565b60008151808452611aa3816020860160208601611a5f565b601f01601f19169290920160200192915050565b6000602080830181845280855180835260408601915060408160051b870101925083870160005b82811015611b0c57603f19888603018452611afa858351611a8b565b94509285019290850190600101611ade565b5092979650505050505050565b602081526000610efb6020830184611a8b565b600060208284031215611b3e57600080fd5b5035919050565b6001600160a01b0381168114610f6657600080fd5b60008060408385031215611b6d57600080fd5b8235611b7881611b45565b946020939093013593505050565b634e487b7160e01b600052604160045260246000fd5b600067ffffffffffffffff80841115611bb757611bb7611b86565b604051601f8501601f19908116603f01168101908282118183101715611bdf57611bdf611b86565b81604052809350858152868686011115611bf857600080fd5b858560208301376000602087830101525050509392505050565b600082601f830112611c2357600080fd5b610efb83833560208501611b9c565b60008060408385031215611c4557600080fd5b823567ffffffffffffffff80821115611c5d57600080fd5b611c6986838701611c12565b93506020850135915080821115611c7f57600080fd5b50611c8c85828601611c12565b9150509250929050565b600080600060608486031215611cab57600080fd5b8335611cb681611b45565b92506020840135611cc681611b45565b929592945050506040919091013590565b600060208284031215611ce957600080fd5b8135610efb81611b45565b8315158152606060208201526000611d0f6060830185611a8b565b9050826040830152949350505050565b60008060408385031215611d3257600080fd5b8235611d3d81611b45565b915060208301358015158114611d5257600080fd5b809150509250929050565b60008060008060808587031215611d7357600080fd5b8435611d7e81611b45565b93506020850135611d8e81611b45565b925060408501359150606085013567ffffffffffffffff811115611db157600080fd5b8501601f81018713611dc257600080fd5b611dd187823560208401611b9c565b91505092959194509250565b60008060408385031215611df057600080fd5b82359150602083013567ffffffffffffffff811115611e0e57600080fd5b611c8c85828601611c12565b60008060408385031215611e2d57600080fd5b8235611e3881611b45565b91506020830135611d5281611b45565b634e487b7160e01b600052603260045260246000fd5b634e487b7160e01b600052601160045260246000fd5b6000600019821415611e8857611e88611e5e565b5060010190565b600181811c90821680611ea357607f821691505b602082108114156104f057634e487b7160e01b600052602260045260246000fd5b7f7b2268616e646c65223a20220000000000000000000000000000000000000000815260008351611efc81600c850160208801611a5f565b7f222c202270726f66696c6544617461223a200000000000000000000000000000600c918401918201528351611f3981601e840160208801611a5f565b7f7d00000000000000000000000000000000000000000000000000000000000000601e9290910191820152601f01949350505050565b60008351611f81818460208801611a5f565b835190830190611f95818360208801611a5f565b01949350505050565b600060208284031215611fb057600080fd5b8151610efb81611b45565b838152606060208201526000611fd46060830185611a8b565b90506001600160a01b0383166040830152949350505050565b600060208284031215611fff57600080fd5b5051919050565b60008282101561201857612018611e5e565b500390565b6000821982111561203057612030611e5e565b500190565b60006001600160a01b038087168352808616602084015250836040830152608060608301526120676080830184611a8b565b9695505050505050565b60006020828403121561208357600080fd5b8151610efb81611a2c565b634e487b7160e01b600052601260045260246000fd5b6000826120b3576120b361208e565b500490565b6000826120c7576120c761208e565b50069056fea26469706673582212206ee8e4c1de9ee60b3f9e2dabe9d442f0018d28bfeed25cff7de41b4ef2d954c164736f6c634300080a0033",
    "linkReferences": {},
    "deployedLinkReferences": {}
}