{
  "_format": "hh-sol-artifact-1",
  "contractName": "Refound",
  "sourceName": "contracts/Refound.sol",
  "abi": [
    {
      "inputs": [],
      "stateMutability": "nonpayable",
      "type": "constructor"
    },
    {
      "anonymous": false,
      "inputs": [
        {
          "indexed": false,
          "internalType": "address",
          "name": "contractAddress",
          "type": "address"
        }
      ],
      "name": "AddressChange",
      "type": "event"
    },
    {
      "anonymous": false,
      "inputs": [
        {
          "indexed": true,
          "internalType": "address",
          "name": "owner",
          "type": "address"
        },
        {
          "indexed": true,
          "internalType": "address",
          "name": "approved",
          "type": "address"
        },
        {
          "indexed": true,
          "internalType": "uint256",
          "name": "tokenId",
          "type": "uint256"
        }
      ],
      "name": "Approval",
      "type": "event"
    },
    {
      "anonymous": false,
      "inputs": [
        {
          "indexed": true,
          "internalType": "address",
          "name": "owner",
          "type": "address"
        },
        {
          "indexed": true,
          "internalType": "address",
          "name": "operator",
          "type": "address"
        },
        {
          "indexed": false,
          "internalType": "bool",
          "name": "approved",
          "type": "bool"
        }
      ],
      "name": "ApprovalForAll",
      "type": "event"
    },
    {
      "anonymous": false,
      "inputs": [
        {
          "indexed": true,
          "internalType": "address",
          "name": "previousOwner",
          "type": "address"
        },
        {
          "indexed": true,
          "internalType": "address",
          "name": "newOwner",
          "type": "address"
        }
      ],
      "name": "OwnershipTransferred",
      "type": "event"
    },
    {
      "anonymous": false,
      "inputs": [
        {
          "indexed": true,
          "internalType": "address",
          "name": "from",
          "type": "address"
        },
        {
          "indexed": true,
          "internalType": "uint256",
          "name": "profileID",
          "type": "uint256"
        },
        {
          "indexed": false,
          "internalType": "uint256",
          "name": "postID",
          "type": "uint256"
        }
      ],
      "name": "PostCreated",
      "type": "event"
    },
    {
      "anonymous": false,
      "inputs": [
        {
          "indexed": true,
          "internalType": "address",
          "name": "caller",
          "type": "address"
        },
        {
          "indexed": true,
          "internalType": "uint256",
          "name": "profileID",
          "type": "uint256"
        },
        {
          "indexed": false,
          "internalType": "string",
          "name": "handle",
          "type": "string"
        }
      ],
      "name": "ProfileCreated",
      "type": "event"
    },
    {
      "anonymous": false,
      "inputs": [
        {
          "indexed": true,
          "internalType": "address",
          "name": "caller",
          "type": "address"
        },
        {
          "indexed": true,
          "internalType": "uint256",
          "name": "profileID",
          "type": "uint256"
        },
        {
          "indexed": false,
          "internalType": "string",
          "name": "handle",
          "type": "string"
        }
      ],
      "name": "ProfileUpdated",
      "type": "event"
    },
    {
      "anonymous": false,
      "inputs": [
        {
          "indexed": true,
          "internalType": "address",
          "name": "from",
          "type": "address"
        },
        {
          "indexed": true,
          "internalType": "address",
          "name": "to",
          "type": "address"
        },
        {
          "indexed": true,
          "internalType": "uint256",
          "name": "tokenId",
          "type": "uint256"
        }
      ],
      "name": "Transfer",
      "type": "event"
    },
    {
      "anonymous": false,
      "inputs": [
        {
          "indexed": true,
          "internalType": "uint256",
          "name": "profileID",
          "type": "uint256"
        },
        {
          "indexed": false,
          "internalType": "uint8",
          "name": "level",
          "type": "uint8"
        }
      ],
      "name": "VerificationLevelChanged",
      "type": "event"
    },
    {
      "inputs": [
        {
          "internalType": "bytes32",
          "name": "",
          "type": "bytes32"
        }
      ],
      "name": "ProfileIDByHandle",
      "outputs": [
        {
          "internalType": "uint256",
          "name": "",
          "type": "uint256"
        }
      ],
      "stateMutability": "view",
      "type": "function"
    },
    {
      "inputs": [
        {
          "internalType": "address",
          "name": "to",
          "type": "address"
        },
        {
          "internalType": "uint256",
          "name": "tokenId",
          "type": "uint256"
        }
      ],
      "name": "approve",
      "outputs": [],
      "stateMutability": "nonpayable",
      "type": "function"
    },
    {
      "inputs": [
        {
          "internalType": "address",
          "name": "owner",
          "type": "address"
        }
      ],
      "name": "balanceOf",
      "outputs": [
        {
          "internalType": "uint256",
          "name": "",
          "type": "uint256"
        }
      ],
      "stateMutability": "view",
      "type": "function"
    },
    {
      "inputs": [
        {
          "internalType": "address",
          "name": "_postContract",
          "type": "address"
        }
      ],
      "name": "changeAddresses",
      "outputs": [],
      "stateMutability": "nonpayable",
      "type": "function"
    },
    {
      "inputs": [
        {
          "internalType": "uint256",
          "name": "profileID",
          "type": "uint256"
        },
        {
          "internalType": "uint8",
          "name": "level",
          "type": "uint8"
        }
      ],
      "name": "changeUserVerificationLevel",
      "outputs": [],
      "stateMutability": "nonpayable",
      "type": "function"
    },
    {
      "inputs": [
        {
          "internalType": "uint256",
          "name": "tokenId",
          "type": "uint256"
        }
      ],
      "name": "getApproved",
      "outputs": [
        {
          "internalType": "address",
          "name": "",
          "type": "address"
        }
      ],
      "stateMutability": "view",
      "type": "function"
    },
    {
      "inputs": [
        {
          "internalType": "string",
          "name": "handle",
          "type": "string"
        }
      ],
      "name": "getProfileIDByHandle",
      "outputs": [
        {
          "internalType": "uint256",
          "name": "",
          "type": "uint256"
        }
      ],
      "stateMutability": "view",
      "type": "function"
    },
    {
      "inputs": [
        {
          "internalType": "address",
          "name": "owner",
          "type": "address"
        },
        {
          "internalType": "address",
          "name": "operator",
          "type": "address"
        }
      ],
      "name": "isApprovedForAll",
      "outputs": [
        {
          "internalType": "bool",
          "name": "",
          "type": "bool"
        }
      ],
      "stateMutability": "view",
      "type": "function"
    },
    {
      "inputs": [
        {
          "internalType": "uint256",
          "name": "profileID",
          "type": "uint256"
        },
        {
          "internalType": "string",
          "name": "postData",
          "type": "string"
        }
      ],
      "name": "makeRefoundPost",
      "outputs": [],
      "stateMutability": "nonpayable",
      "type": "function"
    },
    {
      "inputs": [
        {
          "internalType": "string",
          "name": "handle",
          "type": "string"
        },
        {
          "internalType": "string",
          "name": "profileData",
          "type": "string"
        }
      ],
      "name": "makeRefoundProfile",
      "outputs": [],
      "stateMutability": "nonpayable",
      "type": "function"
    },
    {
      "inputs": [],
      "name": "name",
      "outputs": [
        {
          "internalType": "string",
          "name": "",
          "type": "string"
        }
      ],
      "stateMutability": "view",
      "type": "function"
    },
    {
      "inputs": [],
      "name": "owner",
      "outputs": [
        {
          "internalType": "address",
          "name": "",
          "type": "address"
        }
      ],
      "stateMutability": "view",
      "type": "function"
    },
    {
      "inputs": [
        {
          "internalType": "uint256",
          "name": "tokenId",
          "type": "uint256"
        }
      ],
      "name": "ownerOf",
      "outputs": [
        {
          "internalType": "address",
          "name": "",
          "type": "address"
        }
      ],
      "stateMutability": "view",
      "type": "function"
    },
    {
      "inputs": [],
      "name": "postContract",
      "outputs": [
        {
          "internalType": "contract RefoundPost",
          "name": "",
          "type": "address"
        }
      ],
      "stateMutability": "view",
      "type": "function"
    },
    {
      "inputs": [],
      "name": "profiles",
      "outputs": [
        {
          "internalType": "uint256",
          "name": "",
          "type": "uint256"
        }
      ],
      "stateMutability": "view",
      "type": "function"
    },
    {
      "inputs": [],
      "name": "renounceOwnership",
      "outputs": [],
      "stateMutability": "nonpayable",
      "type": "function"
    },
    {
      "inputs": [
        {
          "internalType": "address",
          "name": "from",
          "type": "address"
        },
        {
          "internalType": "address",
          "name": "to",
          "type": "address"
        },
        {
          "internalType": "uint256",
          "name": "tokenId",
          "type": "uint256"
        }
      ],
      "name": "safeTransferFrom",
      "outputs": [],
      "stateMutability": "nonpayable",
      "type": "function"
    },
    {
      "inputs": [
        {
          "internalType": "address",
          "name": "from",
          "type": "address"
        },
        {
          "internalType": "address",
          "name": "to",
          "type": "address"
        },
        {
          "internalType": "uint256",
          "name": "tokenId",
          "type": "uint256"
        },
        {
          "internalType": "bytes",
          "name": "data",
          "type": "bytes"
        }
      ],
      "name": "safeTransferFrom",
      "outputs": [],
      "stateMutability": "nonpayable",
      "type": "function"
    },
    {
      "inputs": [
        {
          "internalType": "address",
          "name": "operator",
          "type": "address"
        },
        {
          "internalType": "bool",
          "name": "approved",
          "type": "bool"
        }
      ],
      "name": "setApprovalForAll",
      "outputs": [],
      "stateMutability": "nonpayable",
      "type": "function"
    },
    {
      "inputs": [
        {
          "internalType": "bytes4",
          "name": "interfaceId",
          "type": "bytes4"
        }
      ],
      "name": "supportsInterface",
      "outputs": [
        {
          "internalType": "bool",
          "name": "",
          "type": "bool"
        }
      ],
      "stateMutability": "view",
      "type": "function"
    },
    {
      "inputs": [],
      "name": "symbol",
      "outputs": [
        {
          "internalType": "string",
          "name": "",
          "type": "string"
        }
      ],
      "stateMutability": "view",
      "type": "function"
    },
    {
      "inputs": [
        {
          "internalType": "uint256",
          "name": "tokenId",
          "type": "uint256"
        }
      ],
      "name": "tokenURI",
      "outputs": [
        {
          "internalType": "string",
          "name": "",
          "type": "string"
        }
      ],
      "stateMutability": "view",
      "type": "function"
    },
    {
      "inputs": [
        {
          "internalType": "address",
          "name": "from",
          "type": "address"
        },
        {
          "internalType": "address",
          "name": "to",
          "type": "address"
        },
        {
          "internalType": "uint256",
          "name": "tokenId",
          "type": "uint256"
        }
      ],
      "name": "transferFrom",
      "outputs": [],
      "stateMutability": "nonpayable",
      "type": "function"
    },
    {
      "inputs": [
        {
          "internalType": "address",
          "name": "newOwner",
          "type": "address"
        }
      ],
      "name": "transferOwnership",
      "outputs": [],
      "stateMutability": "nonpayable",
      "type": "function"
    },
    {
      "inputs": [
        {
          "internalType": "uint256",
          "name": "profileID",
          "type": "uint256"
        },
        {
          "internalType": "string",
          "name": "handle",
          "type": "string"
        },
        {
          "internalType": "string",
          "name": "profileData",
          "type": "string"
        }
      ],
      "name": "updateRefoundProfile",
      "outputs": [],
      "stateMutability": "nonpayable",
      "type": "function"
    }
  ],
  "bytecode": "0x60806040523480156200001157600080fd5b50604080518082018252600b81526a2932b337bab7322ab9b2b960a91b602080830191825283518085019094526006845265464f554e445560d01b9084015281519192916200006391600091620000f7565b50805162000079906001906020840190620000f7565b5050506200009662000090620000a160201b60201c565b620000a5565b6000600855620001da565b3390565b600780546001600160a01b038381166001600160a01b0319831681179093556040519116919082907f8be0079c531659141344cd1fd0a4f28419497f9722a3daafe3b4186f6b6457e090600090a35050565b82805462000105906200019d565b90600052602060002090601f01602090048101928262000129576000855562000174565b82601f106200014457805160ff191683800117855562000174565b8280016001018555821562000174579182015b828111156200017457825182559160200191906001019062000157565b506200018292915062000186565b5090565b5b8082111562000182576000815560010162000187565b600181811c90821680620001b257607f821691505b60208210811415620001d457634e487b7160e01b600052602260045260246000fd5b50919050565b61234780620001ea6000396000f3fe608060405234801561001057600080fd5b50600436106101a35760003560e01c806364428894116100ee578063b88d4fde11610097578063dd8c550611610071578063dd8c550614610361578063ddc77f2714610374578063e985e9c514610387578063f2fde38b146103c357600080fd5b8063b88d4fde1461031b578063c87b56dd1461032e578063dd6c1f681461034157600080fd5b80638da5cb5b116100c85780638da5cb5b146102ef57806395d89b4114610300578063a22cb4651461030857600080fd5b806364428894146102c157806370a08231146102d4578063715018a6146102e757600080fd5b806328bb227011610150578063495057cf1161012a578063495057cf146102925780634ad651061461029b5780636352211e146102ae57600080fd5b806328bb22701461024b57806342842e0e1461025e578063461069f11461027157600080fd5b8063095ea7b311610181578063095ea7b3146102105780630ae728171461022557806323b872dd1461023857600080fd5b806301ffc9a7146101a857806306fdde03146101d0578063081812fc146101e5575b600080fd5b6101bb6101b6366004611cba565b6103d6565b60405190151581526020015b60405180910390f35b6101d8610473565b6040516101c79190611d2f565b6101f86101f3366004611d42565b610505565b6040516001600160a01b0390911681526020016101c7565b61022361021e366004611d70565b61052c565b005b610223610233366004611e48565b610663565b610223610246366004611eac565b61088e565b610223610259366004611eed565b610915565b61022361026c366004611eac565b61099b565b61028461027f366004611f23565b6109b6565b6040519081526020016101c7565b61028460085481565b6009546101f8906001600160a01b031681565b6101f86102bc366004611d42565b6109f6565b6102236102cf366004611f58565b610a5b565b6102846102e2366004611f58565b610ab7565b610223610b51565b6007546001600160a01b03166101f8565b6101d8610b65565b610223610316366004611f75565b610b74565b610223610329366004611fa8565b610b83565b6101d861033c366004611d42565b610c11565b61028461034f366004611d42565b600a6020526000908152604090205481565b61022361036f366004612028565b610d22565b610223610382366004612065565b610e84565b6101bb6103953660046120d2565b6001600160a01b03918216600090815260056020908152604080832093909416825291909152205460ff1690565b6102236103d1366004611f58565b6110fb565b60006001600160e01b031982167f80ac58cd00000000000000000000000000000000000000000000000000000000148061043957506001600160e01b031982167f5b5e139f00000000000000000000000000000000000000000000000000000000145b8061046d57507f01ffc9a7000000000000000000000000000000000000000000000000000000006001600160e01b03198316145b92915050565b60606000805461048290612100565b80601f01602080910402602001604051908101604052809291908181526020018280546104ae90612100565b80156104fb5780601f106104d0576101008083540402835291602001916104fb565b820191906000526020600020905b8154815290600101906020018083116104de57829003601f168201915b5050505050905090565b60006105108261118b565b506000908152600460205260409020546001600160a01b031690565b6000610537826109f6565b9050806001600160a01b0316836001600160a01b031614156105c65760405162461bcd60e51b815260206004820152602160248201527f4552433732313a20617070726f76616c20746f2063757272656e74206f776e6560448201527f720000000000000000000000000000000000000000000000000000000000000060648201526084015b60405180910390fd5b336001600160a01b03821614806105e257506105e28133610395565b6106545760405162461bcd60e51b815260206004820152603e60248201527f4552433732313a20617070726f76652063616c6c6572206973206e6f7420746f60448201527f6b656e206f776e6572206e6f7220617070726f76656420666f7220616c6c000060648201526084016105bd565b61065e83836111ef565b505050565b60c88251106106b45760405162461bcd60e51b815260206004820152600f60248201527f68616e646c6520746f6f206c6f6e67000000000000000000000000000000000060448201526064016105bd565b600a6000836040516020016106c99190611d2f565b6040516020818303038152906040528051906020012081526020019081526020016000205460001461073d5760405162461bcd60e51b815260206004820152601c60248201527f68616e646c652074616b656e20627920616e6f7468657220757365720000000060448201526064016105bd565b61074633610ab7565b156107b95760405162461bcd60e51b815260206004820152602860248201527f412070726f66696c6520616c72656164792065786973747320666f722074686960448201527f732077616c6c657400000000000000000000000000000000000000000000000060648201526084016105bd565b60088054600091826107ca83612151565b91905055905080600a6000856040516020016107e69190611d2f565b60405160208183030381529060405280519060200120815260200190815260200160002081905550600082604051602001610821919061216c565b604051602081830303815290604052905061083c338361125d565b6108468282611277565b81336001600160a01b03167f02ed4ee0412e67bbc9ed1687f3ad6bb7134d359d45994f3bf5302e91d81cf61f866040516108809190611d2f565b60405180910390a350505050565b6108983382611320565b61090a5760405162461bcd60e51b815260206004820152602e60248201527f4552433732313a2063616c6c6572206973206e6f7420746f6b656e206f776e6560448201527f72206e6f7220617070726f76656400000000000000000000000000000000000060648201526084016105bd565b61065e83838361139e565b61091d61156b565b8060ff16600281111561093257610932612188565b6000838152600b60205260409020805460ff1916600183600281111561095a5761095a612188565b021790555060405160ff8216815282907f05157c48372271fef198fc643b0a64d31eccd4ff30718a57b8e91ba6ecd48da59060200160405180910390a25050565b61065e83838360405180602001604052806000815250610b83565b600080826040516020016109ca9190611d2f565b60408051601f1981840301815291815281516020928301206000908152600a9092529020549392505050565b6000818152600260205260408120546001600160a01b03168061046d5760405162461bcd60e51b815260206004820152601860248201527f4552433732313a20696e76616c696420746f6b656e204944000000000000000060448201526064016105bd565b610a6361156b565b600980546001600160a01b0319166001600160a01b0383169081179091556040519081527f7ff7bacc6cd661809ed1ddce28d4ad2c5b37779b61b9e3235f8262be529101a99060200160405180910390a150565b60006001600160a01b038216610b355760405162461bcd60e51b815260206004820152602960248201527f4552433732313a2061646472657373207a65726f206973206e6f74206120766160448201527f6c6964206f776e6572000000000000000000000000000000000000000000000060648201526084016105bd565b506001600160a01b031660009081526003602052604090205490565b610b5961156b565b610b6360006115c5565b565b60606001805461048290612100565b610b7f338383611617565b5050565b610b8d3383611320565b610bff5760405162461bcd60e51b815260206004820152602e60248201527f4552433732313a2063616c6c6572206973206e6f7420746f6b656e206f776e6560448201527f72206e6f7220617070726f76656400000000000000000000000000000000000060648201526084016105bd565b610c0b848484846116de565b50505050565b6060610c1c8261118b565b60008281526006602052604081208054610c3590612100565b80601f0160208091040260200160405190810160405280929190818152602001828054610c6190612100565b8015610cae5780601f10610c8357610100808354040283529160200191610cae565b820191906000526020600020905b815481529060010190602001808311610c9157829003601f168201915b505050505090506000610ccc60408051602081019091526000815290565b9050805160001415610cdf575092915050565b815115610d11578082604051602001610cf992919061219e565b60405160208183030381529060405292505050919050565b610d1a8461175c565b949350505050565b33610d2c836109f6565b6001600160a01b031614610da85760405162461bcd60e51b815260206004820152603060248201527f796f75206e65656420746f206f776e20612070726f66696c6520746f206d616b60448201527f65206120706f73742066726f6d2069740000000000000000000000000000000060648201526084016105bd565b6009546040517f7efca41f0000000000000000000000000000000000000000000000000000000081526000916001600160a01b031690637efca41f90610df6908690869033906004016121cd565b6020604051808303816000875af1158015610e15573d6000803e3d6000fd5b505050506040513d601f19601f82011682018060405250810190610e3991906121ff565b905082336001600160a01b03167f2c65516f1e158977d9a13a610482ada9be23b1c904b6ec1d3323c10be24b705283604051610e7791815260200190565b60405180910390a3505050565b6040517f6352211e0000000000000000000000000000000000000000000000000000000081526004810184905233903090636352211e90602401602060405180830381865afa158015610edb573d6000803e3d6000fd5b505050506040513d601f19601f82011682018060405250810190610eff9190612218565b6001600160a01b031614610f7b5760405162461bcd60e51b815260206004820152602a60248201527f6f6e6c792074686520746f6b656e20686f6c6465722063616e2075706461746560448201527f2074686520746f6b656e0000000000000000000000000000000000000000000060648201526084016105bd565b60c8825110610fcc5760405162461bcd60e51b815260206004820152600f60248201527f68616e646c6520746f6f206c6f6e67000000000000000000000000000000000060448201526064016105bd565b600a600083604051602001610fe19190611d2f565b604051602081830303815290604052805190602001208152602001908152602001600020546000146110555760405162461bcd60e51b815260206004820152601c60248201527f68616e646c652074616b656e20627920616e6f7468657220757365720000000060448201526064016105bd565b82600a60008460405160200161106b9190611d2f565b604051602081830303815290604052805190602001208152602001908152602001600020819055506000816040516020016110a6919061216c565b60405160208183030381529060405290506110c18482611277565b83336001600160a01b03167f5055a48efcd294523de4f471b7ef149b2de92c815f45a7c72a4df708e6c34954856040516108809190611d2f565b61110361156b565b6001600160a01b03811661117f5760405162461bcd60e51b815260206004820152602660248201527f4f776e61626c653a206e6577206f776e657220697320746865207a65726f206160448201527f646472657373000000000000000000000000000000000000000000000000000060648201526084016105bd565b611188816115c5565b50565b6000818152600260205260409020546001600160a01b03166111885760405162461bcd60e51b815260206004820152601860248201527f4552433732313a20696e76616c696420746f6b656e204944000000000000000060448201526064016105bd565b600081815260046020526040902080546001600160a01b0319166001600160a01b0384169081179091558190611224826109f6565b6001600160a01b03167f8c5be1e5ebec7d5bd14f71427d1e84f3dd0314c0f7b2291e5b200ac8c7c3b92560405160405180910390a45050565b610b7f8282604051806020016040528060008152506117d0565b6000828152600260205260409020546001600160a01b03166113015760405162461bcd60e51b815260206004820152602e60248201527f45524337323155524953746f726167653a2055524920736574206f66206e6f6e60448201527f6578697374656e7420746f6b656e00000000000000000000000000000000000060648201526084016105bd565b6000828152600660209081526040909120825161065e92840190611c0b565b60008061132c836109f6565b9050806001600160a01b0316846001600160a01b0316148061137357506001600160a01b0380821660009081526005602090815260408083209388168352929052205460ff165b80610d1a5750836001600160a01b031661138c84610505565b6001600160a01b031614949350505050565b826001600160a01b03166113b1826109f6565b6001600160a01b03161461142d5760405162461bcd60e51b815260206004820152602560248201527f4552433732313a207472616e736665722066726f6d20696e636f72726563742060448201527f6f776e657200000000000000000000000000000000000000000000000000000060648201526084016105bd565b6001600160a01b0382166114a85760405162461bcd60e51b8152602060048201526024808201527f4552433732313a207472616e7366657220746f20746865207a65726f2061646460448201527f726573730000000000000000000000000000000000000000000000000000000060648201526084016105bd565b6114b36000826111ef565b6001600160a01b03831660009081526003602052604081208054600192906114dc908490612235565b90915550506001600160a01b038216600090815260036020526040812080546001929061150a90849061224c565b909155505060008181526002602052604080822080546001600160a01b0319166001600160a01b0386811691821790925591518493918716917fddf252ad1be2c89b69c2b068fc378daa952ba7f163c4a11628f55a4df523b3ef91a4505050565b6007546001600160a01b03163314610b635760405162461bcd60e51b815260206004820181905260248201527f4f776e61626c653a2063616c6c6572206973206e6f7420746865206f776e657260448201526064016105bd565b600780546001600160a01b038381166001600160a01b0319831681179093556040519116919082907f8be0079c531659141344cd1fd0a4f28419497f9722a3daafe3b4186f6b6457e090600090a35050565b816001600160a01b0316836001600160a01b031614156116795760405162461bcd60e51b815260206004820152601960248201527f4552433732313a20617070726f766520746f2063616c6c65720000000000000060448201526064016105bd565b6001600160a01b03838116600081815260056020908152604080832094871680845294825291829020805460ff191686151590811790915591519182527f17307eab39ab6107e8899845ad3d59bd9653f200f220920489ca2b5937696c319101610e77565b6116e984848461139e565b6116f58484848461184e565b610c0b5760405162461bcd60e51b815260206004820152603260248201527f4552433732313a207472616e7366657220746f206e6f6e20455243373231526560448201527131b2b4bb32b91034b6b83632b6b2b73a32b960711b60648201526084016105bd565b60606117678261118b565b600061177e60408051602081019091526000815290565b9050600081511161179e57604051806020016040528060008152506117c9565b806117a884611997565b6040516020016117b992919061219e565b6040516020818303038152906040525b9392505050565b6117da8383611ac9565b6117e7600084848461184e565b61065e5760405162461bcd60e51b815260206004820152603260248201527f4552433732313a207472616e7366657220746f206e6f6e20455243373231526560448201527131b2b4bb32b91034b6b83632b6b2b73a32b960711b60648201526084016105bd565b60006001600160a01b0384163b1561198c57604051630a85bd0160e11b81526001600160a01b0385169063150b7a0290611892903390899088908890600401612264565b6020604051808303816000875af19250505080156118cd575060408051601f3d908101601f191682019092526118ca918101906122a0565b60015b611972573d8080156118fb576040519150601f19603f3d011682016040523d82523d6000602084013e611900565b606091505b50805161196a5760405162461bcd60e51b815260206004820152603260248201527f4552433732313a207472616e7366657220746f206e6f6e20455243373231526560448201527131b2b4bb32b91034b6b83632b6b2b73a32b960711b60648201526084016105bd565b805181602001fd5b6001600160e01b031916630a85bd0160e11b149050610d1a565b506001949350505050565b6060816119d757505060408051808201909152600181527f3000000000000000000000000000000000000000000000000000000000000000602082015290565b8160005b8115611a0157806119eb81612151565b91506119fa9050600a836122d3565b91506119db565b60008167ffffffffffffffff811115611a1c57611a1c611d9c565b6040519080825280601f01601f191660200182016040528015611a46576020820181803683370190505b5090505b8415610d1a57611a5b600183612235565b9150611a68600a866122e7565b611a7390603061224c565b60f81b818381518110611a8857611a886122fb565b60200101907effffffffffffffffffffffffffffffffffffffffffffffffffffffffffffff1916908160001a905350611ac2600a866122d3565b9450611a4a565b6001600160a01b038216611b1f5760405162461bcd60e51b815260206004820181905260248201527f4552433732313a206d696e7420746f20746865207a65726f206164647265737360448201526064016105bd565b6000818152600260205260409020546001600160a01b031615611b845760405162461bcd60e51b815260206004820152601c60248201527f4552433732313a20746f6b656e20616c7265616479206d696e7465640000000060448201526064016105bd565b6001600160a01b0382166000908152600360205260408120805460019290611bad90849061224c565b909155505060008181526002602052604080822080546001600160a01b0319166001600160a01b03861690811790915590518392907fddf252ad1be2c89b69c2b068fc378daa952ba7f163c4a11628f55a4df523b3ef908290a45050565b828054611c1790612100565b90600052602060002090601f016020900481019282611c395760008555611c7f565b82601f10611c5257805160ff1916838001178555611c7f565b82800160010185558215611c7f579182015b82811115611c7f578251825591602001919060010190611c64565b50611c8b929150611c8f565b5090565b5b80821115611c8b5760008155600101611c90565b6001600160e01b03198116811461118857600080fd5b600060208284031215611ccc57600080fd5b81356117c981611ca4565b60005b83811015611cf2578181015183820152602001611cda565b83811115610c0b5750506000910152565b60008151808452611d1b816020860160208601611cd7565b601f01601f19169290920160200192915050565b6020815260006117c96020830184611d03565b600060208284031215611d5457600080fd5b5035919050565b6001600160a01b038116811461118857600080fd5b60008060408385031215611d8357600080fd5b8235611d8e81611d5b565b946020939093013593505050565b634e487b7160e01b600052604160045260246000fd5b600067ffffffffffffffff80841115611dcd57611dcd611d9c565b604051601f8501601f19908116603f01168101908282118183101715611df557611df5611d9c565b81604052809350858152868686011115611e0e57600080fd5b858560208301376000602087830101525050509392505050565b600082601f830112611e3957600080fd5b6117c983833560208501611db2565b60008060408385031215611e5b57600080fd5b823567ffffffffffffffff80821115611e7357600080fd5b611e7f86838701611e28565b93506020850135915080821115611e9557600080fd5b50611ea285828601611e28565b9150509250929050565b600080600060608486031215611ec157600080fd5b8335611ecc81611d5b565b92506020840135611edc81611d5b565b929592945050506040919091013590565b60008060408385031215611f0057600080fd5b82359150602083013560ff81168114611f1857600080fd5b809150509250929050565b600060208284031215611f3557600080fd5b813567ffffffffffffffff811115611f4c57600080fd5b610d1a84828501611e28565b600060208284031215611f6a57600080fd5b81356117c981611d5b565b60008060408385031215611f8857600080fd5b8235611f9381611d5b565b915060208301358015158114611f1857600080fd5b60008060008060808587031215611fbe57600080fd5b8435611fc981611d5b565b93506020850135611fd981611d5b565b925060408501359150606085013567ffffffffffffffff811115611ffc57600080fd5b8501601f8101871361200d57600080fd5b61201c87823560208401611db2565b91505092959194509250565b6000806040838503121561203b57600080fd5b82359150602083013567ffffffffffffffff81111561205957600080fd5b611ea285828601611e28565b60008060006060848603121561207a57600080fd5b83359250602084013567ffffffffffffffff8082111561209957600080fd5b6120a587838801611e28565b935060408601359150808211156120bb57600080fd5b506120c886828701611e28565b9150509250925092565b600080604083850312156120e557600080fd5b82356120f081611d5b565b91506020830135611f1881611d5b565b600181811c9082168061211457607f821691505b6020821081141561213557634e487b7160e01b600052602260045260246000fd5b50919050565b634e487b7160e01b600052601160045260246000fd5b60006000198214156121655761216561213b565b5060010190565b6000825161217e818460208701611cd7565b9190910192915050565b634e487b7160e01b600052602160045260246000fd5b600083516121b0818460208801611cd7565b8351908301906121c4818360208801611cd7565b01949350505050565b8381526060602082015260006121e66060830185611d03565b90506001600160a01b0383166040830152949350505050565b60006020828403121561221157600080fd5b5051919050565b60006020828403121561222a57600080fd5b81516117c981611d5b565b6000828210156122475761224761213b565b500390565b6000821982111561225f5761225f61213b565b500190565b60006001600160a01b038087168352808616602084015250836040830152608060608301526122966080830184611d03565b9695505050505050565b6000602082840312156122b257600080fd5b81516117c981611ca4565b634e487b7160e01b600052601260045260246000fd5b6000826122e2576122e26122bd565b500490565b6000826122f6576122f66122bd565b500690565b634e487b7160e01b600052603260045260246000fdfea2646970667358221220adae4548d0f727af67c567f49fff1d22180a289afbdbf5eba97e38ea63297a4d64736f6c634300080a0033",
  "linkReferences": {},
  "deployedLinkReferences": {}
}