{
  "_format": "hh-sol-artifact-1",
  "contractName": "Refound",
  "sourceName": "contracts/Refound.sol",
  "abi": [
    {
      "inputs": [],
      "stateMutability": "nonpayable",
      "type": "constructor"
    },
    {
      "anonymous": false,
      "inputs": [
        {
          "indexed": true,
          "internalType": "address",
          "name": "owner",
          "type": "address"
        },
        {
          "indexed": true,
          "internalType": "address",
          "name": "approved",
          "type": "address"
        },
        {
          "indexed": true,
          "internalType": "uint256",
          "name": "tokenId",
          "type": "uint256"
        }
      ],
      "name": "Approval",
      "type": "event"
    },
    {
      "anonymous": false,
      "inputs": [
        {
          "indexed": true,
          "internalType": "address",
          "name": "owner",
          "type": "address"
        },
        {
          "indexed": true,
          "internalType": "address",
          "name": "operator",
          "type": "address"
        },
        {
          "indexed": false,
          "internalType": "bool",
          "name": "approved",
          "type": "bool"
        }
      ],
      "name": "ApprovalForAll",
      "type": "event"
    },
    {
      "anonymous": false,
      "inputs": [
        {
          "indexed": true,
          "internalType": "address",
          "name": "from",
          "type": "address"
        },
        {
          "indexed": true,
          "internalType": "address",
          "name": "to",
          "type": "address"
        },
        {
          "indexed": true,
          "internalType": "uint256",
          "name": "tokenId",
          "type": "uint256"
        }
      ],
      "name": "Transfer",
      "type": "event"
    },
    {
      "inputs": [
        {
          "internalType": "address",
          "name": "",
          "type": "address"
        }
      ],
      "name": "ProfileIdByAddress",
      "outputs": [
        {
          "internalType": "uint256",
          "name": "",
          "type": "uint256"
        }
      ],
      "stateMutability": "view",
      "type": "function"
    },
    {
      "inputs": [
        {
          "internalType": "address",
          "name": "to",
          "type": "address"
        },
        {
          "internalType": "uint256",
          "name": "tokenId",
          "type": "uint256"
        }
      ],
      "name": "approve",
      "outputs": [],
      "stateMutability": "nonpayable",
      "type": "function"
    },
    {
      "inputs": [
        {
          "internalType": "address",
          "name": "owner",
          "type": "address"
        }
      ],
      "name": "balanceOf",
      "outputs": [
        {
          "internalType": "uint256",
          "name": "",
          "type": "uint256"
        }
      ],
      "stateMutability": "view",
      "type": "function"
    },
    {
      "inputs": [
        {
          "internalType": "address",
          "name": "_postContract",
          "type": "address"
        }
      ],
      "name": "changeAddresses",
      "outputs": [],
      "stateMutability": "nonpayable",
      "type": "function"
    },
    {
      "inputs": [
        {
          "internalType": "uint256",
          "name": "profileID",
          "type": "uint256"
        },
        {
          "internalType": "uint8",
          "name": "level",
          "type": "uint8"
        }
      ],
      "name": "changeUserVerificationLevel",
      "outputs": [],
      "stateMutability": "nonpayable",
      "type": "function"
    },
    {
      "inputs": [
        {
          "internalType": "uint256",
          "name": "tokenId",
          "type": "uint256"
        }
      ],
      "name": "getApproved",
      "outputs": [
        {
          "internalType": "address",
          "name": "",
          "type": "address"
        }
      ],
      "stateMutability": "view",
      "type": "function"
    },
    {
      "inputs": [
        {
          "internalType": "string",
          "name": "handle",
          "type": "string"
        }
      ],
      "name": "getProfileIdbyHandle",
      "outputs": [
        {
          "internalType": "uint256",
          "name": "",
          "type": "uint256"
        }
      ],
      "stateMutability": "view",
      "type": "function"
    },
    {
      "inputs": [
        {
          "internalType": "address",
          "name": "owner",
          "type": "address"
        },
        {
          "internalType": "address",
          "name": "operator",
          "type": "address"
        }
      ],
      "name": "isApprovedForAll",
      "outputs": [
        {
          "internalType": "bool",
          "name": "",
          "type": "bool"
        }
      ],
      "stateMutability": "view",
      "type": "function"
    },
    {
      "inputs": [
        {
          "internalType": "uint256",
          "name": "profileID",
          "type": "uint256"
        },
        {
          "internalType": "string",
          "name": "postData",
          "type": "string"
        }
      ],
      "name": "makeRefoundPost",
      "outputs": [
        {
          "internalType": "uint256",
          "name": "",
          "type": "uint256"
        }
      ],
      "stateMutability": "nonpayable",
      "type": "function"
    },
    {
      "inputs": [
        {
          "internalType": "string",
          "name": "handle",
          "type": "string"
        },
        {
          "internalType": "string",
          "name": "profileData",
          "type": "string"
        }
      ],
      "name": "makeRefoundProfile",
      "outputs": [
        {
          "internalType": "uint256",
          "name": "",
          "type": "uint256"
        }
      ],
      "stateMutability": "nonpayable",
      "type": "function"
    },
    {
      "inputs": [],
      "name": "name",
      "outputs": [
        {
          "internalType": "string",
          "name": "",
          "type": "string"
        }
      ],
      "stateMutability": "view",
      "type": "function"
    },
    {
      "inputs": [],
      "name": "owner",
      "outputs": [
        {
          "internalType": "address",
          "name": "",
          "type": "address"
        }
      ],
      "stateMutability": "view",
      "type": "function"
    },
    {
      "inputs": [
        {
          "internalType": "uint256",
          "name": "tokenId",
          "type": "uint256"
        }
      ],
      "name": "ownerOf",
      "outputs": [
        {
          "internalType": "address",
          "name": "",
          "type": "address"
        }
      ],
      "stateMutability": "view",
      "type": "function"
    },
    {
      "inputs": [],
      "name": "postContract",
      "outputs": [
        {
          "internalType": "contract RefoundPost",
          "name": "",
          "type": "address"
        }
      ],
      "stateMutability": "view",
      "type": "function"
    },
    {
      "inputs": [],
      "name": "profiles",
      "outputs": [
        {
          "internalType": "uint256",
          "name": "",
          "type": "uint256"
        }
      ],
      "stateMutability": "view",
      "type": "function"
    },
    {
      "inputs": [
        {
          "internalType": "address",
          "name": "from",
          "type": "address"
        },
        {
          "internalType": "address",
          "name": "to",
          "type": "address"
        },
        {
          "internalType": "uint256",
          "name": "tokenId",
          "type": "uint256"
        }
      ],
      "name": "safeTransferFrom",
      "outputs": [],
      "stateMutability": "nonpayable",
      "type": "function"
    },
    {
      "inputs": [
        {
          "internalType": "address",
          "name": "from",
          "type": "address"
        },
        {
          "internalType": "address",
          "name": "to",
          "type": "address"
        },
        {
          "internalType": "uint256",
          "name": "tokenId",
          "type": "uint256"
        },
        {
          "internalType": "bytes",
          "name": "data",
          "type": "bytes"
        }
      ],
      "name": "safeTransferFrom",
      "outputs": [],
      "stateMutability": "nonpayable",
      "type": "function"
    },
    {
      "inputs": [
        {
          "internalType": "address",
          "name": "operator",
          "type": "address"
        },
        {
          "internalType": "bool",
          "name": "approved",
          "type": "bool"
        }
      ],
      "name": "setApprovalForAll",
      "outputs": [],
      "stateMutability": "nonpayable",
      "type": "function"
    },
    {
      "inputs": [
        {
          "internalType": "bytes4",
          "name": "interfaceId",
          "type": "bytes4"
        }
      ],
      "name": "supportsInterface",
      "outputs": [
        {
          "internalType": "bool",
          "name": "",
          "type": "bool"
        }
      ],
      "stateMutability": "view",
      "type": "function"
    },
    {
      "inputs": [],
      "name": "symbol",
      "outputs": [
        {
          "internalType": "string",
          "name": "",
          "type": "string"
        }
      ],
      "stateMutability": "view",
      "type": "function"
    },
    {
      "inputs": [
        {
          "internalType": "uint256",
          "name": "tokenId",
          "type": "uint256"
        }
      ],
      "name": "tokenURI",
      "outputs": [
        {
          "internalType": "string",
          "name": "",
          "type": "string"
        }
      ],
      "stateMutability": "view",
      "type": "function"
    },
    {
      "inputs": [
        {
          "internalType": "address",
          "name": "from",
          "type": "address"
        },
        {
          "internalType": "address",
          "name": "to",
          "type": "address"
        },
        {
          "internalType": "uint256",
          "name": "tokenId",
          "type": "uint256"
        }
      ],
      "name": "transferFrom",
      "outputs": [],
      "stateMutability": "nonpayable",
      "type": "function"
    },
    {
      "inputs": [
        {
          "internalType": "uint256",
          "name": "profileID",
          "type": "uint256"
        },
        {
          "internalType": "string",
          "name": "handle",
          "type": "string"
        },
        {
          "internalType": "string",
          "name": "profileData",
          "type": "string"
        }
      ],
      "name": "updateRefoundProfile",
      "outputs": [
        {
          "internalType": "uint256",
          "name": "profileId",
          "type": "uint256"
        }
      ],
      "stateMutability": "nonpayable",
      "type": "function"
    }
  ],
  "bytecode": "0x60806040523480156200001157600080fd5b50604080518082018252600b81526a2932b337bab7322ab9b2b960a91b602080830191825283518085019094526006845265464f554e445560d01b908401528151919291620000639160009162000099565b5080516200007990600190602084019062000099565b5050600060095550600a80546001600160a01b031916331790556200017c565b828054620000a7906200013f565b90600052602060002090601f016020900481019282620000cb576000855562000116565b82601f10620000e657805160ff191683800117855562000116565b8280016001018555821562000116579182015b8281111562000116578251825591602001919060010190620000f9565b506200012492915062000128565b5090565b5b8082111562000124576000815560010162000129565b600181811c908216806200015457607f821691505b602082108114156200017657634e487b7160e01b600052602260045260246000fd5b50919050565b61227f806200018c6000396000f3fe608060405234801561001057600080fd5b506004361061018d5760003560e01c80636352211e116100e3578063b88d4fde1161008c578063ddc77f2711610066578063ddc77f2714610345578063df394dc514610358578063e985e9c51461036b57600080fd5b8063b88d4fde1461030c578063c87b56dd1461031f578063dd8c55061461033257600080fd5b80638da5cb5b116100bd5780638da5cb5b146102de57806395d89b41146102f1578063a22cb465146102f957600080fd5b80636352211e146102a557806364428894146102b857806370a08231146102cb57600080fd5b806323b872dd11610145578063495057cf1161011f578063495057cf146102695780634ad65106146102725780635192dd311461028557600080fd5b806323b872dd1461023057806328bb22701461024357806342842e0e1461025657600080fd5b8063081812fc11610176578063081812fc146101cf578063095ea7b3146101fa5780630ae728171461020f57600080fd5b806301ffc9a71461019257806306fdde03146101ba575b600080fd5b6101a56101a0366004611b1e565b6103a7565b60405190151581526020015b60405180910390f35b6101c2610444565b6040516101b19190611b93565b6101e26101dd366004611ba6565b6104d6565b6040516001600160a01b0390911681526020016101b1565b61020d610208366004611bd4565b6104fd565b005b61022261021d366004611cac565b610634565b6040519081526020016101b1565b61020d61023e366004611d10565b6107ef565b61020d610251366004611d51565b610876565b61020d610264366004611d10565b61093c565b61022260095481565b600b546101e2906001600160a01b031681565b610222610293366004611d87565b60086020526000908152604090205481565b6101e26102b3366004611ba6565b610957565b61020d6102c6366004611d87565b6109bc565b6102226102d9366004611d87565b610a6b565b600a546101e2906001600160a01b031681565b6101c2610b05565b61020d610307366004611da4565b610b14565b61020d61031a366004611dd7565b610b23565b6101c261032d366004611ba6565b610bb1565b610222610340366004611e57565b610cc2565b610222610353366004611e94565b610e3a565b610222610366366004611f01565b610f92565b6101a5610379366004611f36565b6001600160a01b03918216600090815260056020908152604080832093909416825291909152205460ff1690565b60006001600160e01b031982167f80ac58cd00000000000000000000000000000000000000000000000000000000148061040a57506001600160e01b031982167f5b5e139f00000000000000000000000000000000000000000000000000000000145b8061043e57507f01ffc9a7000000000000000000000000000000000000000000000000000000006001600160e01b03198316145b92915050565b60606000805461045390611f64565b80601f016020809104026020016040519081016040528092919081815260200182805461047f90611f64565b80156104cc5780601f106104a1576101008083540402835291602001916104cc565b820191906000526020600020905b8154815290600101906020018083116104af57829003601f168201915b5050505050905090565b60006104e182610fd2565b506000908152600460205260409020546001600160a01b031690565b600061050882610957565b9050806001600160a01b0316836001600160a01b031614156105975760405162461bcd60e51b815260206004820152602160248201527f4552433732313a20617070726f76616c20746f2063757272656e74206f776e6560448201527f720000000000000000000000000000000000000000000000000000000000000060648201526084015b60405180910390fd5b336001600160a01b03821614806105b357506105b38133610379565b6106255760405162461bcd60e51b815260206004820152603e60248201527f4552433732313a20617070726f76652063616c6c6572206973206e6f7420746f60448201527f6b656e206f776e6572206e6f7220617070726f76656420666f7220616c6c0000606482015260840161058e565b61062f8383611039565b505050565b600060c88351106106875760405162461bcd60e51b815260206004820152600e60248201527f68616e646c6520746f206c6f6e67000000000000000000000000000000000000604482015260640161058e565b336000908152600860205260409020541561070a5760405162461bcd60e51b815260206004820152602a60248201527f416e206163636f756e7420616c72656164792065786973747320666f7220746860448201527f69732077616c6c65742e00000000000000000000000000000000000000000000606482015260840161058e565b600980546000918261071b83611fb5565b9190505590508060076000866040516020016107379190611b93565b60408051601f198184030181529181528151602092830120835282820193909352908201600090812093909355338352600881528183208490559051610781918791879101611fd0565b604051602081830303815290604052905061079c33836110b4565b6107a682826110ce565b6107e76040518060400160405280601281526020017f6d696e7465642050726f66696c65204e46540000000000000000000000000000815250833384611177565b509392505050565b6107f933826111ee565b61086b5760405162461bcd60e51b815260206004820152602e60248201527f4552433732313a2063616c6c6572206973206e6f7420746f6b656e206f776e6560448201527f72206e6f7220617070726f766564000000000000000000000000000000000000606482015260840161058e565b61062f83838361126c565b600a546001600160a01b031633146108f65760405162461bcd60e51b815260206004820152602e60248201527f6f6e6c792074686520636f6e7472616374206f776e65722063616e2063616c6c60448201527f20746869732066756e6374696f6e000000000000000000000000000000000000606482015260840161058e565b8060ff16600281111561090b5761090b61207b565b6000838152600c60205260409020805460ff191660018360028111156109335761093361207b565b02179055505050565b61062f83838360405180602001604052806000815250610b23565b6000818152600260205260408120546001600160a01b03168061043e5760405162461bcd60e51b815260206004820152601860248201527f4552433732313a20696e76616c696420746f6b656e2049440000000000000000604482015260640161058e565b600a546001600160a01b03163314610a3c5760405162461bcd60e51b815260206004820152602e60248201527f6f6e6c792074686520636f6e7472616374206f776e65722063616e2063616c6c60448201527f20746869732066756e6374696f6e000000000000000000000000000000000000606482015260840161058e565b600b805473ffffffffffffffffffffffffffffffffffffffff19166001600160a01b0392909216919091179055565b60006001600160a01b038216610ae95760405162461bcd60e51b815260206004820152602960248201527f4552433732313a2061646472657373207a65726f206973206e6f74206120766160448201527f6c6964206f776e65720000000000000000000000000000000000000000000000606482015260840161058e565b506001600160a01b031660009081526003602052604090205490565b60606001805461045390611f64565b610b1f338383611446565b5050565b610b2d33836111ee565b610b9f5760405162461bcd60e51b815260206004820152602e60248201527f4552433732313a2063616c6c6572206973206e6f7420746f6b656e206f776e6560448201527f72206e6f7220617070726f766564000000000000000000000000000000000000606482015260840161058e565b610bab84848484611515565b50505050565b6060610bbc82610fd2565b60008281526006602052604081208054610bd590611f64565b80601f0160208091040260200160405190810160405280929190818152602001828054610c0190611f64565b8015610c4e5780601f10610c2357610100808354040283529160200191610c4e565b820191906000526020600020905b815481529060010190602001808311610c3157829003601f168201915b505050505090506000610c6c60408051602081019091526000815290565b9050805160001415610c7f575092915050565b815115610cb1578082604051602001610c99929190612091565b60405160208183030381529060405292505050919050565b610cba84611593565b949350505050565b6040516331a9108f60e11b81526004810183905260009033903090636352211e90602401602060405180830381865afa158015610d03573d6000803e3d6000fd5b505050506040513d601f19601f82011682018060405250810190610d2791906120c0565b6001600160a01b031614610da35760405162461bcd60e51b815260206004820152603060248201527f796f75206e65656420746f206f776e20612070726f66696c6520746f206d616b60448201527f65206120706f73742066726f6d20697400000000000000000000000000000000606482015260840161058e565b600b546040517f7efca41f0000000000000000000000000000000000000000000000000000000081526001600160a01b0390911690637efca41f90610df0908690869033906004016120dd565b6020604051808303816000875af1158015610e0f573d6000803e3d6000fd5b505050506040513d601f19601f82011682018060405250810190610e33919061210f565b9392505050565b6040516331a9108f60e11b81526004810184905260009033903090636352211e90602401602060405180830381865afa158015610e7b573d6000803e3d6000fd5b505050506040513d601f19601f82011682018060405250810190610e9f91906120c0565b6001600160a01b031614610f1b5760405162461bcd60e51b815260206004820152602a60248201527f6f6e6c792074686520746f6b656e20686f6c6465722063616e2075706461746560448201527f2074686520746f6b656e00000000000000000000000000000000000000000000606482015260840161058e565b836007600085604051602001610f319190611b93565b6040516020818303038152906040528051906020012081526020019081526020016000208190555060008383604051602001610f6e929190611fd0565b6040516020818303038152906040529050610f8985826110ce565b50929392505050565b60008082604051602001610fa69190611b93565b60408051601f198184030181529181528151602092830120600090815260079092529020549392505050565b6000818152600260205260409020546001600160a01b03166110365760405162461bcd60e51b815260206004820152601860248201527f4552433732313a20696e76616c696420746f6b656e2049440000000000000000604482015260640161058e565b50565b6000818152600460205260409020805473ffffffffffffffffffffffffffffffffffffffff19166001600160a01b038416908117909155819061107b82610957565b6001600160a01b03167f8c5be1e5ebec7d5bd14f71427d1e84f3dd0314c0f7b2291e5b200ac8c7c3b92560405160405180910390a45050565b610b1f828260405180602001604052806000815250611606565b6000828152600260205260409020546001600160a01b03166111585760405162461bcd60e51b815260206004820152602e60248201527f45524337323155524953746f726167653a2055524920736574206f66206e6f6e60448201527f6578697374656e7420746f6b656e000000000000000000000000000000000000606482015260840161058e565b6000828152600660209081526040909120825161062f92840190611a6f565b610bab848484846040516024016111919493929190612128565b60408051601f198184030181529190526020810180517bffffffffffffffffffffffffffffffffffffffffffffffffffffffff167f9ffb2f9300000000000000000000000000000000000000000000000000000000179052611684565b6000806111fa83610957565b9050806001600160a01b0316846001600160a01b0316148061124157506001600160a01b0380821660009081526005602090815260408083209388168352929052205460ff165b80610cba5750836001600160a01b031661125a846104d6565b6001600160a01b031614949350505050565b826001600160a01b031661127f82610957565b6001600160a01b0316146112fb5760405162461bcd60e51b815260206004820152602560248201527f4552433732313a207472616e736665722066726f6d20696e636f72726563742060448201527f6f776e6572000000000000000000000000000000000000000000000000000000606482015260840161058e565b6001600160a01b0382166113765760405162461bcd60e51b8152602060048201526024808201527f4552433732313a207472616e7366657220746f20746865207a65726f2061646460448201527f7265737300000000000000000000000000000000000000000000000000000000606482015260840161058e565b611381600082611039565b6001600160a01b03831660009081526003602052604081208054600192906113aa90849061216d565b90915550506001600160a01b03821660009081526003602052604081208054600192906113d8908490612184565b9091555050600081815260026020526040808220805473ffffffffffffffffffffffffffffffffffffffff19166001600160a01b0386811691821790925591518493918716917fddf252ad1be2c89b69c2b068fc378daa952ba7f163c4a11628f55a4df523b3ef91a4505050565b816001600160a01b0316836001600160a01b031614156114a85760405162461bcd60e51b815260206004820152601960248201527f4552433732313a20617070726f766520746f2063616c6c657200000000000000604482015260640161058e565b6001600160a01b03838116600081815260056020908152604080832094871680845294825291829020805460ff191686151590811790915591519182527f17307eab39ab6107e8899845ad3d59bd9653f200f220920489ca2b5937696c31910160405180910390a3505050565b61152084848461126c565b61152c848484846116a5565b610bab5760405162461bcd60e51b815260206004820152603260248201527f4552433732313a207472616e7366657220746f206e6f6e20455243373231526560448201527131b2b4bb32b91034b6b83632b6b2b73a32b960711b606482015260840161058e565b606061159e82610fd2565b60006115b560408051602081019091526000815290565b905060008151116115d55760405180602001604052806000815250610e33565b806115df846117ee565b6040516020016115f0929190612091565b6040516020818303038152906040529392505050565b6116108383611920565b61161d60008484846116a5565b61062f5760405162461bcd60e51b815260206004820152603260248201527f4552433732313a207472616e7366657220746f206e6f6e20455243373231526560448201527131b2b4bb32b91034b6b83632b6b2b73a32b960711b606482015260840161058e565b80516a636f6e736f6c652e6c6f67602083016000808483855afa5050505050565b60006001600160a01b0384163b156117e357604051630a85bd0160e11b81526001600160a01b0385169063150b7a02906116e990339089908890889060040161219c565b6020604051808303816000875af1925050508015611724575060408051601f3d908101601f19168201909252611721918101906121d8565b60015b6117c9573d808015611752576040519150601f19603f3d011682016040523d82523d6000602084013e611757565b606091505b5080516117c15760405162461bcd60e51b815260206004820152603260248201527f4552433732313a207472616e7366657220746f206e6f6e20455243373231526560448201527131b2b4bb32b91034b6b83632b6b2b73a32b960711b606482015260840161058e565b805181602001fd5b6001600160e01b031916630a85bd0160e11b149050610cba565b506001949350505050565b60608161182e57505060408051808201909152600181527f3000000000000000000000000000000000000000000000000000000000000000602082015290565b8160005b8115611858578061184281611fb5565b91506118519050600a8361220b565b9150611832565b60008167ffffffffffffffff81111561187357611873611c00565b6040519080825280601f01601f19166020018201604052801561189d576020820181803683370190505b5090505b8415610cba576118b260018361216d565b91506118bf600a8661221f565b6118ca906030612184565b60f81b8183815181106118df576118df612233565b60200101907effffffffffffffffffffffffffffffffffffffffffffffffffffffffffffff1916908160001a905350611919600a8661220b565b94506118a1565b6001600160a01b0382166119765760405162461bcd60e51b815260206004820181905260248201527f4552433732313a206d696e7420746f20746865207a65726f2061646472657373604482015260640161058e565b6000818152600260205260409020546001600160a01b0316156119db5760405162461bcd60e51b815260206004820152601c60248201527f4552433732313a20746f6b656e20616c7265616479206d696e74656400000000604482015260640161058e565b6001600160a01b0382166000908152600360205260408120805460019290611a04908490612184565b9091555050600081815260026020526040808220805473ffffffffffffffffffffffffffffffffffffffff19166001600160a01b03861690811790915590518392907fddf252ad1be2c89b69c2b068fc378daa952ba7f163c4a11628f55a4df523b3ef908290a45050565b828054611a7b90611f64565b90600052602060002090601f016020900481019282611a9d5760008555611ae3565b82601f10611ab657805160ff1916838001178555611ae3565b82800160010185558215611ae3579182015b82811115611ae3578251825591602001919060010190611ac8565b50611aef929150611af3565b5090565b5b80821115611aef5760008155600101611af4565b6001600160e01b03198116811461103657600080fd5b600060208284031215611b3057600080fd5b8135610e3381611b08565b60005b83811015611b56578181015183820152602001611b3e565b83811115610bab5750506000910152565b60008151808452611b7f816020860160208601611b3b565b601f01601f19169290920160200192915050565b602081526000610e336020830184611b67565b600060208284031215611bb857600080fd5b5035919050565b6001600160a01b038116811461103657600080fd5b60008060408385031215611be757600080fd5b8235611bf281611bbf565b946020939093013593505050565b634e487b7160e01b600052604160045260246000fd5b600067ffffffffffffffff80841115611c3157611c31611c00565b604051601f8501601f19908116603f01168101908282118183101715611c5957611c59611c00565b81604052809350858152868686011115611c7257600080fd5b858560208301376000602087830101525050509392505050565b600082601f830112611c9d57600080fd5b610e3383833560208501611c16565b60008060408385031215611cbf57600080fd5b823567ffffffffffffffff80821115611cd757600080fd5b611ce386838701611c8c565b93506020850135915080821115611cf957600080fd5b50611d0685828601611c8c565b9150509250929050565b600080600060608486031215611d2557600080fd5b8335611d3081611bbf565b92506020840135611d4081611bbf565b929592945050506040919091013590565b60008060408385031215611d6457600080fd5b82359150602083013560ff81168114611d7c57600080fd5b809150509250929050565b600060208284031215611d9957600080fd5b8135610e3381611bbf565b60008060408385031215611db757600080fd5b8235611dc281611bbf565b915060208301358015158114611d7c57600080fd5b60008060008060808587031215611ded57600080fd5b8435611df881611bbf565b93506020850135611e0881611bbf565b925060408501359150606085013567ffffffffffffffff811115611e2b57600080fd5b8501601f81018713611e3c57600080fd5b611e4b87823560208401611c16565b91505092959194509250565b60008060408385031215611e6a57600080fd5b82359150602083013567ffffffffffffffff811115611e8857600080fd5b611d0685828601611c8c565b600080600060608486031215611ea957600080fd5b83359250602084013567ffffffffffffffff80821115611ec857600080fd5b611ed487838801611c8c565b93506040860135915080821115611eea57600080fd5b50611ef786828701611c8c565b9150509250925092565b600060208284031215611f1357600080fd5b813567ffffffffffffffff811115611f2a57600080fd5b610cba84828501611c8c565b60008060408385031215611f4957600080fd5b8235611f5481611bbf565b91506020830135611d7c81611bbf565b600181811c90821680611f7857607f821691505b60208210811415611f9957634e487b7160e01b600052602260045260246000fd5b50919050565b634e487b7160e01b600052601160045260246000fd5b6000600019821415611fc957611fc9611f9f565b5060010190565b7f7b2268616e646c65223a2022000000000000000000000000000000000000000081526000835161200881600c850160208801611b3b565b7f222c202270726f66696c6544617461223a200000000000000000000000000000600c91840191820152835161204581601e840160208801611b3b565b7f7d00000000000000000000000000000000000000000000000000000000000000601e9290910191820152601f01949350505050565b634e487b7160e01b600052602160045260246000fd5b600083516120a3818460208801611b3b565b8351908301906120b7818360208801611b3b565b01949350505050565b6000602082840312156120d257600080fd5b8151610e3381611bbf565b8381526060602082015260006120f66060830185611b67565b90506001600160a01b0383166040830152949350505050565b60006020828403121561212157600080fd5b5051919050565b60808152600061213b6080830187611b67565b8560208401526001600160a01b038516604084015282810360608401526121628185611b67565b979650505050505050565b60008282101561217f5761217f611f9f565b500390565b6000821982111561219757612197611f9f565b500190565b60006001600160a01b038087168352808616602084015250836040830152608060608301526121ce6080830184611b67565b9695505050505050565b6000602082840312156121ea57600080fd5b8151610e3381611b08565b634e487b7160e01b600052601260045260246000fd5b60008261221a5761221a6121f5565b500490565b60008261222e5761222e6121f5565b500690565b634e487b7160e01b600052603260045260246000fdfea26469706673582212206c4786e67c5a5daa3a0aa890d2741b2c96878a8d9318d5899d835bd467cd709b64736f6c634300080a0033",
  "linkReferences": {},
  "deployedLinkReferences": {}
}