{
  "_format": "hh-sol-artifact-1",
  "contractName": "Refound",
  "sourceName": "contracts/Refound.sol",
  "abi": [
    {
      "inputs": [],
      "stateMutability": "nonpayable",
      "type": "constructor"
    },
    {
      "anonymous": false,
      "inputs": [
        {
          "indexed": false,
          "internalType": "address",
          "name": "contractAddress",
          "type": "address"
        }
      ],
      "name": "AddressChange",
      "type": "event"
    },
    {
      "anonymous": false,
      "inputs": [
        {
          "indexed": true,
          "internalType": "address",
          "name": "owner",
          "type": "address"
        },
        {
          "indexed": true,
          "internalType": "address",
          "name": "approved",
          "type": "address"
        },
        {
          "indexed": true,
          "internalType": "uint256",
          "name": "tokenId",
          "type": "uint256"
        }
      ],
      "name": "Approval",
      "type": "event"
    },
    {
      "anonymous": false,
      "inputs": [
        {
          "indexed": true,
          "internalType": "address",
          "name": "owner",
          "type": "address"
        },
        {
          "indexed": true,
          "internalType": "address",
          "name": "operator",
          "type": "address"
        },
        {
          "indexed": false,
          "internalType": "bool",
          "name": "approved",
          "type": "bool"
        }
      ],
      "name": "ApprovalForAll",
      "type": "event"
    },
    {
      "anonymous": false,
      "inputs": [
        {
          "indexed": true,
          "internalType": "address",
          "name": "previousOwner",
          "type": "address"
        },
        {
          "indexed": true,
          "internalType": "address",
          "name": "newOwner",
          "type": "address"
        }
      ],
      "name": "OwnershipTransferred",
      "type": "event"
    },
    {
      "anonymous": false,
      "inputs": [
        {
          "indexed": true,
          "internalType": "address",
          "name": "from",
          "type": "address"
        },
        {
          "indexed": true,
          "internalType": "uint256",
          "name": "profileID",
          "type": "uint256"
        },
        {
          "indexed": false,
          "internalType": "uint256",
          "name": "postID",
          "type": "uint256"
        }
      ],
      "name": "PostCreated",
      "type": "event"
    },
    {
      "anonymous": false,
      "inputs": [
        {
          "indexed": true,
          "internalType": "address",
          "name": "caller",
          "type": "address"
        },
        {
          "indexed": true,
          "internalType": "uint256",
          "name": "profileID",
          "type": "uint256"
        },
        {
          "indexed": false,
          "internalType": "string",
          "name": "handle",
          "type": "string"
        }
      ],
      "name": "ProfileCreated",
      "type": "event"
    },
    {
      "anonymous": false,
      "inputs": [
        {
          "indexed": true,
          "internalType": "address",
          "name": "caller",
          "type": "address"
        },
        {
          "indexed": true,
          "internalType": "uint256",
          "name": "profileID",
          "type": "uint256"
        },
        {
          "indexed": false,
          "internalType": "string",
          "name": "handle",
          "type": "string"
        }
      ],
      "name": "ProfileUpdated",
      "type": "event"
    },
    {
      "anonymous": false,
      "inputs": [
        {
          "indexed": true,
          "internalType": "address",
          "name": "from",
          "type": "address"
        },
        {
          "indexed": true,
          "internalType": "address",
          "name": "to",
          "type": "address"
        },
        {
          "indexed": true,
          "internalType": "uint256",
          "name": "tokenId",
          "type": "uint256"
        }
      ],
      "name": "Transfer",
      "type": "event"
    },
    {
      "anonymous": false,
      "inputs": [
        {
          "indexed": true,
          "internalType": "uint256",
          "name": "profileID",
          "type": "uint256"
        },
        {
          "indexed": false,
          "internalType": "uint8",
          "name": "level",
          "type": "uint8"
        }
      ],
      "name": "VerificationLevelChanged",
      "type": "event"
    },
    {
      "inputs": [
        {
          "internalType": "bytes32",
          "name": "",
          "type": "bytes32"
        }
      ],
      "name": "ProfileIDByHandle",
      "outputs": [
        {
          "internalType": "uint256",
          "name": "",
          "type": "uint256"
        }
      ],
      "stateMutability": "view",
      "type": "function"
    },
    {
      "inputs": [
        {
          "internalType": "address",
          "name": "to",
          "type": "address"
        },
        {
          "internalType": "uint256",
          "name": "tokenId",
          "type": "uint256"
        }
      ],
      "name": "approve",
      "outputs": [],
      "stateMutability": "nonpayable",
      "type": "function"
    },
    {
      "inputs": [
        {
          "internalType": "address",
          "name": "owner",
          "type": "address"
        }
      ],
      "name": "balanceOf",
      "outputs": [
        {
          "internalType": "uint256",
          "name": "",
          "type": "uint256"
        }
      ],
      "stateMutability": "view",
      "type": "function"
    },
    {
      "inputs": [
        {
          "internalType": "address",
          "name": "_postContract",
          "type": "address"
        }
      ],
      "name": "changeAddresses",
      "outputs": [],
      "stateMutability": "nonpayable",
      "type": "function"
    },
    {
      "inputs": [
        {
          "internalType": "uint256",
          "name": "profileID",
          "type": "uint256"
        },
        {
          "internalType": "uint8",
          "name": "level",
          "type": "uint8"
        }
      ],
      "name": "changeUserVerificationLevel",
      "outputs": [],
      "stateMutability": "nonpayable",
      "type": "function"
    },
    {
      "inputs": [
        {
          "internalType": "uint256",
          "name": "tokenId",
          "type": "uint256"
        }
      ],
      "name": "getApproved",
      "outputs": [
        {
          "internalType": "address",
          "name": "",
          "type": "address"
        }
      ],
      "stateMutability": "view",
      "type": "function"
    },
    {
      "inputs": [
        {
          "internalType": "string",
          "name": "handle",
          "type": "string"
        }
      ],
      "name": "getProfileIDByHandle",
      "outputs": [
        {
          "internalType": "uint256",
          "name": "",
          "type": "uint256"
        }
      ],
      "stateMutability": "view",
      "type": "function"
    },
    {
      "inputs": [
        {
          "internalType": "address",
          "name": "owner",
          "type": "address"
        },
        {
          "internalType": "address",
          "name": "operator",
          "type": "address"
        }
      ],
      "name": "isApprovedForAll",
      "outputs": [
        {
          "internalType": "bool",
          "name": "",
          "type": "bool"
        }
      ],
      "stateMutability": "view",
      "type": "function"
    },
    {
      "inputs": [
        {
          "internalType": "uint256",
          "name": "profileID",
          "type": "uint256"
        },
        {
          "internalType": "string",
          "name": "postData",
          "type": "string"
        }
      ],
      "name": "makeRefoundPost",
      "outputs": [],
      "stateMutability": "nonpayable",
      "type": "function"
    },
    {
      "inputs": [
        {
          "internalType": "string",
          "name": "handle",
          "type": "string"
        },
        {
          "internalType": "string",
          "name": "profileData",
          "type": "string"
        }
      ],
      "name": "makeRefoundProfile",
      "outputs": [],
      "stateMutability": "nonpayable",
      "type": "function"
    },
    {
      "inputs": [],
      "name": "name",
      "outputs": [
        {
          "internalType": "string",
          "name": "",
          "type": "string"
        }
      ],
      "stateMutability": "view",
      "type": "function"
    },
    {
      "inputs": [],
      "name": "owner",
      "outputs": [
        {
          "internalType": "address",
          "name": "",
          "type": "address"
        }
      ],
      "stateMutability": "view",
      "type": "function"
    },
    {
      "inputs": [
        {
          "internalType": "uint256",
          "name": "tokenId",
          "type": "uint256"
        }
      ],
      "name": "ownerOf",
      "outputs": [
        {
          "internalType": "address",
          "name": "",
          "type": "address"
        }
      ],
      "stateMutability": "view",
      "type": "function"
    },
    {
      "inputs": [],
      "name": "postContract",
      "outputs": [
        {
          "internalType": "contract RefoundPost",
          "name": "",
          "type": "address"
        }
      ],
      "stateMutability": "view",
      "type": "function"
    },
    {
      "inputs": [],
      "name": "profiles",
      "outputs": [
        {
          "internalType": "uint256",
          "name": "",
          "type": "uint256"
        }
      ],
      "stateMutability": "view",
      "type": "function"
    },
    {
      "inputs": [],
      "name": "renounceOwnership",
      "outputs": [],
      "stateMutability": "nonpayable",
      "type": "function"
    },
    {
      "inputs": [
        {
          "internalType": "address",
          "name": "from",
          "type": "address"
        },
        {
          "internalType": "address",
          "name": "to",
          "type": "address"
        },
        {
          "internalType": "uint256",
          "name": "tokenId",
          "type": "uint256"
        }
      ],
      "name": "safeTransferFrom",
      "outputs": [],
      "stateMutability": "nonpayable",
      "type": "function"
    },
    {
      "inputs": [
        {
          "internalType": "address",
          "name": "from",
          "type": "address"
        },
        {
          "internalType": "address",
          "name": "to",
          "type": "address"
        },
        {
          "internalType": "uint256",
          "name": "tokenId",
          "type": "uint256"
        },
        {
          "internalType": "bytes",
          "name": "data",
          "type": "bytes"
        }
      ],
      "name": "safeTransferFrom",
      "outputs": [],
      "stateMutability": "nonpayable",
      "type": "function"
    },
    {
      "inputs": [
        {
          "internalType": "address",
          "name": "operator",
          "type": "address"
        },
        {
          "internalType": "bool",
          "name": "approved",
          "type": "bool"
        }
      ],
      "name": "setApprovalForAll",
      "outputs": [],
      "stateMutability": "nonpayable",
      "type": "function"
    },
    {
      "inputs": [
        {
          "internalType": "bytes4",
          "name": "interfaceId",
          "type": "bytes4"
        }
      ],
      "name": "supportsInterface",
      "outputs": [
        {
          "internalType": "bool",
          "name": "",
          "type": "bool"
        }
      ],
      "stateMutability": "view",
      "type": "function"
    },
    {
      "inputs": [],
      "name": "symbol",
      "outputs": [
        {
          "internalType": "string",
          "name": "",
          "type": "string"
        }
      ],
      "stateMutability": "view",
      "type": "function"
    },
    {
      "inputs": [
        {
          "internalType": "uint256",
          "name": "tokenId",
          "type": "uint256"
        }
      ],
      "name": "tokenURI",
      "outputs": [
        {
          "internalType": "string",
          "name": "",
          "type": "string"
        }
      ],
      "stateMutability": "view",
      "type": "function"
    },
    {
      "inputs": [
        {
          "internalType": "address",
          "name": "from",
          "type": "address"
        },
        {
          "internalType": "address",
          "name": "to",
          "type": "address"
        },
        {
          "internalType": "uint256",
          "name": "tokenId",
          "type": "uint256"
        }
      ],
      "name": "transferFrom",
      "outputs": [],
      "stateMutability": "nonpayable",
      "type": "function"
    },
    {
      "inputs": [
        {
          "internalType": "address",
          "name": "newOwner",
          "type": "address"
        }
      ],
      "name": "transferOwnership",
      "outputs": [],
      "stateMutability": "nonpayable",
      "type": "function"
    },
    {
      "inputs": [
        {
          "internalType": "uint256",
          "name": "profileID",
          "type": "uint256"
        },
        {
          "internalType": "string",
          "name": "handle",
          "type": "string"
        },
        {
          "internalType": "string",
          "name": "profileData",
          "type": "string"
        }
      ],
      "name": "updateRefoundProfile",
      "outputs": [],
      "stateMutability": "nonpayable",
      "type": "function"
    }
  ],
  "bytecode": "0x60806040523480156200001157600080fd5b50604080518082018252600b81526a2932b337bab7322ab9b2b960a91b602080830191825283518085019094526006845265464f554e445560d01b9084015281519192916200006391600091620000f7565b50805162000079906001906020840190620000f7565b5050506200009662000090620000a160201b60201c565b620000a5565b6000600855620001da565b3390565b600780546001600160a01b038381166001600160a01b0319831681179093556040519116919082907f8be0079c531659141344cd1fd0a4f28419497f9722a3daafe3b4186f6b6457e090600090a35050565b82805462000105906200019d565b90600052602060002090601f01602090048101928262000129576000855562000174565b82601f106200014457805160ff191683800117855562000174565b8280016001018555821562000174579182015b828111156200017457825182559160200191906001019062000157565b506200018292915062000186565b5090565b5b8082111562000182576000815560010162000187565b600181811c90821680620001b257607f821691505b60208210811415620001d457634e487b7160e01b600052602260045260246000fd5b50919050565b6123da80620001ea6000396000f3fe608060405234801561001057600080fd5b50600436106101a35760003560e01c806364428894116100ee578063b88d4fde11610097578063dd8c550611610071578063dd8c550614610361578063ddc77f2714610374578063e985e9c514610387578063f2fde38b146103c357600080fd5b8063b88d4fde1461031b578063c87b56dd1461032e578063dd6c1f681461034157600080fd5b80638da5cb5b116100c85780638da5cb5b146102ef57806395d89b4114610300578063a22cb4651461030857600080fd5b806364428894146102c157806370a08231146102d4578063715018a6146102e757600080fd5b806328bb227011610150578063495057cf1161012a578063495057cf146102925780634ad651061461029b5780636352211e146102ae57600080fd5b806328bb22701461024b57806342842e0e1461025e578063461069f11461027157600080fd5b8063095ea7b311610181578063095ea7b3146102105780630ae728171461022557806323b872dd1461023857600080fd5b806301ffc9a7146101a857806306fdde03146101d0578063081812fc146101e5575b600080fd5b6101bb6101b6366004611cbe565b6103d6565b60405190151581526020015b60405180910390f35b6101d8610473565b6040516101c79190611d33565b6101f86101f3366004611d46565b610505565b6040516001600160a01b0390911681526020016101c7565b61022361021e366004611d74565b61052c565b005b610223610233366004611e4c565b610663565b610223610246366004611eb0565b610890565b610223610259366004611ef1565b610917565b61022361026c366004611eb0565b61099d565b61028461027f366004611f27565b6109b8565b6040519081526020016101c7565b61028460085481565b6009546101f8906001600160a01b031681565b6101f86102bc366004611d46565b6109f8565b6102236102cf366004611f5c565b610a5d565b6102846102e2366004611f5c565b610ab9565b610223610b53565b6007546001600160a01b03166101f8565b6101d8610b67565b610223610316366004611f79565b610b76565b610223610329366004611fac565b610b85565b6101d861033c366004611d46565b610c13565b61028461034f366004611d46565b600a6020526000908152604090205481565b61022361036f36600461202c565b610d24565b610223610382366004612069565b610e86565b6101bb6103953660046120d6565b6001600160a01b03918216600090815260056020908152604080832093909416825291909152205460ff1690565b6102236103d1366004611f5c565b6110ff565b60006001600160e01b031982167f80ac58cd00000000000000000000000000000000000000000000000000000000148061043957506001600160e01b031982167f5b5e139f00000000000000000000000000000000000000000000000000000000145b8061046d57507f01ffc9a7000000000000000000000000000000000000000000000000000000006001600160e01b03198316145b92915050565b60606000805461048290612104565b80601f01602080910402602001604051908101604052809291908181526020018280546104ae90612104565b80156104fb5780601f106104d0576101008083540402835291602001916104fb565b820191906000526020600020905b8154815290600101906020018083116104de57829003601f168201915b5050505050905090565b60006105108261118f565b506000908152600460205260409020546001600160a01b031690565b6000610537826109f8565b9050806001600160a01b0316836001600160a01b031614156105c65760405162461bcd60e51b815260206004820152602160248201527f4552433732313a20617070726f76616c20746f2063757272656e74206f776e6560448201527f720000000000000000000000000000000000000000000000000000000000000060648201526084015b60405180910390fd5b336001600160a01b03821614806105e257506105e28133610395565b6106545760405162461bcd60e51b815260206004820152603e60248201527f4552433732313a20617070726f76652063616c6c6572206973206e6f7420746f60448201527f6b656e206f776e6572206e6f7220617070726f76656420666f7220616c6c000060648201526084016105bd565b61065e83836111f3565b505050565b60c88251106106b45760405162461bcd60e51b815260206004820152600f60248201527f68616e646c6520746f6f206c6f6e67000000000000000000000000000000000060448201526064016105bd565b600a6000836040516020016106c99190611d33565b6040516020818303038152906040528051906020012081526020019081526020016000205460001461073d5760405162461bcd60e51b815260206004820152601c60248201527f68616e646c652074616b656e20627920616e6f7468657220757365720000000060448201526064016105bd565b61074633610ab9565b156107b95760405162461bcd60e51b815260206004820152602860248201527f412070726f66696c6520616c72656164792065786973747320666f722074686960448201527f732077616c6c657400000000000000000000000000000000000000000000000060648201526084016105bd565b60088054600091826107ca83612155565b91905055905080600a6000856040516020016107e69190611d33565b6040516020818303038152906040528051906020012081526020019081526020016000208190555060008383604051602001610823929190612170565b604051602081830303815290604052905061083e3383611261565b610848828261127b565b81336001600160a01b03167f02ed4ee0412e67bbc9ed1687f3ad6bb7134d359d45994f3bf5302e91d81cf61f866040516108829190611d33565b60405180910390a350505050565b61089a3382611324565b61090c5760405162461bcd60e51b815260206004820152602e60248201527f4552433732313a2063616c6c6572206973206e6f7420746f6b656e206f776e6560448201527f72206e6f7220617070726f76656400000000000000000000000000000000000060648201526084016105bd565b61065e8383836113a2565b61091f61156f565b8060ff1660028111156109345761093461221b565b6000838152600b60205260409020805460ff1916600183600281111561095c5761095c61221b565b021790555060405160ff8216815282907f05157c48372271fef198fc643b0a64d31eccd4ff30718a57b8e91ba6ecd48da59060200160405180910390a25050565b61065e83838360405180602001604052806000815250610b85565b600080826040516020016109cc9190611d33565b60408051601f1981840301815291815281516020928301206000908152600a9092529020549392505050565b6000818152600260205260408120546001600160a01b03168061046d5760405162461bcd60e51b815260206004820152601860248201527f4552433732313a20696e76616c696420746f6b656e204944000000000000000060448201526064016105bd565b610a6561156f565b600980546001600160a01b0319166001600160a01b0383169081179091556040519081527f7ff7bacc6cd661809ed1ddce28d4ad2c5b37779b61b9e3235f8262be529101a99060200160405180910390a150565b60006001600160a01b038216610b375760405162461bcd60e51b815260206004820152602960248201527f4552433732313a2061646472657373207a65726f206973206e6f74206120766160448201527f6c6964206f776e6572000000000000000000000000000000000000000000000060648201526084016105bd565b506001600160a01b031660009081526003602052604090205490565b610b5b61156f565b610b6560006115c9565b565b60606001805461048290612104565b610b8133838361161b565b5050565b610b8f3383611324565b610c015760405162461bcd60e51b815260206004820152602e60248201527f4552433732313a2063616c6c6572206973206e6f7420746f6b656e206f776e6560448201527f72206e6f7220617070726f76656400000000000000000000000000000000000060648201526084016105bd565b610c0d848484846116e2565b50505050565b6060610c1e8261118f565b60008281526006602052604081208054610c3790612104565b80601f0160208091040260200160405190810160405280929190818152602001828054610c6390612104565b8015610cb05780601f10610c8557610100808354040283529160200191610cb0565b820191906000526020600020905b815481529060010190602001808311610c9357829003601f168201915b505050505090506000610cce60408051602081019091526000815290565b9050805160001415610ce1575092915050565b815115610d13578082604051602001610cfb929190612231565b60405160208183030381529060405292505050919050565b610d1c84611760565b949350505050565b33610d2e836109f8565b6001600160a01b031614610daa5760405162461bcd60e51b815260206004820152603060248201527f796f75206e65656420746f206f776e20612070726f66696c6520746f206d616b60448201527f65206120706f73742066726f6d2069740000000000000000000000000000000060648201526084016105bd565b6009546040517f7efca41f0000000000000000000000000000000000000000000000000000000081526000916001600160a01b031690637efca41f90610df890869086903390600401612260565b6020604051808303816000875af1158015610e17573d6000803e3d6000fd5b505050506040513d601f19601f82011682018060405250810190610e3b9190612292565b905082336001600160a01b03167f2c65516f1e158977d9a13a610482ada9be23b1c904b6ec1d3323c10be24b705283604051610e7991815260200190565b60405180910390a3505050565b6040517f6352211e0000000000000000000000000000000000000000000000000000000081526004810184905233903090636352211e90602401602060405180830381865afa158015610edd573d6000803e3d6000fd5b505050506040513d601f19601f82011682018060405250810190610f0191906122ab565b6001600160a01b031614610f7d5760405162461bcd60e51b815260206004820152602a60248201527f6f6e6c792074686520746f6b656e20686f6c6465722063616e2075706461746560448201527f2074686520746f6b656e0000000000000000000000000000000000000000000060648201526084016105bd565b60c8825110610fce5760405162461bcd60e51b815260206004820152600f60248201527f68616e646c6520746f6f206c6f6e67000000000000000000000000000000000060448201526064016105bd565b600a600083604051602001610fe39190611d33565b604051602081830303815290604052805190602001208152602001908152602001600020546000146110575760405162461bcd60e51b815260206004820152601c60248201527f68616e646c652074616b656e20627920616e6f7468657220757365720000000060448201526064016105bd565b82600a60008460405160200161106d9190611d33565b60405160208183030381529060405280519060200120815260200190815260200160002081905550600082826040516020016110aa929190612170565b60405160208183030381529060405290506110c5848261127b565b83336001600160a01b03167f5055a48efcd294523de4f471b7ef149b2de92c815f45a7c72a4df708e6c34954856040516108829190611d33565b61110761156f565b6001600160a01b0381166111835760405162461bcd60e51b815260206004820152602660248201527f4f776e61626c653a206e6577206f776e657220697320746865207a65726f206160448201527f646472657373000000000000000000000000000000000000000000000000000060648201526084016105bd565b61118c816115c9565b50565b6000818152600260205260409020546001600160a01b031661118c5760405162461bcd60e51b815260206004820152601860248201527f4552433732313a20696e76616c696420746f6b656e204944000000000000000060448201526064016105bd565b600081815260046020526040902080546001600160a01b0319166001600160a01b0384169081179091558190611228826109f8565b6001600160a01b03167f8c5be1e5ebec7d5bd14f71427d1e84f3dd0314c0f7b2291e5b200ac8c7c3b92560405160405180910390a45050565b610b818282604051806020016040528060008152506117d4565b6000828152600260205260409020546001600160a01b03166113055760405162461bcd60e51b815260206004820152602e60248201527f45524337323155524953746f726167653a2055524920736574206f66206e6f6e60448201527f6578697374656e7420746f6b656e00000000000000000000000000000000000060648201526084016105bd565b6000828152600660209081526040909120825161065e92840190611c0f565b600080611330836109f8565b9050806001600160a01b0316846001600160a01b0316148061137757506001600160a01b0380821660009081526005602090815260408083209388168352929052205460ff165b80610d1c5750836001600160a01b031661139084610505565b6001600160a01b031614949350505050565b826001600160a01b03166113b5826109f8565b6001600160a01b0316146114315760405162461bcd60e51b815260206004820152602560248201527f4552433732313a207472616e736665722066726f6d20696e636f72726563742060448201527f6f776e657200000000000000000000000000000000000000000000000000000060648201526084016105bd565b6001600160a01b0382166114ac5760405162461bcd60e51b8152602060048201526024808201527f4552433732313a207472616e7366657220746f20746865207a65726f2061646460448201527f726573730000000000000000000000000000000000000000000000000000000060648201526084016105bd565b6114b76000826111f3565b6001600160a01b03831660009081526003602052604081208054600192906114e09084906122c8565b90915550506001600160a01b038216600090815260036020526040812080546001929061150e9084906122df565b909155505060008181526002602052604080822080546001600160a01b0319166001600160a01b0386811691821790925591518493918716917fddf252ad1be2c89b69c2b068fc378daa952ba7f163c4a11628f55a4df523b3ef91a4505050565b6007546001600160a01b03163314610b655760405162461bcd60e51b815260206004820181905260248201527f4f776e61626c653a2063616c6c6572206973206e6f7420746865206f776e657260448201526064016105bd565b600780546001600160a01b038381166001600160a01b0319831681179093556040519116919082907f8be0079c531659141344cd1fd0a4f28419497f9722a3daafe3b4186f6b6457e090600090a35050565b816001600160a01b0316836001600160a01b0316141561167d5760405162461bcd60e51b815260206004820152601960248201527f4552433732313a20617070726f766520746f2063616c6c65720000000000000060448201526064016105bd565b6001600160a01b03838116600081815260056020908152604080832094871680845294825291829020805460ff191686151590811790915591519182527f17307eab39ab6107e8899845ad3d59bd9653f200f220920489ca2b5937696c319101610e79565b6116ed8484846113a2565b6116f984848484611852565b610c0d5760405162461bcd60e51b815260206004820152603260248201527f4552433732313a207472616e7366657220746f206e6f6e20455243373231526560448201527131b2b4bb32b91034b6b83632b6b2b73a32b960711b60648201526084016105bd565b606061176b8261118f565b600061178260408051602081019091526000815290565b905060008151116117a257604051806020016040528060008152506117cd565b806117ac8461199b565b6040516020016117bd929190612231565b6040516020818303038152906040525b9392505050565b6117de8383611acd565b6117eb6000848484611852565b61065e5760405162461bcd60e51b815260206004820152603260248201527f4552433732313a207472616e7366657220746f206e6f6e20455243373231526560448201527131b2b4bb32b91034b6b83632b6b2b73a32b960711b60648201526084016105bd565b60006001600160a01b0384163b1561199057604051630a85bd0160e11b81526001600160a01b0385169063150b7a02906118969033908990889088906004016122f7565b6020604051808303816000875af19250505080156118d1575060408051601f3d908101601f191682019092526118ce91810190612333565b60015b611976573d8080156118ff576040519150601f19603f3d011682016040523d82523d6000602084013e611904565b606091505b50805161196e5760405162461bcd60e51b815260206004820152603260248201527f4552433732313a207472616e7366657220746f206e6f6e20455243373231526560448201527131b2b4bb32b91034b6b83632b6b2b73a32b960711b60648201526084016105bd565b805181602001fd5b6001600160e01b031916630a85bd0160e11b149050610d1c565b506001949350505050565b6060816119db57505060408051808201909152600181527f3000000000000000000000000000000000000000000000000000000000000000602082015290565b8160005b8115611a0557806119ef81612155565b91506119fe9050600a83612366565b91506119df565b60008167ffffffffffffffff811115611a2057611a20611da0565b6040519080825280601f01601f191660200182016040528015611a4a576020820181803683370190505b5090505b8415610d1c57611a5f6001836122c8565b9150611a6c600a8661237a565b611a779060306122df565b60f81b818381518110611a8c57611a8c61238e565b60200101907effffffffffffffffffffffffffffffffffffffffffffffffffffffffffffff1916908160001a905350611ac6600a86612366565b9450611a4e565b6001600160a01b038216611b235760405162461bcd60e51b815260206004820181905260248201527f4552433732313a206d696e7420746f20746865207a65726f206164647265737360448201526064016105bd565b6000818152600260205260409020546001600160a01b031615611b885760405162461bcd60e51b815260206004820152601c60248201527f4552433732313a20746f6b656e20616c7265616479206d696e7465640000000060448201526064016105bd565b6001600160a01b0382166000908152600360205260408120805460019290611bb19084906122df565b909155505060008181526002602052604080822080546001600160a01b0319166001600160a01b03861690811790915590518392907fddf252ad1be2c89b69c2b068fc378daa952ba7f163c4a11628f55a4df523b3ef908290a45050565b828054611c1b90612104565b90600052602060002090601f016020900481019282611c3d5760008555611c83565b82601f10611c5657805160ff1916838001178555611c83565b82800160010185558215611c83579182015b82811115611c83578251825591602001919060010190611c68565b50611c8f929150611c93565b5090565b5b80821115611c8f5760008155600101611c94565b6001600160e01b03198116811461118c57600080fd5b600060208284031215611cd057600080fd5b81356117cd81611ca8565b60005b83811015611cf6578181015183820152602001611cde565b83811115610c0d5750506000910152565b60008151808452611d1f816020860160208601611cdb565b601f01601f19169290920160200192915050565b6020815260006117cd6020830184611d07565b600060208284031215611d5857600080fd5b5035919050565b6001600160a01b038116811461118c57600080fd5b60008060408385031215611d8757600080fd5b8235611d9281611d5f565b946020939093013593505050565b634e487b7160e01b600052604160045260246000fd5b600067ffffffffffffffff80841115611dd157611dd1611da0565b604051601f8501601f19908116603f01168101908282118183101715611df957611df9611da0565b81604052809350858152868686011115611e1257600080fd5b858560208301376000602087830101525050509392505050565b600082601f830112611e3d57600080fd5b6117cd83833560208501611db6565b60008060408385031215611e5f57600080fd5b823567ffffffffffffffff80821115611e7757600080fd5b611e8386838701611e2c565b93506020850135915080821115611e9957600080fd5b50611ea685828601611e2c565b9150509250929050565b600080600060608486031215611ec557600080fd5b8335611ed081611d5f565b92506020840135611ee081611d5f565b929592945050506040919091013590565b60008060408385031215611f0457600080fd5b82359150602083013560ff81168114611f1c57600080fd5b809150509250929050565b600060208284031215611f3957600080fd5b813567ffffffffffffffff811115611f5057600080fd5b610d1c84828501611e2c565b600060208284031215611f6e57600080fd5b81356117cd81611d5f565b60008060408385031215611f8c57600080fd5b8235611f9781611d5f565b915060208301358015158114611f1c57600080fd5b60008060008060808587031215611fc257600080fd5b8435611fcd81611d5f565b93506020850135611fdd81611d5f565b925060408501359150606085013567ffffffffffffffff81111561200057600080fd5b8501601f8101871361201157600080fd5b61202087823560208401611db6565b91505092959194509250565b6000806040838503121561203f57600080fd5b82359150602083013567ffffffffffffffff81111561205d57600080fd5b611ea685828601611e2c565b60008060006060848603121561207e57600080fd5b83359250602084013567ffffffffffffffff8082111561209d57600080fd5b6120a987838801611e2c565b935060408601359150808211156120bf57600080fd5b506120cc86828701611e2c565b9150509250925092565b600080604083850312156120e957600080fd5b82356120f481611d5f565b91506020830135611f1c81611d5f565b600181811c9082168061211857607f821691505b6020821081141561213957634e487b7160e01b600052602260045260246000fd5b50919050565b634e487b7160e01b600052601160045260246000fd5b60006000198214156121695761216961213f565b5060010190565b7f7b2268616e646c65223a202200000000000000000000000000000000000000008152600083516121a881600c850160208801611cdb565b7f222c202270726f66696c6544617461223a200000000000000000000000000000600c9184019182015283516121e581601e840160208801611cdb565b7f7d00000000000000000000000000000000000000000000000000000000000000601e9290910191820152601f01949350505050565b634e487b7160e01b600052602160045260246000fd5b60008351612243818460208801611cdb565b835190830190612257818360208801611cdb565b01949350505050565b8381526060602082015260006122796060830185611d07565b90506001600160a01b0383166040830152949350505050565b6000602082840312156122a457600080fd5b5051919050565b6000602082840312156122bd57600080fd5b81516117cd81611d5f565b6000828210156122da576122da61213f565b500390565b600082198211156122f2576122f261213f565b500190565b60006001600160a01b038087168352808616602084015250836040830152608060608301526123296080830184611d07565b9695505050505050565b60006020828403121561234557600080fd5b81516117cd81611ca8565b634e487b7160e01b600052601260045260246000fd5b60008261237557612375612350565b500490565b60008261238957612389612350565b500690565b634e487b7160e01b600052603260045260246000fdfea2646970667358221220bf925ad0ed8f6d1b6c28973ac048359ccabab68a0517a4e3384fced462545d7c64736f6c634300080a0033",
  "linkReferences": {},
  "deployedLinkReferences": {}
}